{"abi":[{"type":"constructor","inputs":[{"name":"ercAsset","type":"address","internalType":"contract IERC20"},{"name":"name","type":"string","internalType":"string"},{"name":"symbol","type":"string","internalType":"string"},{"name":"owner","type":"address","internalType":"address"},{"name":"_router","type":"address","internalType":"address"},{"name":"initialAssets","type":"uint256","internalType":"uint256"}],"stateMutability":"nonpayable"},{"type":"function","name":"_initializeVault","inputs":[{"name":"sharesTo","type":"address","internalType":"address"},{"name":"depositFrom","type":"address","internalType":"address"},{"name":"assetsToDeposit","type":"uint256","internalType":"uint256"}],"outputs":[{"name":"","type":"bool","internalType":"bool"}],"stateMutability":"nonpayable"},{"type":"function","name":"allowance","inputs":[{"name":"owner","type":"address","internalType":"address"},{"name":"spender","type":"address","internalType":"address"}],"outputs":[{"name":"","type":"uint256","internalType":"uint256"}],"stateMutability":"view"},{"type":"function","name":"approve","inputs":[{"name":"spender","type":"address","internalType":"address"},{"name":"value","type":"uint256","internalType":"uint256"}],"outputs":[{"name":"","type":"bool","internalType":"bool"}],"stateMutability":"nonpayable"},{"type":"function","name":"asset","inputs":[],"outputs":[{"name":"","type":"address","internalType":"address"}],"stateMutability":"view"},{"type":"function","name":"balanceOf","inputs":[{"name":"account","type":"address","internalType":"address"}],"outputs":[{"name":"","type":"uint256","internalType":"uint256"}],"stateMutability":"view"},{"type":"function","name":"burnShare","inputs":[{"name":"shares","type":"uint256","internalType":"uint256"}],"outputs":[{"name":"","type":"bool","internalType":"bool"}],"stateMutability":"nonpayable"},{"type":"function","name":"controller","inputs":[],"outputs":[{"name":"","type":"address","internalType":"address"}],"stateMutability":"view"},{"type":"function","name":"convertToAssets","inputs":[{"name":"shares","type":"uint256","internalType":"uint256"}],"outputs":[{"name":"","type":"uint256","internalType":"uint256"}],"stateMutability":"view"},{"type":"function","name":"convertToShares","inputs":[{"name":"assets","type":"uint256","internalType":"uint256"}],"outputs":[{"name":"","type":"uint256","internalType":"uint256"}],"stateMutability":"view"},{"type":"function","name":"decimals","inputs":[],"outputs":[{"name":"","type":"uint8","internalType":"uint8"}],"stateMutability":"view"},{"type":"function","name":"deposit","inputs":[{"name":"assets","type":"uint256","internalType":"uint256"},{"name":"receiver","type":"address","internalType":"address"}],"outputs":[{"name":"","type":"uint256","internalType":"uint256"}],"stateMutability":"nonpayable"},{"type":"function","name":"depositAssets","inputs":[{"name":"amount","type":"uint256","internalType":"uint256"}],"outputs":[{"name":"","type":"bool","internalType":"bool"}],"stateMutability":"nonpayable"},{"type":"function","name":"fee","inputs":[],"outputs":[{"name":"","type":"uint256","internalType":"uint256"}],"stateMutability":"view"},{"type":"function","name":"fractionalReserve","inputs":[],"outputs":[{"name":"","type":"uint256","internalType":"uint256"}],"stateMutability":"view"},{"type":"function","name":"getWithdrawable","inputs":[],"outputs":[{"name":"","type":"uint256","internalType":"uint256"}],"stateMutability":"view"},{"type":"function","name":"isInitialized","inputs":[],"outputs":[{"name":"state","type":"bool","internalType":"bool"}],"stateMutability":"view"},{"type":"function","name":"maxDeposit","inputs":[{"name":"","type":"address","internalType":"address"}],"outputs":[{"name":"","type":"uint256","internalType":"uint256"}],"stateMutability":"view"},{"type":"function","name":"maxMint","inputs":[{"name":"","type":"address","internalType":"address"}],"outputs":[{"name":"","type":"uint256","internalType":"uint256"}],"stateMutability":"view"},{"type":"function","name":"maxRedeem","inputs":[{"name":"owner","type":"address","internalType":"address"}],"outputs":[{"name":"","type":"uint256","internalType":"uint256"}],"stateMutability":"view"},{"type":"function","name":"maxWithdraw","inputs":[{"name":"owner","type":"address","internalType":"address"}],"outputs":[{"name":"","type":"uint256","internalType":"uint256"}],"stateMutability":"view"},{"type":"function","name":"mint","inputs":[{"name":"shares","type":"uint256","internalType":"uint256"},{"name":"receiver","type":"address","internalType":"address"}],"outputs":[{"name":"","type":"uint256","internalType":"uint256"}],"stateMutability":"nonpayable"},{"type":"function","name":"mintShare","inputs":[{"name":"at","type":"address","internalType":"address"},{"name":"shares","type":"uint256","internalType":"uint256"}],"outputs":[{"name":"","type":"bool","internalType":"bool"}],"stateMutability":"nonpayable"},{"type":"function","name":"name","inputs":[],"outputs":[{"name":"","type":"string","internalType":"string"}],"stateMutability":"view"},{"type":"function","name":"owner","inputs":[],"outputs":[{"name":"","type":"address","internalType":"address"}],"stateMutability":"view"},{"type":"function","name":"previewDeposit","inputs":[{"name":"assets","type":"uint256","internalType":"uint256"}],"outputs":[{"name":"","type":"uint256","internalType":"uint256"}],"stateMutability":"view"},{"type":"function","name":"previewMint","inputs":[{"name":"shares","type":"uint256","internalType":"uint256"}],"outputs":[{"name":"","type":"uint256","internalType":"uint256"}],"stateMutability":"view"},{"type":"function","name":"previewRedeem","inputs":[{"name":"shares","type":"uint256","internalType":"uint256"}],"outputs":[{"name":"","type":"uint256","internalType":"uint256"}],"stateMutability":"view"},{"type":"function","name":"previewWithdraw","inputs":[{"name":"assets","type":"uint256","internalType":"uint256"}],"outputs":[{"name":"","type":"uint256","internalType":"uint256"}],"stateMutability":"view"},{"type":"function","name":"redeem","inputs":[{"name":"shares","type":"uint256","internalType":"uint256"},{"name":"receiver","type":"address","internalType":"address"},{"name":"owner","type":"address","internalType":"address"}],"outputs":[{"name":"","type":"uint256","internalType":"uint256"}],"stateMutability":"nonpayable"},{"type":"function","name":"renounceOwnership","inputs":[],"outputs":[],"stateMutability":"nonpayable"},{"type":"function","name":"symbol","inputs":[],"outputs":[{"name":"","type":"string","internalType":"string"}],"stateMutability":"view"},{"type":"function","name":"totalAssets","inputs":[],"outputs":[{"name":"","type":"uint256","internalType":"uint256"}],"stateMutability":"view"},{"type":"function","name":"totalSupply","inputs":[],"outputs":[{"name":"","type":"uint256","internalType":"uint256"}],"stateMutability":"view"},{"type":"function","name":"transfer","inputs":[{"name":"to","type":"address","internalType":"address"},{"name":"value","type":"uint256","internalType":"uint256"}],"outputs":[{"name":"","type":"bool","internalType":"bool"}],"stateMutability":"nonpayable"},{"type":"function","name":"transferFrom","inputs":[{"name":"from","type":"address","internalType":"address"},{"name":"to","type":"address","internalType":"address"},{"name":"value","type":"uint256","internalType":"uint256"}],"outputs":[{"name":"","type":"bool","internalType":"bool"}],"stateMutability":"nonpayable"},{"type":"function","name":"transferOwnership","inputs":[{"name":"newOwner","type":"address","internalType":"address"}],"outputs":[],"stateMutability":"nonpayable"},{"type":"function","name":"withdraw","inputs":[{"name":"assets","type":"uint256","internalType":"uint256"},{"name":"receiver","type":"address","internalType":"address"},{"name":"owner","type":"address","internalType":"address"}],"outputs":[{"name":"","type":"uint256","internalType":"uint256"}],"stateMutability":"nonpayable"},{"type":"function","name":"withdrawAssets","inputs":[{"name":"amount","type":"uint256","internalType":"uint256"}],"outputs":[{"name":"","type":"bool","internalType":"bool"}],"stateMutability":"nonpayable"},{"type":"event","name":"Approval","inputs":[{"name":"owner","type":"address","indexed":true,"internalType":"address"},{"name":"spender","type":"address","indexed":true,"internalType":"address"},{"name":"value","type":"uint256","indexed":false,"internalType":"uint256"}],"anonymous":false},{"type":"event","name":"Deposit","inputs":[{"name":"sender","type":"address","indexed":true,"internalType":"address"},{"name":"owner","type":"address","indexed":true,"internalType":"address"},{"name":"assets","type":"uint256","indexed":false,"internalType":"uint256"},{"name":"shares","type":"uint256","indexed":false,"internalType":"uint256"}],"anonymous":false},{"type":"event","name":"OwnershipTransferred","inputs":[{"name":"previousOwner","type":"address","indexed":true,"internalType":"address"},{"name":"newOwner","type":"address","indexed":true,"internalType":"address"}],"anonymous":false},{"type":"event","name":"Transfer","inputs":[{"name":"from","type":"address","indexed":true,"internalType":"address"},{"name":"to","type":"address","indexed":true,"internalType":"address"},{"name":"value","type":"uint256","indexed":false,"internalType":"uint256"}],"anonymous":false},{"type":"event","name":"Withdraw","inputs":[{"name":"sender","type":"address","indexed":true,"internalType":"address"},{"name":"receiver","type":"address","indexed":true,"internalType":"address"},{"name":"owner","type":"address","indexed":true,"internalType":"address"},{"name":"assets","type":"uint256","indexed":false,"internalType":"uint256"},{"name":"shares","type":"uint256","indexed":false,"internalType":"uint256"}],"anonymous":false},{"type":"error","name":"AddressEmptyCode","inputs":[{"name":"target","type":"address","internalType":"address"}]},{"type":"error","name":"AddressInsufficientBalance","inputs":[{"name":"account","type":"address","internalType":"address"}]},{"type":"error","name":"ERC20InsufficientAllowance","inputs":[{"name":"spender","type":"address","internalType":"address"},{"name":"allowance","type":"uint256","internalType":"uint256"},{"name":"needed","type":"uint256","internalType":"uint256"}]},{"type":"error","name":"ERC20InsufficientBalance","inputs":[{"name":"sender","type":"address","internalType":"address"},{"name":"balance","type":"uint256","internalType":"uint256"},{"name":"needed","type":"uint256","internalType":"uint256"}]},{"type":"error","name":"ERC20InvalidApprover","inputs":[{"name":"approver","type":"address","internalType":"address"}]},{"type":"error","name":"ERC20InvalidReceiver","inputs":[{"name":"receiver","type":"address","internalType":"address"}]},{"type":"error","name":"ERC20InvalidSender","inputs":[{"name":"sender","type":"address","internalType":"address"}]},{"type":"error","name":"ERC20InvalidSpender","inputs":[{"name":"spender","type":"address","internalType":"address"}]},{"type":"error","name":"ERC4626ExceededMaxDeposit","inputs":[{"name":"receiver","type":"address","internalType":"address"},{"name":"assets","type":"uint256","internalType":"uint256"},{"name":"max","type":"uint256","internalType":"uint256"}]},{"type":"error","name":"ERC4626ExceededMaxMint","inputs":[{"name":"receiver","type":"address","internalType":"address"},{"name":"shares","type":"uint256","internalType":"uint256"},{"name":"max","type":"uint256","internalType":"uint256"}]},{"type":"error","name":"ERC4626ExceededMaxRedeem","inputs":[{"name":"owner","type":"address","internalType":"address"},{"name":"shares","type":"uint256","internalType":"uint256"},{"name":"max","type":"uint256","internalType":"uint256"}]},{"type":"error","name":"ERC4626ExceededMaxWithdraw","inputs":[{"name":"owner","type":"address","internalType":"address"},{"name":"assets","type":"uint256","internalType":"uint256"},{"name":"max","type":"uint256","internalType":"uint256"}]},{"type":"error","name":"FailedInnerCall","inputs":[]},{"type":"error","name":"MathOverflowedMulDiv","inputs":[]},{"type":"error","name":"OwnableInvalidOwner","inputs":[{"name":"owner","type":"address","internalType":"address"}]},{"type":"error","name":"OwnableUnauthorizedAccount","inputs":[{"name":"account","type":"address","internalType":"address"}]},{"type":"error","name":"SafeERC20FailedOperation","inputs":[{"name":"token","type":"address","internalType":"address"}]}],"bytecode":{"object":"0x60c06040526005600755601e6008553480156200001b57600080fd5b5060405162002391380380620023918339810160408190526200003e916200049a565b828686866003620000508382620005dd565b5060046200005f8282620005dd565b50505060008062000076836200010c60201b60201c565b9150915081620000885760126200008a565b805b60ff1660a05250506001600160a01b039081166080528116620000c857604051631e4fbdf760e01b8152600060048201526024015b60405180910390fd5b620000d381620001f1565b50620000e0828262000243565b50600a80546001600160a01b0319166001600160a01b0392909216919091179055506200070992505050565b60408051600481526024810182526020810180516001600160e01b031663313ce56760e01b17905290516000918291829182916001600160a01b038716916200015591620006a9565b600060405180830381855afa9150503d806000811462000192576040519150601f19603f3d011682016040523d82523d6000602084013e62000197565b606091505b5091509150818015620001ac57506020815110155b15620001e457600081806020019051810190620001ca9190620006c7565b905060ff8111620001e2576001969095509350505050565b505b5060009485945092505050565b600680546001600160a01b038381166001600160a01b0319831681179093556040519116919082907f8be0079c531659141344cd1fd0a4f28419497f9722a3daafe3b4186f6b6457e090600090a35050565b6001600160a01b0382166200026f5760405163ec442f0560e01b815260006004820152602401620000bf565b6200027d6000838362000281565b5050565b6001600160a01b038316620002b0578060026000828254620002a49190620006e1565b90915550620003249050565b6001600160a01b03831660009081526020819052604090205481811015620003055760405163391434e360e21b81526001600160a01b03851660048201526024810182905260448101839052606401620000bf565b6001600160a01b03841660009081526020819052604090209082900390555b6001600160a01b038216620003425760028054829003905562000361565b6001600160a01b03821660009081526020819052604090208054820190555b816001600160a01b0316836001600160a01b03167fddf252ad1be2c89b69c2b068fc378daa952ba7f163c4a11628f55a4df523b3ef83604051620003a791815260200190565b60405180910390a3505050565b6001600160a01b0381168114620003ca57600080fd5b50565b634e487b7160e01b600052604160045260246000fd5b60005b8381101562000400578181015183820152602001620003e6565b50506000910152565b600082601f8301126200041b57600080fd5b81516001600160401b0380821115620004385762000438620003cd565b604051601f8301601f19908116603f01168101908282118183101715620004635762000463620003cd565b816040528381528660208588010111156200047d57600080fd5b62000490846020830160208901620003e3565b9695505050505050565b60008060008060008060c08789031215620004b457600080fd5b8651620004c181620003b4565b60208801519096506001600160401b0380821115620004df57600080fd5b620004ed8a838b0162000409565b965060408901519150808211156200050457600080fd5b506200051389828a0162000409565b94505060608701516200052681620003b4565b60808801519093506200053981620003b4565b8092505060a087015190509295509295509295565b600181811c908216806200056357607f821691505b6020821081036200058457634e487b7160e01b600052602260045260246000fd5b50919050565b601f821115620005d857600081815260208120601f850160051c81016020861015620005b35750805b601f850160051c820191505b81811015620005d457828155600101620005bf565b5050505b505050565b81516001600160401b03811115620005f957620005f9620003cd565b62000611816200060a84546200054e565b846200058a565b602080601f831160018114620006495760008415620006305750858301515b600019600386901b1c1916600185901b178555620005d4565b600085815260208120601f198616915b828110156200067a5788860151825594840194600190910190840162000659565b5085821015620006995787850151600019600388901b60f8161c191681555b5050505050600190811b01905550565b60008251620006bd818460208701620003e3565b9190910192915050565b600060208284031215620006da57600080fd5b5051919050565b808201808211156200070357634e487b7160e01b600052601160045260246000fd5b92915050565b60805160a051611c236200076e60003960006107090152600081816103110152818161076d015281816107ea015281816109040152818161098701528181610bbe01528181610c55015281816113a601528181611478015261153c0152611c236000f3fe608060405234801561001057600080fd5b50600436106102325760003560e01c80638da5cb5b11610130578063c63d75b6116100b8578063dd62ed3e1161007c578063dd62ed3e146104bc578063ddca3f43146104f5578063ef8b30f7146104fe578063f2fde38b14610511578063f77c47911461052457600080fd5b8063c63d75b61461035b578063c6e6f59214610470578063ce96cb7714610483578063d1033c0714610496578063d905777e146104a957600080fd5b8063aad58d27116100ff578063aad58d271461041b578063b3d7f6b914610424578063b460af9414610437578063ba0876521461044a578063c2f04b0a1461045d57600080fd5b80638da5cb5b146103dc57806394bf804d146103ed57806395d89b4114610400578063a9059cbb1461040857600080fd5b8063313ce567116101be5780634cdad506116101825780634cdad506146103705780636e553f651461038357806370a0823114610396578063715018a6146103bf57806371f0b5c5146103c957600080fd5b8063313ce567146102e2578063363850ac146102fc57806338d52e0f1461030f578063392e53cd14610349578063402d267d1461035b57600080fd5b80630a28a477116102055780630a28a477146102995780630ebc2d23146102ac57806318160ddd146102bf5780631fa35ad4146102c757806323b872dd146102cf57600080fd5b806301e1d1141461023757806306fdde031461024e57806307a2d13a14610263578063095ea7b314610276575b600080fd5b6005545b6040519081526020015b60405180910390f35b610256610537565b60405161024591906117da565b61023b61027136600461180d565b6105c9565b61028961028436600461183d565b6105dc565b6040519015158152602001610245565b61023b6102a736600461180d565b6105f4565b6102896102ba36600461180d565b61061b565b60025461023b565b61023b610696565b6102896102dd366004611867565b6106dc565b6102ea610700565b60405160ff9091168152602001610245565b61028961030a366004611867565b610732565b7f00000000000000000000000000000000000000000000000000000000000000005b6040516001600160a01b039091168152602001610245565b600a54600160a01b900460ff16610289565b61023b6103693660046118a3565b5060001990565b61023b61037e36600461180d565b610835565b61023b6103913660046118be565b610856565b61023b6103a43660046118a3565b6001600160a01b031660009081526020819052604090205490565b6103c7610896565b005b6102896103d736600461180d565b6108aa565b6006546001600160a01b0316610331565b61023b6103fb3660046118be565b6109ec565b610256610a24565b61028961041636600461183d565b610a33565b61023b60085481565b61023b61043236600461180d565b610a41565b61023b6104453660046118ea565b610a62565b61023b6104583660046118ea565b610aa4565b61028961046b36600461183d565b610add565b61023b61047e36600461180d565b610b33565b61023b6104913660046118a3565b610b40565b6102896104a436600461180d565b610b64565b61023b6104b73660046118a3565b610c8d565b61023b6104ca366004611926565b6001600160a01b03918216600090815260016020908152604080832093909416825291909152205490565b61023b60075481565b61023b61050c36600461180d565b610cab565b6103c761051f3660046118a3565b610cc6565b600a54610331906001600160a01b031681565b60606003805461054690611950565b80601f016020809104026020016040519081016040528092919081815260200182805461057290611950565b80156105bf5780601f10610594576101008083540402835291602001916105bf565b820191906000526020600020905b8154815290600101906020018083116105a257829003601f168201915b5050505050905090565b60006105d6826000610d04565b92915050565b6000336105ea818585610d3f565b5060019392505050565b60008061060083610d51565b905061061461060f82856119a0565b610d6b565b9392505050565b600a546000906001600160a01b0316331461063557600080fd5b600a54600160a01b900460ff166106675760405162461bcd60e51b815260040161065e906119b3565b60405180910390fd5b3360009081526020819052604090205482111561068357600080fd5b61068d3383610d78565b5060015b919050565b60008060646008546005546106ab91906119dd565b6106b59190611a0a565b90508060095410156106d4576009546106ce9082611a1e565b91505090565b600091505090565b6000336106ea858285610db2565b6106f5858585610e1d565b506001949350505050565b600061072d60087f0000000000000000000000000000000000000000000000000000000000000000611a31565b905090565b600a546000906001600160a01b0316331461074c57600080fd5b6040516370a0823160e01b81526001600160a01b03848116600483015283917f0000000000000000000000000000000000000000000000000000000000000000909116906370a0823190602401602060405180830381865afa1580156107b6573d6000803e3d6000fd5b505050506040513d601f19601f820116820180604052508101906107da9190611a4a565b10156107e557600080fd5b6108117f0000000000000000000000000000000000000000000000000000000000000000843085610e7c565b50600a805460ff60a01b1916600160a01b90811791829055900460ff169392505050565b600080610841836105c9565b905061084c81610ee3565b6106149082611a1e565b600a54600090600160a01b900460ff166108825760405162461bcd60e51b815260040161065e906119b3565b600061088e8484610f0a565b949350505050565b61089e610f28565b6108a86000610f55565b565b600a546000906001600160a01b031633146108c457600080fd5b600a54600160a01b900460ff166108ed5760405162461bcd60e51b815260040161065e906119b3565b6040516370a0823160e01b815233600482015282907f00000000000000000000000000000000000000000000000000000000000000006001600160a01b0316906370a0823190602401602060405180830381865afa158015610953573d6000803e3d6000fd5b505050506040513d601f19601f820116820180604052508101906109779190611a4a565b101561098257600080fd5b6109ae7f0000000000000000000000000000000000000000000000000000000000000000333085610e7c565b81600560008282546109c091906119a0565b90915550506009541561068d5781600960008282546109df9190611a1e565b9091555050506001919050565b600a54600090600160a01b900460ff16610a185760405162461bcd60e51b815260040161065e906119b3565b600061088e8484610fa7565b60606004805461054690611950565b6000336105ea818585610e1d565b600080610a4d83610fc5565b9050610a5881610d51565b61061490826119a0565b600a54600090600160a01b900460ff16610a8e5760405162461bcd60e51b815260040161065e906119b3565b6000610a9b858585610fd2565b95945050505050565b600a54600090600160a01b900460ff16610ad05760405162461bcd60e51b815260040161065e906119b3565b6000610a9b858585611021565b600a546000906001600160a01b03163314610af757600080fd5b600a54600160a01b900460ff16610b205760405162461bcd60e51b815260040161065e906119b3565b610b2a8383611070565b50600192915050565b60006105d68260006110a6565b6001600160a01b0381166000908152602081905260408120546105d6906000610d04565b600a546000906001600160a01b03163314610b7e57600080fd5b600a54600160a01b900460ff16610ba75760405162461bcd60e51b815260040161065e906119b3565b6040516370a0823160e01b815230600482015282907f00000000000000000000000000000000000000000000000000000000000000006001600160a01b0316906370a0823190602401602060405180830381865afa158015610c0d573d6000803e3d6000fd5b505050506040513d601f19601f82011682018060405250810190610c319190611a4a565b1015610c3c57600080fd5b81610c45610696565b1015610c5057600080fd5b610c7b7f000000000000000000000000000000000000000000000000000000000000000033846110d2565b81600960008282546109df91906119a0565b6001600160a01b0381166000908152602081905260408120546105d6565b600080610cb783610ee3565b905061061461047e8285611a1e565b610cce610f28565b6001600160a01b038116610cf857604051631e4fbdf760e01b81526000600482015260240161065e565b610d0181610f55565b50565b6000610614610d1260055490565b610d1d9060016119a0565b610d296008600a611b47565b600254610d3691906119a0565b85919085611103565b610d4c8383836001611152565b505050565b60006105d6610d5f60075490565b83906127106001611103565b60006105d68260016110a6565b6001600160a01b038216610da257604051634b637e8f60e11b81526000600482015260240161065e565b610dae82600083611227565b5050565b6001600160a01b038381166000908152600160209081526040808320938616835292905220546000198114610e175781811015610e0857828183604051637dc7a0d960e11b815260040161065e93929190611b56565b610e1784848484036000611152565b50505050565b6001600160a01b038316610e4757604051634b637e8f60e11b81526000600482015260240161065e565b6001600160a01b038216610e715760405163ec442f0560e01b81526000600482015260240161065e565b610d4c838383611227565b6040516001600160a01b038481166024830152838116604483015260648201839052610e179186918216906323b872dd906084015b604051602081830303815290604052915060e01b6020820180516001600160e01b03838183161783525050505061133e565b60006105d6610ef160075490565b600754610f00906127106119a0565b8491906001611103565b60006000196000610f1a85610cab565b905061088e338587846113a1565b6006546001600160a01b031633146108a85760405163118cdaa760e01b815233600482015260240161065e565b600680546001600160a01b038381166001600160a01b0319831681179093556040519116919082907f8be0079c531659141344cd1fd0a4f28419497f9722a3daafe3b4186f6b6457e090600090a35050565b60006000196000610fb785610a41565b905061088e338583886113a1565b60006105d6826001610d04565b600080610fde83610b40565b90508085111561100757828582604051633fa733bb60e21b815260040161065e93929190611b56565b6000611012866105f4565b9050610a9b338686898561143d565b60008061102d83610c8d565b90508085111561105657828582604051632e52afbb60e21b815260040161065e93929190611b56565b600061106186610835565b9050610a9b338686848a61143d565b6001600160a01b03821661109a5760405163ec442f0560e01b81526000600482015260240161065e565b610dae60008383611227565b60006106146110b76008600a611b47565b6002546110c491906119a0565b600554610d369060016119a0565b6040516001600160a01b03838116602483015260448201839052610d4c91859182169063a9059cbb90606401610eb1565b6000806111118686866115cd565b905061111c83611691565b8015611138575060008480611133576111336119f4565b868809115b15610a9b576111486001826119a0565b9695505050505050565b6001600160a01b03841661117c5760405163e602df0560e01b81526000600482015260240161065e565b6001600160a01b0383166111a657604051634a1406b160e11b81526000600482015260240161065e565b6001600160a01b0380851660009081526001602090815260408083209387168352929052208290558015610e1757826001600160a01b0316846001600160a01b03167f8c5be1e5ebec7d5bd14f71427d1e84f3dd0314c0f7b2291e5b200ac8c7c3b9258460405161121991815260200190565b60405180910390a350505050565b6001600160a01b03831661125257806002600082825461124791906119a0565b909155506112b19050565b6001600160a01b038316600090815260208190526040902054818110156112925783818360405163391434e360e21b815260040161065e93929190611b56565b6001600160a01b03841660009081526020819052604090209082900390555b6001600160a01b0382166112cd576002805482900390556112ec565b6001600160a01b03821660009081526020819052604090208054820190555b816001600160a01b0316836001600160a01b03167fddf252ad1be2c89b69c2b068fc378daa952ba7f163c4a11628f55a4df523b3ef8360405161133191815260200190565b60405180910390a3505050565b60006113536001600160a01b038416836116be565b905080516000141580156113785750808060200190518101906113769190611b77565b155b15610d4c57604051635274afe760e01b81526001600160a01b038416600482015260240161065e565b6113cd7f0000000000000000000000000000000000000000000000000000000000000000853085610e7c565b81600560008282546113df91906119a0565b909155506113ef90508382611070565b826001600160a01b0316846001600160a01b03167fdcbc1c05240f31ff3ad067ef1ee35ce4997762752e3a095284754544f4c709d78484604051611219929190918252602082015260400190565b826001600160a01b0316856001600160a01b03161461146157611461838683610db2565b6040516370a0823160e01b815230600482015282907f00000000000000000000000000000000000000000000000000000000000000006001600160a01b0316906370a0823190602401602060405180830381865afa1580156114c7573d6000803e3d6000fd5b505050506040513d601f19601f820116820180604052508101906114eb9190611a4a565b101561152d5760405162461bcd60e51b8152602060048201526011602482015270756e61626c6520746f2070726f6365737360781b604482015260640161065e565b6115378382610d78565b6115627f000000000000000000000000000000000000000000000000000000000000000085846110d2565b81600560008282546115749190611a1e565b909155505060408051838152602081018390526001600160a01b038086169287821692918916917ffbde797d201c681b91056529119e0b02407c7bb96a4a2c75c01fc9667232c8db910160405180910390a45050505050565b6000838302816000198587098281108382030391505080600003611604578382816115fa576115fa6119f4565b0492505050610614565b8084116116245760405163227bc15360e01b815260040160405180910390fd5b6000848688096000868103871696879004966002600389028118808a02820302808a02820302808a02820302808a02820302808a02820302808a02909103029181900381900460010186841190950394909402919094039290920491909117919091029150509392505050565b600060028260038111156116a7576116a7611b99565b6116b19190611baf565b60ff166001149050919050565b60606106148383600084600080856001600160a01b031684866040516116e49190611bd1565b60006040518083038185875af1925050503d8060008114611721576040519150601f19603f3d011682016040523d82523d6000602084013e611726565b606091505b5091509150611148868383606082611746576117418261178d565b610614565b815115801561175d57506001600160a01b0384163b155b1561178657604051639996b31560e01b81526001600160a01b038516600482015260240161065e565b5080610614565b80511561179d5780518082602001fd5b604051630a12f52160e11b815260040160405180910390fd5b60005b838110156117d15781810151838201526020016117b9565b50506000910152565b60208152600082518060208401526117f98160408501602087016117b6565b601f01601f19169190910160400192915050565b60006020828403121561181f57600080fd5b5035919050565b80356001600160a01b038116811461069157600080fd5b6000806040838503121561185057600080fd5b61185983611826565b946020939093013593505050565b60008060006060848603121561187c57600080fd5b61188584611826565b925061189360208501611826565b9150604084013590509250925092565b6000602082840312156118b557600080fd5b61061482611826565b600080604083850312156118d157600080fd5b823591506118e160208401611826565b90509250929050565b6000806000606084860312156118ff57600080fd5b8335925061190f60208501611826565b915061191d60408501611826565b90509250925092565b6000806040838503121561193957600080fd5b61194283611826565b91506118e160208401611826565b600181811c9082168061196457607f821691505b60208210810361198457634e487b7160e01b600052602260045260246000fd5b50919050565b634e487b7160e01b600052601160045260246000fd5b808201808211156105d6576105d661198a565b60208082526010908201526f7661756c74206e6f742061637469766560801b604082015260600190565b80820281158282048414176105d6576105d661198a565b634e487b7160e01b600052601260045260246000fd5b600082611a1957611a196119f4565b500490565b818103818111156105d6576105d661198a565b60ff81811683821601908111156105d6576105d661198a565b600060208284031215611a5c57600080fd5b5051919050565b600181815b80851115611a9e578160001904821115611a8457611a8461198a565b80851615611a9157918102915b93841c9390800290611a68565b509250929050565b600082611ab5575060016105d6565b81611ac2575060006105d6565b8160018114611ad85760028114611ae257611afe565b60019150506105d6565b60ff841115611af357611af361198a565b50506001821b6105d6565b5060208310610133831016604e8410600b8410161715611b21575081810a6105d6565b611b2b8383611a63565b8060001904821115611b3f57611b3f61198a565b029392505050565b600061061460ff841683611aa6565b6001600160a01b039390931683526020830191909152604082015260600190565b600060208284031215611b8957600080fd5b8151801515811461061457600080fd5b634e487b7160e01b600052602160045260246000fd5b600060ff831680611bc257611bc26119f4565b8060ff84160691505092915050565b60008251611be38184602087016117b6565b919091019291505056fea26469706673582212209c48a5359298c0dd24142d00c195eb9ad386c9f864aa5fb02b23e01b945eec1764736f6c63430008140033","linkReferences":{}},"methodIdentifiers":{"_initializeVault(address,address,uint256)":"363850ac","allowance(address,address)":"dd62ed3e","approve(address,uint256)":"095ea7b3","asset()":"38d52e0f","balanceOf(address)":"70a08231","burnShare(uint256)":"0ebc2d23","controller()":"f77c4791","convertToAssets(uint256)":"07a2d13a","convertToShares(uint256)":"c6e6f592","decimals()":"313ce567","deposit(uint256,address)":"6e553f65","depositAssets(uint256)":"71f0b5c5","fee()":"ddca3f43","fractionalReserve()":"aad58d27","getWithdrawable()":"1fa35ad4","isInitialized()":"392e53cd","maxDeposit(address)":"402d267d","maxMint(address)":"c63d75b6","maxRedeem(address)":"d905777e","maxWithdraw(address)":"ce96cb77","mint(uint256,address)":"94bf804d","mintShare(address,uint256)":"c2f04b0a","name()":"06fdde03","owner()":"8da5cb5b","previewDeposit(uint256)":"ef8b30f7","previewMint(uint256)":"b3d7f6b9","previewRedeem(uint256)":"4cdad506","previewWithdraw(uint256)":"0a28a477","redeem(uint256,address,address)":"ba087652","renounceOwnership()":"715018a6","symbol()":"95d89b41","totalAssets()":"01e1d114","totalSupply()":"18160ddd","transfer(address,uint256)":"a9059cbb","transferFrom(address,address,uint256)":"23b872dd","transferOwnership(address)":"f2fde38b","withdraw(uint256,address,address)":"b460af94","withdrawAssets(uint256)":"d1033c07"},"id":28}