{"abi":[{"type":"constructor","inputs":[{"name":"ercAsset","type":"address","internalType":"contract IERC20"},{"name":"lendAsset","type":"address","internalType":"contract IERC20"},{"name":"_avePool","type":"address","internalType":"address"},{"name":"name","type":"string","internalType":"string"},{"name":"symbol","type":"string","internalType":"string"}],"stateMutability":"nonpayable"},{"type":"function","name":"_initializeVault","inputs":[{"name":"sharesTo","type":"address","internalType":"address"},{"name":"depositFrom","type":"address","internalType":"address"},{"name":"assetsToDeposit","type":"uint256","internalType":"uint256"},{"name":"sharesToMint","type":"uint256","internalType":"uint256"}],"outputs":[{"name":"","type":"bool","internalType":"bool"}],"stateMutability":"nonpayable"},{"type":"function","name":"aaveAsset","inputs":[],"outputs":[{"name":"","type":"address","internalType":"contract IERC20"}],"stateMutability":"view"},{"type":"function","name":"aavePool","inputs":[],"outputs":[{"name":"","type":"address","internalType":"contract AAVEv3"}],"stateMutability":"view"},{"type":"function","name":"allowance","inputs":[{"name":"owner","type":"address","internalType":"address"},{"name":"spender","type":"address","internalType":"address"}],"outputs":[{"name":"","type":"uint256","internalType":"uint256"}],"stateMutability":"view"},{"type":"function","name":"approve","inputs":[{"name":"spender","type":"address","internalType":"address"},{"name":"value","type":"uint256","internalType":"uint256"}],"outputs":[{"name":"","type":"bool","internalType":"bool"}],"stateMutability":"nonpayable"},{"type":"function","name":"asset","inputs":[],"outputs":[{"name":"","type":"address","internalType":"address"}],"stateMutability":"view"},{"type":"function","name":"balanceOf","inputs":[{"name":"account","type":"address","internalType":"address"}],"outputs":[{"name":"","type":"uint256","internalType":"uint256"}],"stateMutability":"view"},{"type":"function","name":"burnShare","inputs":[{"name":"shares","type":"uint256","internalType":"uint256"}],"outputs":[{"name":"","type":"bool","internalType":"bool"}],"stateMutability":"nonpayable"},{"type":"function","name":"controller","inputs":[],"outputs":[{"name":"","type":"address","internalType":"address"}],"stateMutability":"view"},{"type":"function","name":"convertToAssets","inputs":[{"name":"shares","type":"uint256","internalType":"uint256"}],"outputs":[{"name":"","type":"uint256","internalType":"uint256"}],"stateMutability":"view"},{"type":"function","name":"convertToShares","inputs":[{"name":"assets","type":"uint256","internalType":"uint256"}],"outputs":[{"name":"","type":"uint256","internalType":"uint256"}],"stateMutability":"view"},{"type":"function","name":"decimals","inputs":[],"outputs":[{"name":"","type":"uint8","internalType":"uint8"}],"stateMutability":"view"},{"type":"function","name":"deposit","inputs":[{"name":"assets","type":"uint256","internalType":"uint256"},{"name":"receiver","type":"address","internalType":"address"}],"outputs":[{"name":"","type":"uint256","internalType":"uint256"}],"stateMutability":"nonpayable"},{"type":"function","name":"execute","inputs":[{"name":"target","type":"address","internalType":"address"},{"name":"data","type":"bytes","internalType":"bytes"}],"outputs":[{"name":"","type":"bool","internalType":"bool"},{"name":"","type":"bytes","internalType":"bytes"}],"stateMutability":"payable"},{"type":"function","name":"fee","inputs":[],"outputs":[{"name":"","type":"uint256","internalType":"uint256"}],"stateMutability":"view"},{"type":"function","name":"isInitialized","inputs":[],"outputs":[{"name":"state","type":"bool","internalType":"bool"}],"stateMutability":"view"},{"type":"function","name":"maxDeposit","inputs":[{"name":"","type":"address","internalType":"address"}],"outputs":[{"name":"","type":"uint256","internalType":"uint256"}],"stateMutability":"view"},{"type":"function","name":"maxMint","inputs":[{"name":"","type":"address","internalType":"address"}],"outputs":[{"name":"","type":"uint256","internalType":"uint256"}],"stateMutability":"view"},{"type":"function","name":"maxRedeem","inputs":[{"name":"owner","type":"address","internalType":"address"}],"outputs":[{"name":"","type":"uint256","internalType":"uint256"}],"stateMutability":"view"},{"type":"function","name":"maxWithdraw","inputs":[{"name":"owner","type":"address","internalType":"address"}],"outputs":[{"name":"","type":"uint256","internalType":"uint256"}],"stateMutability":"view"},{"type":"function","name":"mint","inputs":[{"name":"shares","type":"uint256","internalType":"uint256"},{"name":"receiver","type":"address","internalType":"address"}],"outputs":[{"name":"","type":"uint256","internalType":"uint256"}],"stateMutability":"nonpayable"},{"type":"function","name":"name","inputs":[],"outputs":[{"name":"","type":"string","internalType":"string"}],"stateMutability":"view"},{"type":"function","name":"owner","inputs":[],"outputs":[{"name":"","type":"address","internalType":"address"}],"stateMutability":"view"},{"type":"function","name":"previewDeposit","inputs":[{"name":"assets","type":"uint256","internalType":"uint256"}],"outputs":[{"name":"","type":"uint256","internalType":"uint256"}],"stateMutability":"view"},{"type":"function","name":"previewMint","inputs":[{"name":"shares","type":"uint256","internalType":"uint256"}],"outputs":[{"name":"","type":"uint256","internalType":"uint256"}],"stateMutability":"view"},{"type":"function","name":"previewRedeem","inputs":[{"name":"shares","type":"uint256","internalType":"uint256"}],"outputs":[{"name":"","type":"uint256","internalType":"uint256"}],"stateMutability":"view"},{"type":"function","name":"previewWithdraw","inputs":[{"name":"assets","type":"uint256","internalType":"uint256"}],"outputs":[{"name":"","type":"uint256","internalType":"uint256"}],"stateMutability":"view"},{"type":"function","name":"redeem","inputs":[{"name":"shares","type":"uint256","internalType":"uint256"},{"name":"receiver","type":"address","internalType":"address"},{"name":"owner","type":"address","internalType":"address"}],"outputs":[{"name":"","type":"uint256","internalType":"uint256"}],"stateMutability":"nonpayable"},{"type":"function","name":"renounceOwnership","inputs":[],"outputs":[],"stateMutability":"nonpayable"},{"type":"function","name":"setFeeReciever","inputs":[{"name":"to","type":"address","internalType":"address"}],"outputs":[],"stateMutability":"nonpayable"},{"type":"function","name":"setManager","inputs":[{"name":"to","type":"address","internalType":"address"}],"outputs":[],"stateMutability":"nonpayable"},{"type":"function","name":"symbol","inputs":[],"outputs":[{"name":"","type":"string","internalType":"string"}],"stateMutability":"view"},{"type":"function","name":"totalAssets","inputs":[],"outputs":[{"name":"","type":"uint256","internalType":"uint256"}],"stateMutability":"view"},{"type":"function","name":"totalSupply","inputs":[],"outputs":[{"name":"","type":"uint256","internalType":"uint256"}],"stateMutability":"view"},{"type":"function","name":"transfer","inputs":[{"name":"to","type":"address","internalType":"address"},{"name":"value","type":"uint256","internalType":"uint256"}],"outputs":[{"name":"","type":"bool","internalType":"bool"}],"stateMutability":"nonpayable"},{"type":"function","name":"transferFrom","inputs":[{"name":"from","type":"address","internalType":"address"},{"name":"to","type":"address","internalType":"address"},{"name":"value","type":"uint256","internalType":"uint256"}],"outputs":[{"name":"","type":"bool","internalType":"bool"}],"stateMutability":"nonpayable"},{"type":"function","name":"transferOwnership","inputs":[{"name":"newOwner","type":"address","internalType":"address"}],"outputs":[],"stateMutability":"nonpayable"},{"type":"function","name":"withdraw","inputs":[{"name":"assets","type":"uint256","internalType":"uint256"},{"name":"receiver","type":"address","internalType":"address"},{"name":"owner","type":"address","internalType":"address"}],"outputs":[{"name":"","type":"uint256","internalType":"uint256"}],"stateMutability":"nonpayable"},{"type":"event","name":"Approval","inputs":[{"name":"owner","type":"address","indexed":true,"internalType":"address"},{"name":"spender","type":"address","indexed":true,"internalType":"address"},{"name":"value","type":"uint256","indexed":false,"internalType":"uint256"}],"anonymous":false},{"type":"event","name":"Deposit","inputs":[{"name":"sender","type":"address","indexed":true,"internalType":"address"},{"name":"owner","type":"address","indexed":true,"internalType":"address"},{"name":"assets","type":"uint256","indexed":false,"internalType":"uint256"},{"name":"shares","type":"uint256","indexed":false,"internalType":"uint256"}],"anonymous":false},{"type":"event","name":"OwnershipTransferred","inputs":[{"name":"previousOwner","type":"address","indexed":true,"internalType":"address"},{"name":"newOwner","type":"address","indexed":true,"internalType":"address"}],"anonymous":false},{"type":"event","name":"Transfer","inputs":[{"name":"from","type":"address","indexed":true,"internalType":"address"},{"name":"to","type":"address","indexed":true,"internalType":"address"},{"name":"value","type":"uint256","indexed":false,"internalType":"uint256"}],"anonymous":false},{"type":"event","name":"Withdraw","inputs":[{"name":"sender","type":"address","indexed":true,"internalType":"address"},{"name":"receiver","type":"address","indexed":true,"internalType":"address"},{"name":"owner","type":"address","indexed":true,"internalType":"address"},{"name":"assets","type":"uint256","indexed":false,"internalType":"uint256"},{"name":"shares","type":"uint256","indexed":false,"internalType":"uint256"}],"anonymous":false},{"type":"error","name":"AddressEmptyCode","inputs":[{"name":"target","type":"address","internalType":"address"}]},{"type":"error","name":"AddressInsufficientBalance","inputs":[{"name":"account","type":"address","internalType":"address"}]},{"type":"error","name":"ERC20InsufficientAllowance","inputs":[{"name":"spender","type":"address","internalType":"address"},{"name":"allowance","type":"uint256","internalType":"uint256"},{"name":"needed","type":"uint256","internalType":"uint256"}]},{"type":"error","name":"ERC20InsufficientBalance","inputs":[{"name":"sender","type":"address","internalType":"address"},{"name":"balance","type":"uint256","internalType":"uint256"},{"name":"needed","type":"uint256","internalType":"uint256"}]},{"type":"error","name":"ERC20InvalidApprover","inputs":[{"name":"approver","type":"address","internalType":"address"}]},{"type":"error","name":"ERC20InvalidReceiver","inputs":[{"name":"receiver","type":"address","internalType":"address"}]},{"type":"error","name":"ERC20InvalidSender","inputs":[{"name":"sender","type":"address","internalType":"address"}]},{"type":"error","name":"ERC20InvalidSpender","inputs":[{"name":"spender","type":"address","internalType":"address"}]},{"type":"error","name":"ERC4626ExceededMaxDeposit","inputs":[{"name":"receiver","type":"address","internalType":"address"},{"name":"assets","type":"uint256","internalType":"uint256"},{"name":"max","type":"uint256","internalType":"uint256"}]},{"type":"error","name":"ERC4626ExceededMaxMint","inputs":[{"name":"receiver","type":"address","internalType":"address"},{"name":"shares","type":"uint256","internalType":"uint256"},{"name":"max","type":"uint256","internalType":"uint256"}]},{"type":"error","name":"ERC4626ExceededMaxRedeem","inputs":[{"name":"owner","type":"address","internalType":"address"},{"name":"shares","type":"uint256","internalType":"uint256"},{"name":"max","type":"uint256","internalType":"uint256"}]},{"type":"error","name":"ERC4626ExceededMaxWithdraw","inputs":[{"name":"owner","type":"address","internalType":"address"},{"name":"assets","type":"uint256","internalType":"uint256"},{"name":"max","type":"uint256","internalType":"uint256"}]},{"type":"error","name":"FailedInnerCall","inputs":[]},{"type":"error","name":"MathOverflowedMulDiv","inputs":[]},{"type":"error","name":"OwnableInvalidOwner","inputs":[{"name":"owner","type":"address","internalType":"address"}]},{"type":"error","name":"OwnableUnauthorizedAccount","inputs":[{"name":"account","type":"address","internalType":"address"}]},{"type":"error","name":"SafeERC20FailedOperation","inputs":[{"name":"token","type":"address","internalType":"address"}]}],"bytecode":{"object":"0x60e0604052603260075534801562000015575f80fd5b50604051620026183803806200261883398101604081905262000038916200036b565b3385858583868660036200004d83826200049c565b5060046200005c82826200049c565b5050505f8062000072866200015d60201b60201c565b91509150816200008457601262000086565b805b60ff1660a0526001600160a01b03868116608052600580546001600160a01b031990811687841617909155600680549091169187169190911790555f80620000ce876200015d565b9150915081620000e0576012620000e2565b805b60ff1660c0525050600880546001600160a01b0319166001600160a01b039485161790555050841692506200013391505057604051631e4fbdf760e01b81525f600482015260240160405180910390fd5b6200013e816200023c565b5050600a80546001600160a01b03191633179055506200059992505050565b60408051600481526024810182526020810180516001600160e01b031663313ce56760e01b17905290515f918291829182916001600160a01b03871691620001a59162000564565b5f60405180830381855afa9150503d805f8114620001df576040519150601f19603f3d011682016040523d82523d5f602084013e620001e4565b606091505b5091509150818015620001f957506020815110155b1562000230575f8180602001905181019062000216919062000581565b905060ff81116200022e576001969095509350505050565b505b505f9485945092505050565b600980546001600160a01b038381166001600160a01b0319831681179093556040519116919082907f8be0079c531659141344cd1fd0a4f28419497f9722a3daafe3b4186f6b6457e0905f90a35050565b6001600160a01b0381168114620002a2575f80fd5b50565b634e487b7160e01b5f52604160045260245ffd5b5f5b83811015620002d5578181015183820152602001620002bb565b50505f910152565b5f82601f830112620002ed575f80fd5b81516001600160401b03808211156200030a576200030a620002a5565b604051601f8301601f19908116603f01168101908282118183101715620003355762000335620002a5565b816040528381528660208588010111156200034e575f80fd5b62000361846020830160208901620002b9565b9695505050505050565b5f805f805f60a0868803121562000380575f80fd5b85516200038d816200028d565b6020870151909550620003a0816200028d565b6040870151909450620003b3816200028d565b60608701519093506001600160401b0380821115620003d0575f80fd5b620003de89838a01620002dd565b93506080880151915080821115620003f4575f80fd5b506200040388828901620002dd565b9150509295509295909350565b600181811c908216806200042557607f821691505b6020821081036200044457634e487b7160e01b5f52602260045260245ffd5b50919050565b601f82111562000497575f81815260208120601f850160051c81016020861015620004725750805b601f850160051c820191505b8181101562000493578281556001016200047e565b5050505b505050565b81516001600160401b03811115620004b857620004b8620002a5565b620004d081620004c9845462000410565b846200044a565b602080601f83116001811462000506575f8415620004ee5750858301515b5f19600386901b1c1916600185901b17855562000493565b5f85815260208120601f198616915b82811015620005365788860151825594840194600190910190840162000515565b50858210156200055457878501515f19600388901b60f8161c191681555b5050505050600190811b01905550565b5f825162000577818460208701620002b9565b9190910192915050565b5f6020828403121562000592575f80fd5b5051919050565b60805160a05160c051612034620005e45f395f61099101525f50505f818161037d01528181611469015281816114b901528181611540015281816116f5015261179101526120345ff3fe60806040526004361061021d575f3560e01c806394bf804d1161011e578063ce96cb77116100a8578063dd62ed3e1161006d578063dd62ed3e1461063f578063ddca3f4314610683578063ef8b30f714610698578063f2fde38b146106b7578063f77c4791146106d6575f80fd5b8063ce96cb77146105a4578063d0ebdbe7146105c3578063d1503cb4146105e2578063d436d0ef14610601578063d905777e14610620575f80fd5b8063b3d7f6b9116100ee578063b3d7f6b914610528578063b460af9414610547578063ba08765214610566578063c63d75b6146103d3578063c6e6f59214610585575f80fd5b806394bf804d146104b757806395d89b41146104d6578063a03e4bc3146104ea578063a9059cbb14610509575f80fd5b8063313ce567116101aa5780634f9ebe521161016f5780634f9ebe52146104125780636e553f651461043157806370a0823114610450578063715018a6146104845780638da5cb5b1461049a575f80fd5b8063313ce5671461034957806338d52e0f1461036f578063392e53cd146103b5578063402d267d146103d35780634cdad506146103f3575f80fd5b80630a28a477116101f05780630a28a477146102b75780630ebc2d23146102d657806318160ddd146102f55780631cff79cd1461030957806323b872dd1461032a575f80fd5b806301e1d1141461022157806306fdde031461024857806307a2d13a14610269578063095ea7b314610288575b5f80fd5b34801561022c575f80fd5b506102356106f5565b6040519081526020015b60405180910390f35b348015610253575f80fd5b5061025c610764565b60405161023f9190611b43565b348015610274575f80fd5b50610235610283366004611b55565b6107f4565b348015610293575f80fd5b506102a76102a2366004611b82565b61081c565b604051901515815260200161023f565b3480156102c2575f80fd5b506102356102d1366004611b55565b610835565b3480156102e1575f80fd5b506102a76102f0366004611b55565b610856565b348015610300575f80fd5b50600254610235565b61031c610317366004611baa565b6108b7565b60405161023f929190611c26565b348015610335575f80fd5b506102a7610344366004611c40565b610966565b348015610354575f80fd5b5061035d610989565b60405160ff909116815260200161023f565b34801561037a575f80fd5b507f00000000000000000000000000000000000000000000000000000000000000005b6040516001600160a01b03909116815260200161023f565b3480156103c0575f80fd5b50600a54600160a01b900460ff166102a7565b3480156103de575f80fd5b506102356103ed366004611c79565b505f1990565b3480156103fe575f80fd5b5061023561040d366004611b55565b6109b5565b34801561041d575f80fd5b506102a761042c366004611c92565b6109d6565b34801561043c575f80fd5b5061023561044b366004611cd1565b610b31565b34801561045b575f80fd5b5061023561046a366004611c79565b6001600160a01b03165f9081526020819052604090205490565b34801561048f575f80fd5b50610498610b6f565b005b3480156104a5575f80fd5b506009546001600160a01b031661039d565b3480156104c2575f80fd5b506102356104d1366004611cd1565b610b82565b3480156104e1575f80fd5b5061025c610bb8565b3480156104f5575f80fd5b5060055461039d906001600160a01b031681565b348015610514575f80fd5b506102a7610523366004611b82565b610bc7565b348015610533575f80fd5b50610235610542366004611b55565b610bd4565b348015610552575f80fd5b50610235610561366004611cfb565b610be1565b348015610571575f80fd5b50610235610580366004611cfb565b610c21565b348015610590575f80fd5b5061023561059f366004611b55565b610c58565b3480156105af575f80fd5b506102356105be366004611c79565b610c75565b3480156105ce575f80fd5b506104986105dd366004611c79565b610c97565b3480156105ed575f80fd5b5060065461039d906001600160a01b031681565b34801561060c575f80fd5b5061049861061b366004611c79565b610cc1565b34801561062b575f80fd5b5061023561063a366004611c79565b610cf8565b34801561064a575f80fd5b50610235610659366004611d34565b6001600160a01b039182165f90815260016020908152604080832093909416825291909152205490565b34801561068e575f80fd5b5061023560075481565b3480156106a3575f80fd5b506102356106b2366004611b55565b610d15565b3480156106c2575f80fd5b506104986106d1366004611c79565b610d2f565b3480156106e1575f80fd5b50600a5461039d906001600160a01b031681565b6006546040516370a0823160e01b81523060048201525f916001600160a01b0316906370a0823190602401602060405180830381865afa15801561073b573d5f803e3d5ffd5b505050506040513d601f19601f8201168201806040525081019061075f9190611d5c565b905090565b60606003805461077390611d73565b80601f016020809104026020016040519081016040528092919081815260200182805461079f90611d73565b80156107ea5780601f106107c1576101008083540402835291602001916107ea565b820191905f5260205f20905b8154815290600101906020018083116107cd57829003601f168201915b5050505050905090565b5f80610800835f610d69565b905061080b81610da2565b6108159082611dbf565b9392505050565b5f33610829818585610dba565b60019150505b92915050565b5f8061084083610da2565b905061081561084f8285611dbf565b6001610dcc565b600a545f90600160a01b900460ff1661088a5760405162461bcd60e51b815260040161088190611dd2565b60405180910390fd5b335f908152602081905260409020548211156108a4575f80fd5b6108ae3383610dfc565b5060015b919050565b600a545f906060906001600160a01b031633146108d2575f80fd5b600a54600160a01b900460ff166108fb5760405162461bcd60e51b815260040161088190611dd2565b5f80866001600160a01b0316348787604051610918929190611dfc565b5f6040518083038185875af1925050503d805f8114610952576040519150601f19603f3d011682016040523d82523d5f602084013e610957565b606091505b50909890975095505050505050565b5f33610973858285610e34565b61097e858585610e9c565b506001949350505050565b5f61075f600c7f0000000000000000000000000000000000000000000000000000000000000000611e0b565b5f806109c1835f610d69565b90506109cc81610da2565b6108159082611e24565b600a545f906001600160a01b031633146109ee575f80fd5b6006546040516370a0823160e01b81526001600160a01b038681166004830152859216906370a0823190602401602060405180830381865afa158015610a36573d5f803e3d5ffd5b505050506040513d601f19601f82011682018060405250810190610a5a9190611d5c565b1015610a64575f80fd5b6006546040516323b872dd60e01b81526001600160a01b03868116600483015230602483015260448201869052909116906323b872dd906064016020604051808303815f875af1158015610aba573d5f803e3d5ffd5b505050506040513d601f19601f82011682018060405250810190610ade9190611e37565b50600a805460ff60a01b1916600160a01b179055610b1b85610afe610989565b610b0c9060ff16600a611f36565b610b169085611f41565b610ef9565b5050600a54600160a01b900460ff169392505050565b600a545f90600160a01b900460ff16610b5c5760405162461bcd60e51b815260040161088190611dd2565b5f610b678484610f2d565b949350505050565b610b77610fad565b610b805f610fda565b565b600a545f90600160a01b900460ff16610bad5760405162461bcd60e51b815260040161088190611dd2565b5f610b67848461102b565b60606004805461077390611d73565b5f33610829818585610e9c565b5f80610800836001610d69565b600a545f90600160a01b900460ff16610c0c5760405162461bcd60e51b815260040161088190611dd2565b5f610c188585856110bc565b95945050505050565b600a545f90600160a01b900460ff16610c4c5760405162461bcd60e51b815260040161088190611dd2565b5f610c18858585611170565b5f61082f610c6583610da2565b610c6f9084611e24565b5f610dcc565b6001600160a01b0381165f9081526020819052604081205461082f905f610d69565b610c9f610fad565b600a80546001600160a01b0319166001600160a01b0392909216919091179055565b600a546001600160a01b03163314610cd7575f80fd5b600880546001600160a01b0319166001600160a01b03831617905550565b50565b6001600160a01b0381165f9081526020819052604081205461082f565b5f80610d2083610da2565b9050610815610c6f8285611e24565b610d37610fad565b6001600160a01b038116610d6057604051631e4fbdf760e01b81525f6004820152602401610881565b610cf581610fda565b5f610815610d756106f5565b610d80906001611dbf565b610d8c600c600a611f58565b600254610d999190611dbf565b85919085611232565b5f61082f610daf60075490565b83906127105f611232565b610dc7838383600161127f565b505050565b5f610815610ddc600c600a611f58565b600254610de99190611dbf565b610df16106f5565b610d99906001611dbf565b6001600160a01b038216610e2557604051634b637e8f60e11b81525f6004820152602401610881565b610e30825f83611351565b5050565b6001600160a01b038381165f908152600160209081526040808320938616835292905220545f198114610e965781811015610e8857828183604051637dc7a0d960e11b815260040161088193929190611f66565b610e9684848484035f61127f565b50505050565b6001600160a01b038316610ec557604051634b637e8f60e11b81525f6004820152602401610881565b6001600160a01b038216610eee5760405163ec442f0560e01b81525f6004820152602401610881565b610dc7838383611351565b6001600160a01b038216610f225760405163ec442f0560e01b81525f6004820152602401610881565b610e305f8383611351565b5f5f195f610f3a85610d15565b9050610f4833858784611464565b5f6002610f5487610da2565b610f5e9190611f9b565b90505f81118015610f7957506008546001600160a01b031615155b15610fa4575f610f89825f610dcc565b600854909150610fa2906001600160a01b031682610ef9565b505b50949350505050565b6009546001600160a01b03163314610b805760405163118cdaa760e01b8152336004820152602401610881565b600980546001600160a01b038381166001600160a01b0319831681179093556040519116919082907f8be0079c531659141344cd1fd0a4f28419497f9722a3daafe3b4186f6b6457e0905f90a35050565b5f5f195f61103885610bd4565b905061104633858388611464565b5f611052866001610d69565b90505f600261106083610da2565b61106a9190611f9b565b90505f8111801561108557506008546001600160a01b031615155b156110b1575f611096826001610dcc565b6008549091506110af906001600160a01b031682610ef9565b505b509095945050505050565b5f806110c783610c75565b9050808511156110f057828582604051633fa733bb60e21b815260040161088193929190611f66565b5f6110fa86610835565b9050611109338686898561160b565b5f600261111588610da2565b61111f9190611f9b565b90505f8111801561113a57506008546001600160a01b031615155b15611166575f61114b826001610dcc565b600854909150611164906001600160a01b031682610ef9565b505b5095945050505050565b5f8061117b83610cf8565b9050808511156111a457828582604051632e52afbb60e21b815260040161088193929190611f66565b5f6111ae866109b5565b90506111bd338686848a61160b565b5f6111c8875f610d69565b90505f60026111d683610da2565b6111e09190611f9b565b90505f811180156111fb57506008546001600160a01b031615155b15611226575f61120b825f610dcc565b600854909150611224906001600160a01b031682610ef9565b505b50909695505050505050565b5f8061123f86868661181f565b905061124a836118de565b801561126557505f848061126057611260611f87565b868809115b15610c1857611275600182611dbf565b9695505050505050565b6001600160a01b0384166112a85760405163e602df0560e01b81525f6004820152602401610881565b6001600160a01b0383166112d157604051634a1406b160e11b81525f6004820152602401610881565b6001600160a01b038085165f9081526001602090815260408083209387168352929052208290558015610e9657826001600160a01b0316846001600160a01b03167f8c5be1e5ebec7d5bd14f71427d1e84f3dd0314c0f7b2291e5b200ac8c7c3b9258460405161134391815260200190565b60405180910390a350505050565b6001600160a01b03831661137b578060025f8282546113709190611dbf565b909155506113d89050565b6001600160a01b0383165f90815260208190526040902054818110156113ba5783818360405163391434e360e21b815260040161088193929190611f66565b6001600160a01b0384165f9081526020819052604090209082900390555b6001600160a01b0382166113f457600280548290039055611412565b6001600160a01b0382165f9081526020819052604090208054820190555b816001600160a01b0316836001600160a01b03167fddf252ad1be2c89b69c2b068fc378daa952ba7f163c4a11628f55a4df523b3ef8360405161145791815260200190565b60405180910390a3505050565b6114907f000000000000000000000000000000000000000000000000000000000000000085308561190a565b60055460405163095ea7b360e01b81526001600160a01b039182166004820152602481018490527f00000000000000000000000000000000000000000000000000000000000000009091169063095ea7b3906044016020604051808303815f875af1158015611501573d5f803e3d5ffd5b505050506040513d601f19601f820116820180604052508101906115259190611e37565b5060055460405163617ba03760e01b81526001600160a01b037f000000000000000000000000000000000000000000000000000000000000000081166004830152602482018590523060448301525f60648301529091169063617ba037906084015f604051808303815f87803b15801561159d575f80fd5b505af11580156115af573d5f803e3d5ffd5b505050506115bd8382610ef9565b826001600160a01b0316846001600160a01b03167fdcbc1c05240f31ff3ad067ef1ee35ce4997762752e3a095284754544f4c709d78484604051611343929190918252602082015260400190565b826001600160a01b0316856001600160a01b03161461162f5761162f838683610e34565b6006546040516370a0823160e01b815230600482015283916001600160a01b0316906370a0823190602401602060405180830381865afa158015611675573d5f803e3d5ffd5b505050506040513d601f19601f820116820180604052508101906116999190611d5c565b10156116db5760405162461bcd60e51b8152602060048201526011602482015270756e61626c6520746f2070726f6365737360781b6044820152606401610881565b600554604051631a4ca37b60e21b81526001600160a01b037f000000000000000000000000000000000000000000000000000000000000000081166004830152602482018590523060448301525f9216906369328dec906064016020604051808303815f875af1158015611751573d5f803e3d5ffd5b505050506040513d601f19601f820116820180604052508101906117759190611d5c565b90505f8111611782575f80fd5b61178c8483610dfc565b6117b77f00000000000000000000000000000000000000000000000000000000000000008685611971565b836001600160a01b0316856001600160a01b0316876001600160a01b03167ffbde797d201c681b91056529119e0b02407c7bb96a4a2c75c01fc9667232c8db868660405161180f929190918252602082015260400190565b60405180910390a4505050505050565b5f838302815f1985870982811083820303915050805f036118535783828161184957611849611f87565b0492505050610815565b8084116118735760405163227bc15360e01b815260040160405180910390fd5b5f848688095f868103871696879004966002600389028118808a02820302808a02820302808a02820302808a02820302808a02820302808a02909103029181900381900460010186841190950394909402919094039290920491909117919091029150509392505050565b5f60028260038111156118f3576118f3611fae565b6118fd9190611fc2565b60ff166001149050919050565b6040516001600160a01b038481166024830152838116604483015260648201839052610e969186918216906323b872dd906084015b604051602081830303815290604052915060e01b6020820180516001600160e01b0383818316178352505050506119a2565b6040516001600160a01b03838116602483015260448201839052610dc791859182169063a9059cbb9060640161193f565b5f6119b66001600160a01b03841683611a03565b905080515f141580156119da5750808060200190518101906119d89190611e37565b155b15610dc757604051635274afe760e01b81526001600160a01b0384166004820152602401610881565b606061081583835f845f80856001600160a01b03168486604051611a279190611fe3565b5f6040518083038185875af1925050503d805f8114611a61576040519150601f19603f3d011682016040523d82523d5f602084013e611a66565b606091505b5091509150611275868383606082611a8657611a8182611acd565b610815565b8151158015611a9d57506001600160a01b0384163b155b15611ac657604051639996b31560e01b81526001600160a01b0385166004820152602401610881565b5080610815565b805115611add5780518082602001fd5b604051630a12f52160e11b815260040160405180910390fd5b5f5b83811015611b10578181015183820152602001611af8565b50505f910152565b5f8151808452611b2f816020860160208601611af6565b601f01601f19169290920160200192915050565b602081525f6108156020830184611b18565b5f60208284031215611b65575f80fd5b5035919050565b80356001600160a01b03811681146108b2575f80fd5b5f8060408385031215611b93575f80fd5b611b9c83611b6c565b946020939093013593505050565b5f805f60408486031215611bbc575f80fd5b611bc584611b6c565b9250602084013567ffffffffffffffff80821115611be1575f80fd5b818601915086601f830112611bf4575f80fd5b813581811115611c02575f80fd5b876020828501011115611c13575f80fd5b6020830194508093505050509250925092565b8215158152604060208201525f610b676040830184611b18565b5f805f60608486031215611c52575f80fd5b611c5b84611b6c565b9250611c6960208501611b6c565b9150604084013590509250925092565b5f60208284031215611c89575f80fd5b61081582611b6c565b5f805f8060808587031215611ca5575f80fd5b611cae85611b6c565b9350611cbc60208601611b6c565b93969395505050506040820135916060013590565b5f8060408385031215611ce2575f80fd5b82359150611cf260208401611b6c565b90509250929050565b5f805f60608486031215611d0d575f80fd5b83359250611d1d60208501611b6c565b9150611d2b60408501611b6c565b90509250925092565b5f8060408385031215611d45575f80fd5b611d4e83611b6c565b9150611cf260208401611b6c565b5f60208284031215611d6c575f80fd5b5051919050565b600181811c90821680611d8757607f821691505b602082108103611da557634e487b7160e01b5f52602260045260245ffd5b50919050565b634e487b7160e01b5f52601160045260245ffd5b8082018082111561082f5761082f611dab565b60208082526010908201526f7661756c74206e6f742061637469766560801b604082015260600190565b818382375f9101908152919050565b60ff818116838216019081111561082f5761082f611dab565b8181038181111561082f5761082f611dab565b5f60208284031215611e47575f80fd5b81518015158114610815575f80fd5b600181815b80851115611e9057815f1904821115611e7657611e76611dab565b80851615611e8357918102915b93841c9390800290611e5b565b509250929050565b5f82611ea65750600161082f565b81611eb257505f61082f565b8160018114611ec85760028114611ed257611eee565b600191505061082f565b60ff841115611ee357611ee3611dab565b50506001821b61082f565b5060208310610133831016604e8410600b8410161715611f11575081810a61082f565b611f1b8383611e56565b805f1904821115611f2e57611f2e611dab565b029392505050565b5f6108158383611e98565b808202811582820484141761082f5761082f611dab565b5f61081560ff841683611e98565b6001600160a01b039390931683526020830191909152604082015260600190565b634e487b7160e01b5f52601260045260245ffd5b5f82611fa957611fa9611f87565b500490565b634e487b7160e01b5f52602160045260245ffd5b5f60ff831680611fd457611fd4611f87565b8060ff84160691505092915050565b5f8251611ff4818460208701611af6565b919091019291505056fea2646970667358221220c237523f3c64dc4f9d34ee68bb265461fefd935837470c82af716170a2d6525264736f6c63430008140033","linkReferences":{}},"methodIdentifiers":{"_initializeVault(address,address,uint256,uint256)":"4f9ebe52","aaveAsset()":"d1503cb4","aavePool()":"a03e4bc3","allowance(address,address)":"dd62ed3e","approve(address,uint256)":"095ea7b3","asset()":"38d52e0f","balanceOf(address)":"70a08231","burnShare(uint256)":"0ebc2d23","controller()":"f77c4791","convertToAssets(uint256)":"07a2d13a","convertToShares(uint256)":"c6e6f592","decimals()":"313ce567","deposit(uint256,address)":"6e553f65","execute(address,bytes)":"1cff79cd","fee()":"ddca3f43","isInitialized()":"392e53cd","maxDeposit(address)":"402d267d","maxMint(address)":"c63d75b6","maxRedeem(address)":"d905777e","maxWithdraw(address)":"ce96cb77","mint(uint256,address)":"94bf804d","name()":"06fdde03","owner()":"8da5cb5b","previewDeposit(uint256)":"ef8b30f7","previewMint(uint256)":"b3d7f6b9","previewRedeem(uint256)":"4cdad506","previewWithdraw(uint256)":"0a28a477","redeem(uint256,address,address)":"ba087652","renounceOwnership()":"715018a6","setFeeReciever(address)":"d436d0ef","setManager(address)":"d0ebdbe7","symbol()":"95d89b41","totalAssets()":"01e1d114","totalSupply()":"18160ddd","transfer(address,uint256)":"a9059cbb","transferFrom(address,address,uint256)":"23b872dd","transferOwnership(address)":"f2fde38b","withdraw(uint256,address,address)":"b460af94"},"id":47}