{"abi":[{"type":"constructor","inputs":[{"name":"ercAsset","type":"address","internalType":"contract IERC20"},{"name":"name","type":"string","internalType":"string"},{"name":"symbol","type":"string","internalType":"string"},{"name":"owner","type":"address","internalType":"address"},{"name":"_router","type":"address","internalType":"address"}],"stateMutability":"nonpayable"},{"type":"function","name":"_initializeVault","inputs":[{"name":"sharesTo","type":"address","internalType":"address"},{"name":"depositFrom","type":"address","internalType":"address"},{"name":"sharesToMint","type":"uint256","internalType":"uint256"},{"name":"assetsToDeposit","type":"uint256","internalType":"uint256"}],"outputs":[{"name":"","type":"bool","internalType":"bool"}],"stateMutability":"nonpayable"},{"type":"function","name":"allowance","inputs":[{"name":"owner","type":"address","internalType":"address"},{"name":"spender","type":"address","internalType":"address"}],"outputs":[{"name":"","type":"uint256","internalType":"uint256"}],"stateMutability":"view"},{"type":"function","name":"approve","inputs":[{"name":"spender","type":"address","internalType":"address"},{"name":"value","type":"uint256","internalType":"uint256"}],"outputs":[{"name":"","type":"bool","internalType":"bool"}],"stateMutability":"nonpayable"},{"type":"function","name":"asset","inputs":[],"outputs":[{"name":"","type":"address","internalType":"address"}],"stateMutability":"view"},{"type":"function","name":"balanceOf","inputs":[{"name":"account","type":"address","internalType":"address"}],"outputs":[{"name":"","type":"uint256","internalType":"uint256"}],"stateMutability":"view"},{"type":"function","name":"burnShare","inputs":[{"name":"shares","type":"uint256","internalType":"uint256"}],"outputs":[{"name":"","type":"bool","internalType":"bool"}],"stateMutability":"nonpayable"},{"type":"function","name":"controller","inputs":[],"outputs":[{"name":"","type":"address","internalType":"address"}],"stateMutability":"view"},{"type":"function","name":"convertToAssets","inputs":[{"name":"shares","type":"uint256","internalType":"uint256"}],"outputs":[{"name":"","type":"uint256","internalType":"uint256"}],"stateMutability":"view"},{"type":"function","name":"convertToShares","inputs":[{"name":"assets","type":"uint256","internalType":"uint256"}],"outputs":[{"name":"","type":"uint256","internalType":"uint256"}],"stateMutability":"view"},{"type":"function","name":"decimals","inputs":[],"outputs":[{"name":"","type":"uint8","internalType":"uint8"}],"stateMutability":"view"},{"type":"function","name":"deposit","inputs":[{"name":"assets","type":"uint256","internalType":"uint256"},{"name":"receiver","type":"address","internalType":"address"}],"outputs":[{"name":"","type":"uint256","internalType":"uint256"}],"stateMutability":"nonpayable"},{"type":"function","name":"depositAssets","inputs":[{"name":"amount","type":"uint256","internalType":"uint256"}],"outputs":[{"name":"","type":"bool","internalType":"bool"}],"stateMutability":"nonpayable"},{"type":"function","name":"fee","inputs":[],"outputs":[{"name":"","type":"uint256","internalType":"uint256"}],"stateMutability":"view"},{"type":"function","name":"fractionalReserve","inputs":[],"outputs":[{"name":"","type":"uint256","internalType":"uint256"}],"stateMutability":"view"},{"type":"function","name":"getWithdrawable","inputs":[],"outputs":[{"name":"","type":"uint256","internalType":"uint256"}],"stateMutability":"view"},{"type":"function","name":"isInitialized","inputs":[],"outputs":[{"name":"state","type":"bool","internalType":"bool"}],"stateMutability":"view"},{"type":"function","name":"maxDeposit","inputs":[{"name":"","type":"address","internalType":"address"}],"outputs":[{"name":"","type":"uint256","internalType":"uint256"}],"stateMutability":"view"},{"type":"function","name":"maxMint","inputs":[{"name":"","type":"address","internalType":"address"}],"outputs":[{"name":"","type":"uint256","internalType":"uint256"}],"stateMutability":"view"},{"type":"function","name":"maxRedeem","inputs":[{"name":"owner","type":"address","internalType":"address"}],"outputs":[{"name":"","type":"uint256","internalType":"uint256"}],"stateMutability":"view"},{"type":"function","name":"maxWithdraw","inputs":[{"name":"owner","type":"address","internalType":"address"}],"outputs":[{"name":"","type":"uint256","internalType":"uint256"}],"stateMutability":"view"},{"type":"function","name":"mint","inputs":[{"name":"shares","type":"uint256","internalType":"uint256"},{"name":"receiver","type":"address","internalType":"address"}],"outputs":[{"name":"","type":"uint256","internalType":"uint256"}],"stateMutability":"nonpayable"},{"type":"function","name":"mintShare","inputs":[{"name":"at","type":"address","internalType":"address"},{"name":"shares","type":"uint256","internalType":"uint256"}],"outputs":[{"name":"","type":"bool","internalType":"bool"}],"stateMutability":"nonpayable"},{"type":"function","name":"name","inputs":[],"outputs":[{"name":"","type":"string","internalType":"string"}],"stateMutability":"view"},{"type":"function","name":"owner","inputs":[],"outputs":[{"name":"","type":"address","internalType":"address"}],"stateMutability":"view"},{"type":"function","name":"previewDeposit","inputs":[{"name":"assets","type":"uint256","internalType":"uint256"}],"outputs":[{"name":"","type":"uint256","internalType":"uint256"}],"stateMutability":"view"},{"type":"function","name":"previewMint","inputs":[{"name":"shares","type":"uint256","internalType":"uint256"}],"outputs":[{"name":"","type":"uint256","internalType":"uint256"}],"stateMutability":"view"},{"type":"function","name":"previewRedeem","inputs":[{"name":"shares","type":"uint256","internalType":"uint256"}],"outputs":[{"name":"","type":"uint256","internalType":"uint256"}],"stateMutability":"view"},{"type":"function","name":"previewWithdraw","inputs":[{"name":"assets","type":"uint256","internalType":"uint256"}],"outputs":[{"name":"","type":"uint256","internalType":"uint256"}],"stateMutability":"view"},{"type":"function","name":"redeem","inputs":[{"name":"shares","type":"uint256","internalType":"uint256"},{"name":"receiver","type":"address","internalType":"address"},{"name":"owner","type":"address","internalType":"address"}],"outputs":[{"name":"","type":"uint256","internalType":"uint256"}],"stateMutability":"nonpayable"},{"type":"function","name":"renounceOwnership","inputs":[],"outputs":[],"stateMutability":"nonpayable"},{"type":"function","name":"symbol","inputs":[],"outputs":[{"name":"","type":"string","internalType":"string"}],"stateMutability":"view"},{"type":"function","name":"totalAssets","inputs":[],"outputs":[{"name":"","type":"uint256","internalType":"uint256"}],"stateMutability":"view"},{"type":"function","name":"totalSupply","inputs":[],"outputs":[{"name":"","type":"uint256","internalType":"uint256"}],"stateMutability":"view"},{"type":"function","name":"transfer","inputs":[{"name":"to","type":"address","internalType":"address"},{"name":"value","type":"uint256","internalType":"uint256"}],"outputs":[{"name":"","type":"bool","internalType":"bool"}],"stateMutability":"nonpayable"},{"type":"function","name":"transferFrom","inputs":[{"name":"from","type":"address","internalType":"address"},{"name":"to","type":"address","internalType":"address"},{"name":"value","type":"uint256","internalType":"uint256"}],"outputs":[{"name":"","type":"bool","internalType":"bool"}],"stateMutability":"nonpayable"},{"type":"function","name":"transferOwnership","inputs":[{"name":"newOwner","type":"address","internalType":"address"}],"outputs":[],"stateMutability":"nonpayable"},{"type":"function","name":"withdraw","inputs":[{"name":"assets","type":"uint256","internalType":"uint256"},{"name":"receiver","type":"address","internalType":"address"},{"name":"owner","type":"address","internalType":"address"}],"outputs":[{"name":"","type":"uint256","internalType":"uint256"}],"stateMutability":"nonpayable"},{"type":"function","name":"withdrawAssets","inputs":[{"name":"amount","type":"uint256","internalType":"uint256"}],"outputs":[{"name":"","type":"bool","internalType":"bool"}],"stateMutability":"nonpayable"},{"type":"event","name":"Approval","inputs":[{"name":"owner","type":"address","indexed":true,"internalType":"address"},{"name":"spender","type":"address","indexed":true,"internalType":"address"},{"name":"value","type":"uint256","indexed":false,"internalType":"uint256"}],"anonymous":false},{"type":"event","name":"Deposit","inputs":[{"name":"sender","type":"address","indexed":true,"internalType":"address"},{"name":"owner","type":"address","indexed":true,"internalType":"address"},{"name":"assets","type":"uint256","indexed":false,"internalType":"uint256"},{"name":"shares","type":"uint256","indexed":false,"internalType":"uint256"}],"anonymous":false},{"type":"event","name":"OwnershipTransferred","inputs":[{"name":"previousOwner","type":"address","indexed":true,"internalType":"address"},{"name":"newOwner","type":"address","indexed":true,"internalType":"address"}],"anonymous":false},{"type":"event","name":"Transfer","inputs":[{"name":"from","type":"address","indexed":true,"internalType":"address"},{"name":"to","type":"address","indexed":true,"internalType":"address"},{"name":"value","type":"uint256","indexed":false,"internalType":"uint256"}],"anonymous":false},{"type":"event","name":"Withdraw","inputs":[{"name":"sender","type":"address","indexed":true,"internalType":"address"},{"name":"receiver","type":"address","indexed":true,"internalType":"address"},{"name":"owner","type":"address","indexed":true,"internalType":"address"},{"name":"assets","type":"uint256","indexed":false,"internalType":"uint256"},{"name":"shares","type":"uint256","indexed":false,"internalType":"uint256"}],"anonymous":false},{"type":"error","name":"AddressEmptyCode","inputs":[{"name":"target","type":"address","internalType":"address"}]},{"type":"error","name":"AddressInsufficientBalance","inputs":[{"name":"account","type":"address","internalType":"address"}]},{"type":"error","name":"ERC20InsufficientAllowance","inputs":[{"name":"spender","type":"address","internalType":"address"},{"name":"allowance","type":"uint256","internalType":"uint256"},{"name":"needed","type":"uint256","internalType":"uint256"}]},{"type":"error","name":"ERC20InsufficientBalance","inputs":[{"name":"sender","type":"address","internalType":"address"},{"name":"balance","type":"uint256","internalType":"uint256"},{"name":"needed","type":"uint256","internalType":"uint256"}]},{"type":"error","name":"ERC20InvalidApprover","inputs":[{"name":"approver","type":"address","internalType":"address"}]},{"type":"error","name":"ERC20InvalidReceiver","inputs":[{"name":"receiver","type":"address","internalType":"address"}]},{"type":"error","name":"ERC20InvalidSender","inputs":[{"name":"sender","type":"address","internalType":"address"}]},{"type":"error","name":"ERC20InvalidSpender","inputs":[{"name":"spender","type":"address","internalType":"address"}]},{"type":"error","name":"ERC4626ExceededMaxDeposit","inputs":[{"name":"receiver","type":"address","internalType":"address"},{"name":"assets","type":"uint256","internalType":"uint256"},{"name":"max","type":"uint256","internalType":"uint256"}]},{"type":"error","name":"ERC4626ExceededMaxMint","inputs":[{"name":"receiver","type":"address","internalType":"address"},{"name":"shares","type":"uint256","internalType":"uint256"},{"name":"max","type":"uint256","internalType":"uint256"}]},{"type":"error","name":"ERC4626ExceededMaxRedeem","inputs":[{"name":"owner","type":"address","internalType":"address"},{"name":"shares","type":"uint256","internalType":"uint256"},{"name":"max","type":"uint256","internalType":"uint256"}]},{"type":"error","name":"ERC4626ExceededMaxWithdraw","inputs":[{"name":"owner","type":"address","internalType":"address"},{"name":"assets","type":"uint256","internalType":"uint256"},{"name":"max","type":"uint256","internalType":"uint256"}]},{"type":"error","name":"FailedInnerCall","inputs":[]},{"type":"error","name":"MathOverflowedMulDiv","inputs":[]},{"type":"error","name":"OwnableInvalidOwner","inputs":[{"name":"owner","type":"address","internalType":"address"}]},{"type":"error","name":"OwnableUnauthorizedAccount","inputs":[{"name":"account","type":"address","internalType":"address"}]},{"type":"error","name":"SafeERC20FailedOperation","inputs":[{"name":"token","type":"address","internalType":"address"}]}],"bytecode":{"object":"0x60c06040526005600755601e6008553480156200001b57600080fd5b506040516200222f3803806200222f8339810160408190526200003e916200031b565b81858585600362000050838262000456565b5060046200005f828262000456565b5050506000806200007683620000fe60201b60201c565b9150915081620000885760126200008a565b805b60ff1660a05250506001600160a01b039081166080528116620000c757604051631e4fbdf760e01b81526000600482015260240160405180910390fd5b620000d281620001e3565b50600a80546001600160a01b0319166001600160a01b0392909216919091179055506200055a92505050565b60408051600481526024810182526020810180516001600160e01b031663313ce56760e01b17905290516000918291829182916001600160a01b03871691620001479162000522565b600060405180830381855afa9150503d806000811462000184576040519150601f19603f3d011682016040523d82523d6000602084013e62000189565b606091505b50915091508180156200019e57506020815110155b15620001d657600081806020019051810190620001bc919062000540565b905060ff8111620001d4576001969095509350505050565b505b5060009485945092505050565b600680546001600160a01b038381166001600160a01b0319831681179093556040519116919082907f8be0079c531659141344cd1fd0a4f28419497f9722a3daafe3b4186f6b6457e090600090a35050565b6001600160a01b03811681146200024b57600080fd5b50565b634e487b7160e01b600052604160045260246000fd5b60005b838110156200028157818101518382015260200162000267565b50506000910152565b600082601f8301126200029c57600080fd5b81516001600160401b0380821115620002b957620002b96200024e565b604051601f8301601f19908116603f01168101908282118183101715620002e457620002e46200024e565b81604052838152866020858801011115620002fe57600080fd5b6200031184602083016020890162000264565b9695505050505050565b600080600080600060a086880312156200033457600080fd5b8551620003418162000235565b60208701519095506001600160401b03808211156200035f57600080fd5b6200036d89838a016200028a565b955060408801519150808211156200038457600080fd5b5062000393888289016200028a565b9350506060860151620003a68162000235565b6080870151909250620003b98162000235565b809150509295509295909350565b600181811c90821680620003dc57607f821691505b602082108103620003fd57634e487b7160e01b600052602260045260246000fd5b50919050565b601f8211156200045157600081815260208120601f850160051c810160208610156200042c5750805b601f850160051c820191505b818110156200044d5782815560010162000438565b5050505b505050565b81516001600160401b038111156200047257620004726200024e565b6200048a81620004838454620003c7565b8462000403565b602080601f831160018114620004c25760008415620004a95750858301515b600019600386901b1c1916600185901b1785556200044d565b600085815260208120601f198616915b82811015620004f357888601518255948401946001909101908401620004d2565b5085821015620005125787850151600019600388901b60f8161c191681555b5050505050600190811b01905550565b600082516200053681846020870162000264565b9190910192915050565b6000602082840312156200055357600080fd5b5051919050565b60805160a051611c70620005bf60003960006107090152600081816102fe0152818161078e015281816108150152818161090f0152818161099201528181610bc901528181610c60015281816113b10152818161148301526115470152611c706000f3fe608060405234801561001057600080fd5b50600436106102325760003560e01c80638da5cb5b11610130578063c63d75b6116100b8578063dd62ed3e1161007c578063dd62ed3e146104bc578063ddca3f43146104f5578063ef8b30f7146104fe578063f2fde38b14610511578063f77c47911461052457600080fd5b8063c63d75b614610348578063c6e6f59214610470578063ce96cb7714610483578063d1033c0714610496578063d905777e146104a957600080fd5b8063aad58d27116100ff578063aad58d271461041b578063b3d7f6b914610424578063b460af9414610437578063ba0876521461044a578063c2f04b0a1461045d57600080fd5b80638da5cb5b146103dc57806394bf804d146103ed57806395d89b4114610400578063a9059cbb1461040857600080fd5b8063313ce567116101be5780634f9ebe52116101825780634f9ebe52146103705780636e553f651461038357806370a0823114610396578063715018a6146103bf57806371f0b5c5146103c957600080fd5b8063313ce567146102e257806338d52e0f146102fc578063392e53cd14610336578063402d267d146103485780634cdad5061461035d57600080fd5b80630a28a477116102055780630a28a477146102995780630ebc2d23146102ac57806318160ddd146102bf5780631fa35ad4146102c757806323b872dd146102cf57600080fd5b806301e1d1141461023757806306fdde031461024e57806307a2d13a14610263578063095ea7b314610276575b600080fd5b6005545b6040519081526020015b60405180910390f35b610256610537565b60405161024591906117e5565b61023b610271366004611818565b6105c9565b610289610284366004611848565b6105dc565b6040519015158152602001610245565b61023b6102a7366004611818565b6105f4565b6102896102ba366004611818565b61061b565b60025461023b565b61023b610696565b6102896102dd366004611872565b6106dc565b6102ea610700565b60405160ff9091168152602001610245565b7f00000000000000000000000000000000000000000000000000000000000000005b6040516001600160a01b039091168152602001610245565b600a54600160a01b900460ff16610289565b61023b6103563660046118ae565b5060001990565b61023b61036b366004611818565b610732565b61028961037e3660046118c9565b610753565b61023b61039136600461190b565b610861565b61023b6103a43660046118ae565b6001600160a01b031660009081526020819052604090205490565b6103c76108a1565b005b6102896103d7366004611818565b6108b5565b6006546001600160a01b031661031e565b61023b6103fb36600461190b565b6109f7565b610256610a2f565b610289610416366004611848565b610a3e565b61023b60085481565b61023b610432366004611818565b610a4c565b61023b610445366004611937565b610a6d565b61023b610458366004611937565b610aaf565b61028961046b366004611848565b610ae8565b61023b61047e366004611818565b610b3e565b61023b6104913660046118ae565b610b4b565b6102896104a4366004611818565b610b6f565b61023b6104b73660046118ae565b610c98565b61023b6104ca366004611973565b6001600160a01b03918216600090815260016020908152604080832093909416825291909152205490565b61023b60075481565b61023b61050c366004611818565b610cb6565b6103c761051f3660046118ae565b610cd1565b600a5461031e906001600160a01b031681565b6060600380546105469061199d565b80601f01602080910402602001604051908101604052809291908181526020018280546105729061199d565b80156105bf5780601f10610594576101008083540402835291602001916105bf565b820191906000526020600020905b8154815290600101906020018083116105a257829003601f168201915b5050505050905090565b60006105d6826000610d0f565b92915050565b6000336105ea818585610d4a565b5060019392505050565b60008061060083610d5c565b905061061461060f82856119ed565b610d76565b9392505050565b600a546000906001600160a01b0316331461063557600080fd5b600a54600160a01b900460ff166106675760405162461bcd60e51b815260040161065e90611a00565b60405180910390fd5b3360009081526020819052604090205482111561068357600080fd5b61068d3383610d83565b5060015b919050565b60008060646008546005546106ab9190611a2a565b6106b59190611a57565b90508060095410156106d4576009546106ce9082611a6b565b91505090565b600091505090565b6000336106ea858285610dbd565b6106f5858585610e28565b506001949350505050565b600061072d60087f0000000000000000000000000000000000000000000000000000000000000000611a7e565b905090565b60008061073e836105c9565b905061074981610e87565b6106149082611a6b565b600a546000906001600160a01b0316331461076d57600080fd5b6040516370a0823160e01b81526001600160a01b03858116600483015283917f0000000000000000000000000000000000000000000000000000000000000000909116906370a0823190602401602060405180830381865afa1580156107d7573d6000803e3d6000fd5b505050506040513d601f19601f820116820180604052508101906107fb9190611a97565b101561080657600080fd5b6108108584610eae565b61083c7f0000000000000000000000000000000000000000000000000000000000000000853085610ee4565b50600a805460ff60a01b1916600160a01b90811791829055900460ff16949350505050565b600a54600090600160a01b900460ff1661088d5760405162461bcd60e51b815260040161065e90611a00565b60006108998484610f4b565b949350505050565b6108a9610f69565b6108b36000610f96565b565b600a546000906001600160a01b031633146108cf57600080fd5b600a54600160a01b900460ff166108f85760405162461bcd60e51b815260040161065e90611a00565b6040516370a0823160e01b815233600482015282907f00000000000000000000000000000000000000000000000000000000000000006001600160a01b0316906370a0823190602401602060405180830381865afa15801561095e573d6000803e3d6000fd5b505050506040513d601f19601f820116820180604052508101906109829190611a97565b101561098d57600080fd5b6109b97f0000000000000000000000000000000000000000000000000000000000000000333085610ee4565b81600560008282546109cb91906119ed565b90915550506009541561068d5781600960008282546109ea9190611a6b565b9091555050506001919050565b600a54600090600160a01b900460ff16610a235760405162461bcd60e51b815260040161065e90611a00565b60006108998484610fe8565b6060600480546105469061199d565b6000336105ea818585610e28565b600080610a5883611006565b9050610a6381610d5c565b61061490826119ed565b600a54600090600160a01b900460ff16610a995760405162461bcd60e51b815260040161065e90611a00565b6000610aa6858585611013565b95945050505050565b600a54600090600160a01b900460ff16610adb5760405162461bcd60e51b815260040161065e90611a00565b6000610aa6858585611062565b600a546000906001600160a01b03163314610b0257600080fd5b600a54600160a01b900460ff16610b2b5760405162461bcd60e51b815260040161065e90611a00565b610b358383610eae565b50600192915050565b60006105d68260006110b1565b6001600160a01b0381166000908152602081905260408120546105d6906000610d0f565b600a546000906001600160a01b03163314610b8957600080fd5b600a54600160a01b900460ff16610bb25760405162461bcd60e51b815260040161065e90611a00565b6040516370a0823160e01b815230600482015282907f00000000000000000000000000000000000000000000000000000000000000006001600160a01b0316906370a0823190602401602060405180830381865afa158015610c18573d6000803e3d6000fd5b505050506040513d601f19601f82011682018060405250810190610c3c9190611a97565b1015610c4757600080fd5b81610c50610696565b1015610c5b57600080fd5b610c867f000000000000000000000000000000000000000000000000000000000000000033846110dd565b81600960008282546109ea91906119ed565b6001600160a01b0381166000908152602081905260408120546105d6565b600080610cc283610e87565b905061061461047e8285611a6b565b610cd9610f69565b6001600160a01b038116610d0357604051631e4fbdf760e01b81526000600482015260240161065e565b610d0c81610f96565b50565b6000610614610d1d60055490565b610d289060016119ed565b610d346008600a611b94565b600254610d4191906119ed565b8591908561110e565b610d57838383600161115d565b505050565b60006105d6610d6a60075490565b8390612710600161110e565b60006105d68260016110b1565b6001600160a01b038216610dad57604051634b637e8f60e11b81526000600482015260240161065e565b610db982600083611232565b5050565b6001600160a01b038381166000908152600160209081526040808320938616835292905220546000198114610e225781811015610e1357828183604051637dc7a0d960e11b815260040161065e93929190611ba3565b610e228484848403600061115d565b50505050565b6001600160a01b038316610e5257604051634b637e8f60e11b81526000600482015260240161065e565b6001600160a01b038216610e7c5760405163ec442f0560e01b81526000600482015260240161065e565b610d57838383611232565b60006105d6610e9560075490565b600754610ea4906127106119ed565b849190600161110e565b6001600160a01b038216610ed85760405163ec442f0560e01b81526000600482015260240161065e565b610db960008383611232565b6040516001600160a01b038481166024830152838116604483015260648201839052610e229186918216906323b872dd906084015b604051602081830303815290604052915060e01b6020820180516001600160e01b038381831617835250505050611349565b60006000196000610f5b85610cb6565b9050610899338587846113ac565b6006546001600160a01b031633146108b35760405163118cdaa760e01b815233600482015260240161065e565b600680546001600160a01b038381166001600160a01b0319831681179093556040519116919082907f8be0079c531659141344cd1fd0a4f28419497f9722a3daafe3b4186f6b6457e090600090a35050565b60006000196000610ff885610a4c565b9050610899338583886113ac565b60006105d6826001610d0f565b60008061101f83610b4b565b90508085111561104857828582604051633fa733bb60e21b815260040161065e93929190611ba3565b6000611053866105f4565b9050610aa63386868985611448565b60008061106e83610c98565b90508085111561109757828582604051632e52afbb60e21b815260040161065e93929190611ba3565b60006110a286610732565b9050610aa6338686848a611448565b60006106146110c26008600a611b94565b6002546110cf91906119ed565b600554610d419060016119ed565b6040516001600160a01b03838116602483015260448201839052610d5791859182169063a9059cbb90606401610f19565b60008061111c8686866115d8565b90506111278361169c565b801561114357506000848061113e5761113e611a41565b868809115b15610aa6576111536001826119ed565b9695505050505050565b6001600160a01b0384166111875760405163e602df0560e01b81526000600482015260240161065e565b6001600160a01b0383166111b157604051634a1406b160e11b81526000600482015260240161065e565b6001600160a01b0380851660009081526001602090815260408083209387168352929052208290558015610e2257826001600160a01b0316846001600160a01b03167f8c5be1e5ebec7d5bd14f71427d1e84f3dd0314c0f7b2291e5b200ac8c7c3b9258460405161122491815260200190565b60405180910390a350505050565b6001600160a01b03831661125d57806002600082825461125291906119ed565b909155506112bc9050565b6001600160a01b0383166000908152602081905260409020548181101561129d5783818360405163391434e360e21b815260040161065e93929190611ba3565b6001600160a01b03841660009081526020819052604090209082900390555b6001600160a01b0382166112d8576002805482900390556112f7565b6001600160a01b03821660009081526020819052604090208054820190555b816001600160a01b0316836001600160a01b03167fddf252ad1be2c89b69c2b068fc378daa952ba7f163c4a11628f55a4df523b3ef8360405161133c91815260200190565b60405180910390a3505050565b600061135e6001600160a01b038416836116c9565b905080516000141580156113835750808060200190518101906113819190611bc4565b155b15610d5757604051635274afe760e01b81526001600160a01b038416600482015260240161065e565b6113d87f0000000000000000000000000000000000000000000000000000000000000000853085610ee4565b81600560008282546113ea91906119ed565b909155506113fa90508382610eae565b826001600160a01b0316846001600160a01b03167fdcbc1c05240f31ff3ad067ef1ee35ce4997762752e3a095284754544f4c709d78484604051611224929190918252602082015260400190565b826001600160a01b0316856001600160a01b03161461146c5761146c838683610dbd565b6040516370a0823160e01b815230600482015282907f00000000000000000000000000000000000000000000000000000000000000006001600160a01b0316906370a0823190602401602060405180830381865afa1580156114d2573d6000803e3d6000fd5b505050506040513d601f19601f820116820180604052508101906114f69190611a97565b10156115385760405162461bcd60e51b8152602060048201526011602482015270756e61626c6520746f2070726f6365737360781b604482015260640161065e565b6115428382610d83565b61156d7f000000000000000000000000000000000000000000000000000000000000000085846110dd565b816005600082825461157f9190611a6b565b909155505060408051838152602081018390526001600160a01b038086169287821692918916917ffbde797d201c681b91056529119e0b02407c7bb96a4a2c75c01fc9667232c8db910160405180910390a45050505050565b600083830281600019858709828110838203039150508060000361160f5783828161160557611605611a41565b0492505050610614565b80841161162f5760405163227bc15360e01b815260040160405180910390fd5b6000848688096000868103871696879004966002600389028118808a02820302808a02820302808a02820302808a02820302808a02820302808a02909103029181900381900460010186841190950394909402919094039290920491909117919091029150509392505050565b600060028260038111156116b2576116b2611be6565b6116bc9190611bfc565b60ff166001149050919050565b60606106148383600084600080856001600160a01b031684866040516116ef9190611c1e565b60006040518083038185875af1925050503d806000811461172c576040519150601f19603f3d011682016040523d82523d6000602084013e611731565b606091505b50915091506111538683836060826117515761174c82611798565b610614565b815115801561176857506001600160a01b0384163b155b1561179157604051639996b31560e01b81526001600160a01b038516600482015260240161065e565b5080610614565b8051156117a85780518082602001fd5b604051630a12f52160e11b815260040160405180910390fd5b60005b838110156117dc5781810151838201526020016117c4565b50506000910152565b60208152600082518060208401526118048160408501602087016117c1565b601f01601f19169190910160400192915050565b60006020828403121561182a57600080fd5b5035919050565b80356001600160a01b038116811461069157600080fd5b6000806040838503121561185b57600080fd5b61186483611831565b946020939093013593505050565b60008060006060848603121561188757600080fd5b61189084611831565b925061189e60208501611831565b9150604084013590509250925092565b6000602082840312156118c057600080fd5b61061482611831565b600080600080608085870312156118df57600080fd5b6118e885611831565b93506118f660208601611831565b93969395505050506040820135916060013590565b6000806040838503121561191e57600080fd5b8235915061192e60208401611831565b90509250929050565b60008060006060848603121561194c57600080fd5b8335925061195c60208501611831565b915061196a60408501611831565b90509250925092565b6000806040838503121561198657600080fd5b61198f83611831565b915061192e60208401611831565b600181811c908216806119b157607f821691505b6020821081036119d157634e487b7160e01b600052602260045260246000fd5b50919050565b634e487b7160e01b600052601160045260246000fd5b808201808211156105d6576105d66119d7565b60208082526010908201526f7661756c74206e6f742061637469766560801b604082015260600190565b80820281158282048414176105d6576105d66119d7565b634e487b7160e01b600052601260045260246000fd5b600082611a6657611a66611a41565b500490565b818103818111156105d6576105d66119d7565b60ff81811683821601908111156105d6576105d66119d7565b600060208284031215611aa957600080fd5b5051919050565b600181815b80851115611aeb578160001904821115611ad157611ad16119d7565b80851615611ade57918102915b93841c9390800290611ab5565b509250929050565b600082611b02575060016105d6565b81611b0f575060006105d6565b8160018114611b255760028114611b2f57611b4b565b60019150506105d6565b60ff841115611b4057611b406119d7565b50506001821b6105d6565b5060208310610133831016604e8410600b8410161715611b6e575081810a6105d6565b611b788383611ab0565b8060001904821115611b8c57611b8c6119d7565b029392505050565b600061061460ff841683611af3565b6001600160a01b039390931683526020830191909152604082015260600190565b600060208284031215611bd657600080fd5b8151801515811461061457600080fd5b634e487b7160e01b600052602160045260246000fd5b600060ff831680611c0f57611c0f611a41565b8060ff84160691505092915050565b60008251611c308184602087016117c1565b919091019291505056fea2646970667358221220ea3d353a3c54661899d3b32e45c55a60d4a5b3ce9c9f6a3ce865c88ebcdb081d64736f6c63430008140033","linkReferences":{}},"methodIdentifiers":{"_initializeVault(address,address,uint256,uint256)":"4f9ebe52","allowance(address,address)":"dd62ed3e","approve(address,uint256)":"095ea7b3","asset()":"38d52e0f","balanceOf(address)":"70a08231","burnShare(uint256)":"0ebc2d23","controller()":"f77c4791","convertToAssets(uint256)":"07a2d13a","convertToShares(uint256)":"c6e6f592","decimals()":"313ce567","deposit(uint256,address)":"6e553f65","depositAssets(uint256)":"71f0b5c5","fee()":"ddca3f43","fractionalReserve()":"aad58d27","getWithdrawable()":"1fa35ad4","isInitialized()":"392e53cd","maxDeposit(address)":"402d267d","maxMint(address)":"c63d75b6","maxRedeem(address)":"d905777e","maxWithdraw(address)":"ce96cb77","mint(uint256,address)":"94bf804d","mintShare(address,uint256)":"c2f04b0a","name()":"06fdde03","owner()":"8da5cb5b","previewDeposit(uint256)":"ef8b30f7","previewMint(uint256)":"b3d7f6b9","previewRedeem(uint256)":"4cdad506","previewWithdraw(uint256)":"0a28a477","redeem(uint256,address,address)":"ba087652","renounceOwnership()":"715018a6","symbol()":"95d89b41","totalAssets()":"01e1d114","totalSupply()":"18160ddd","transfer(address,uint256)":"a9059cbb","transferFrom(address,address,uint256)":"23b872dd","transferOwnership(address)":"f2fde38b","withdraw(uint256,address,address)":"b460af94","withdrawAssets(uint256)":"d1033c07"},"id":28}