{"abi":[{"type":"constructor","inputs":[{"name":"ercAsset","type":"address","internalType":"contract IERC20"},{"name":"name","type":"string","internalType":"string"},{"name":"symbol","type":"string","internalType":"string"}],"stateMutability":"nonpayable"},{"type":"function","name":"allowance","inputs":[{"name":"owner","type":"address","internalType":"address"},{"name":"spender","type":"address","internalType":"address"}],"outputs":[{"name":"","type":"uint256","internalType":"uint256"}],"stateMutability":"view"},{"type":"function","name":"approve","inputs":[{"name":"spender","type":"address","internalType":"address"},{"name":"value","type":"uint256","internalType":"uint256"}],"outputs":[{"name":"","type":"bool","internalType":"bool"}],"stateMutability":"nonpayable"},{"type":"function","name":"asset","inputs":[],"outputs":[{"name":"","type":"address","internalType":"address"}],"stateMutability":"view"},{"type":"function","name":"balanceOf","inputs":[{"name":"account","type":"address","internalType":"address"}],"outputs":[{"name":"","type":"uint256","internalType":"uint256"}],"stateMutability":"view"},{"type":"function","name":"convertToAssets","inputs":[{"name":"shares","type":"uint256","internalType":"uint256"}],"outputs":[{"name":"","type":"uint256","internalType":"uint256"}],"stateMutability":"view"},{"type":"function","name":"convertToShares","inputs":[{"name":"assets","type":"uint256","internalType":"uint256"}],"outputs":[{"name":"","type":"uint256","internalType":"uint256"}],"stateMutability":"view"},{"type":"function","name":"decimals","inputs":[],"outputs":[{"name":"","type":"uint8","internalType":"uint8"}],"stateMutability":"view"},{"type":"function","name":"deposit","inputs":[{"name":"assets","type":"uint256","internalType":"uint256"},{"name":"receiver","type":"address","internalType":"address"}],"outputs":[{"name":"","type":"uint256","internalType":"uint256"}],"stateMutability":"nonpayable"},{"type":"function","name":"fee","inputs":[],"outputs":[{"name":"","type":"uint256","internalType":"uint256"}],"stateMutability":"view"},{"type":"function","name":"maxDeposit","inputs":[{"name":"","type":"address","internalType":"address"}],"outputs":[{"name":"","type":"uint256","internalType":"uint256"}],"stateMutability":"view"},{"type":"function","name":"maxMint","inputs":[{"name":"","type":"address","internalType":"address"}],"outputs":[{"name":"","type":"uint256","internalType":"uint256"}],"stateMutability":"view"},{"type":"function","name":"maxRedeem","inputs":[{"name":"owner","type":"address","internalType":"address"}],"outputs":[{"name":"","type":"uint256","internalType":"uint256"}],"stateMutability":"view"},{"type":"function","name":"maxWithdraw","inputs":[{"name":"owner","type":"address","internalType":"address"}],"outputs":[{"name":"","type":"uint256","internalType":"uint256"}],"stateMutability":"view"},{"type":"function","name":"mint","inputs":[{"name":"shares","type":"uint256","internalType":"uint256"},{"name":"receiver","type":"address","internalType":"address"}],"outputs":[{"name":"","type":"uint256","internalType":"uint256"}],"stateMutability":"nonpayable"},{"type":"function","name":"name","inputs":[],"outputs":[{"name":"","type":"string","internalType":"string"}],"stateMutability":"view"},{"type":"function","name":"owner","inputs":[],"outputs":[{"name":"","type":"address","internalType":"address"}],"stateMutability":"view"},{"type":"function","name":"previewDeposit","inputs":[{"name":"assets","type":"uint256","internalType":"uint256"}],"outputs":[{"name":"","type":"uint256","internalType":"uint256"}],"stateMutability":"view"},{"type":"function","name":"previewMint","inputs":[{"name":"shares","type":"uint256","internalType":"uint256"}],"outputs":[{"name":"","type":"uint256","internalType":"uint256"}],"stateMutability":"view"},{"type":"function","name":"previewRedeem","inputs":[{"name":"shares","type":"uint256","internalType":"uint256"}],"outputs":[{"name":"","type":"uint256","internalType":"uint256"}],"stateMutability":"view"},{"type":"function","name":"previewWithdraw","inputs":[{"name":"assets","type":"uint256","internalType":"uint256"}],"outputs":[{"name":"","type":"uint256","internalType":"uint256"}],"stateMutability":"view"},{"type":"function","name":"redeem","inputs":[{"name":"shares","type":"uint256","internalType":"uint256"},{"name":"receiver","type":"address","internalType":"address"},{"name":"owner","type":"address","internalType":"address"}],"outputs":[{"name":"","type":"uint256","internalType":"uint256"}],"stateMutability":"nonpayable"},{"type":"function","name":"renounceOwnership","inputs":[],"outputs":[],"stateMutability":"nonpayable"},{"type":"function","name":"symbol","inputs":[],"outputs":[{"name":"","type":"string","internalType":"string"}],"stateMutability":"view"},{"type":"function","name":"totalAssets","inputs":[],"outputs":[{"name":"","type":"uint256","internalType":"uint256"}],"stateMutability":"view"},{"type":"function","name":"totalSupply","inputs":[],"outputs":[{"name":"","type":"uint256","internalType":"uint256"}],"stateMutability":"view"},{"type":"function","name":"transfer","inputs":[{"name":"to","type":"address","internalType":"address"},{"name":"value","type":"uint256","internalType":"uint256"}],"outputs":[{"name":"","type":"bool","internalType":"bool"}],"stateMutability":"nonpayable"},{"type":"function","name":"transferFrom","inputs":[{"name":"from","type":"address","internalType":"address"},{"name":"to","type":"address","internalType":"address"},{"name":"value","type":"uint256","internalType":"uint256"}],"outputs":[{"name":"","type":"bool","internalType":"bool"}],"stateMutability":"nonpayable"},{"type":"function","name":"transferOwnership","inputs":[{"name":"newOwner","type":"address","internalType":"address"}],"outputs":[],"stateMutability":"nonpayable"},{"type":"function","name":"withdraw","inputs":[{"name":"assets","type":"uint256","internalType":"uint256"},{"name":"receiver","type":"address","internalType":"address"},{"name":"owner","type":"address","internalType":"address"}],"outputs":[{"name":"","type":"uint256","internalType":"uint256"}],"stateMutability":"nonpayable"},{"type":"event","name":"Approval","inputs":[{"name":"owner","type":"address","indexed":true,"internalType":"address"},{"name":"spender","type":"address","indexed":true,"internalType":"address"},{"name":"value","type":"uint256","indexed":false,"internalType":"uint256"}],"anonymous":false},{"type":"event","name":"Deposit","inputs":[{"name":"sender","type":"address","indexed":true,"internalType":"address"},{"name":"owner","type":"address","indexed":true,"internalType":"address"},{"name":"assets","type":"uint256","indexed":false,"internalType":"uint256"},{"name":"shares","type":"uint256","indexed":false,"internalType":"uint256"}],"anonymous":false},{"type":"event","name":"OwnershipTransferred","inputs":[{"name":"previousOwner","type":"address","indexed":true,"internalType":"address"},{"name":"newOwner","type":"address","indexed":true,"internalType":"address"}],"anonymous":false},{"type":"event","name":"Transfer","inputs":[{"name":"from","type":"address","indexed":true,"internalType":"address"},{"name":"to","type":"address","indexed":true,"internalType":"address"},{"name":"value","type":"uint256","indexed":false,"internalType":"uint256"}],"anonymous":false},{"type":"event","name":"Withdraw","inputs":[{"name":"sender","type":"address","indexed":true,"internalType":"address"},{"name":"receiver","type":"address","indexed":true,"internalType":"address"},{"name":"owner","type":"address","indexed":true,"internalType":"address"},{"name":"assets","type":"uint256","indexed":false,"internalType":"uint256"},{"name":"shares","type":"uint256","indexed":false,"internalType":"uint256"}],"anonymous":false},{"type":"error","name":"AddressEmptyCode","inputs":[{"name":"target","type":"address","internalType":"address"}]},{"type":"error","name":"AddressInsufficientBalance","inputs":[{"name":"account","type":"address","internalType":"address"}]},{"type":"error","name":"ERC20InsufficientAllowance","inputs":[{"name":"spender","type":"address","internalType":"address"},{"name":"allowance","type":"uint256","internalType":"uint256"},{"name":"needed","type":"uint256","internalType":"uint256"}]},{"type":"error","name":"ERC20InsufficientBalance","inputs":[{"name":"sender","type":"address","internalType":"address"},{"name":"balance","type":"uint256","internalType":"uint256"},{"name":"needed","type":"uint256","internalType":"uint256"}]},{"type":"error","name":"ERC20InvalidApprover","inputs":[{"name":"approver","type":"address","internalType":"address"}]},{"type":"error","name":"ERC20InvalidReceiver","inputs":[{"name":"receiver","type":"address","internalType":"address"}]},{"type":"error","name":"ERC20InvalidSender","inputs":[{"name":"sender","type":"address","internalType":"address"}]},{"type":"error","name":"ERC20InvalidSpender","inputs":[{"name":"spender","type":"address","internalType":"address"}]},{"type":"error","name":"ERC4626ExceededMaxDeposit","inputs":[{"name":"receiver","type":"address","internalType":"address"},{"name":"assets","type":"uint256","internalType":"uint256"},{"name":"max","type":"uint256","internalType":"uint256"}]},{"type":"error","name":"ERC4626ExceededMaxMint","inputs":[{"name":"receiver","type":"address","internalType":"address"},{"name":"shares","type":"uint256","internalType":"uint256"},{"name":"max","type":"uint256","internalType":"uint256"}]},{"type":"error","name":"ERC4626ExceededMaxRedeem","inputs":[{"name":"owner","type":"address","internalType":"address"},{"name":"shares","type":"uint256","internalType":"uint256"},{"name":"max","type":"uint256","internalType":"uint256"}]},{"type":"error","name":"ERC4626ExceededMaxWithdraw","inputs":[{"name":"owner","type":"address","internalType":"address"},{"name":"assets","type":"uint256","internalType":"uint256"},{"name":"max","type":"uint256","internalType":"uint256"}]},{"type":"error","name":"FailedInnerCall","inputs":[]},{"type":"error","name":"MathOverflowedMulDiv","inputs":[]},{"type":"error","name":"OwnableInvalidOwner","inputs":[{"name":"owner","type":"address","internalType":"address"}]},{"type":"error","name":"OwnableUnauthorizedAccount","inputs":[{"name":"account","type":"address","internalType":"address"}]},{"type":"error","name":"SafeERC20FailedOperation","inputs":[{"name":"token","type":"address","internalType":"address"}]}],"bytecode":{"object":"0x60c060405260056007553480156200001657600080fd5b5060405162001a3d38038062001a3d8339810160408190526200003991620002db565b3383838360036200004b8382620003f4565b5060046200005a8282620003f4565b5050506000806200007183620000d760201b60201c565b91509150816200008357601262000085565b805b60ff1660a05250506001600160a01b039081166080528116620000c257604051631e4fbdf760e01b81526000600482015260240160405180910390fd5b620000cd81620001bc565b50505050620004f8565b60408051600481526024810182526020810180516001600160e01b031663313ce56760e01b17905290516000918291829182916001600160a01b038716916200012091620004c0565b600060405180830381855afa9150503d80600081146200015d576040519150601f19603f3d011682016040523d82523d6000602084013e62000162565b606091505b50915091508180156200017757506020815110155b15620001af57600081806020019051810190620001959190620004de565b905060ff8111620001ad576001969095509350505050565b505b5060009485945092505050565b600680546001600160a01b038381166001600160a01b0319831681179093556040519116919082907f8be0079c531659141344cd1fd0a4f28419497f9722a3daafe3b4186f6b6457e090600090a35050565b634e487b7160e01b600052604160045260246000fd5b60005b838110156200024157818101518382015260200162000227565b50506000910152565b600082601f8301126200025c57600080fd5b81516001600160401b03808211156200027957620002796200020e565b604051601f8301601f19908116603f01168101908282118183101715620002a457620002a46200020e565b81604052838152866020858801011115620002be57600080fd5b620002d184602083016020890162000224565b9695505050505050565b600080600060608486031215620002f157600080fd5b83516001600160a01b03811681146200030957600080fd5b60208501519093506001600160401b03808211156200032757600080fd5b62000335878388016200024a565b935060408601519150808211156200034c57600080fd5b506200035b868287016200024a565b9150509250925092565b600181811c908216806200037a57607f821691505b6020821081036200039b57634e487b7160e01b600052602260045260246000fd5b50919050565b601f821115620003ef57600081815260208120601f850160051c81016020861015620003ca5750805b601f850160051c820191505b81811015620003eb57828155600101620003d6565b5050505b505050565b81516001600160401b038111156200041057620004106200020e565b620004288162000421845462000365565b84620003a1565b602080601f831160018114620004605760008415620004475750858301515b600019600386901b1c1916600185901b178555620003eb565b600085815260208120601f198616915b82811015620004915788860151825594840194600190910190840162000470565b5085821015620004b05787850151600019600388901b60f8161c191681555b5050505050600190811b01905550565b60008251620004d481846020870162000224565b9190910192915050565b600060208284031215620004f157600080fd5b5051919050565b60805160a0516115116200052c600039600061055001526000818161028001528181610c0a0152610d1a01526115116000f3fe608060405234801561001057600080fd5b50600436106101cf5760003560e01c80638da5cb5b11610104578063c63d75b6116100a2578063dd62ed3e11610071578063dd62ed3e146103d7578063ddca3f4314610410578063ef8b30f714610419578063f2fde38b1461042c57600080fd5b8063c63d75b6146102b8578063c6e6f5921461039e578063ce96cb77146103b1578063d905777e146103c457600080fd5b8063a9059cbb116100de578063a9059cbb14610352578063b3d7f6b914610365578063b460af9414610378578063ba0876521461038b57600080fd5b80638da5cb5b1461032657806394bf804d1461033757806395d89b411461034a57600080fd5b8063313ce567116101715780634cdad5061161014b5780634cdad506146102cd5780636e553f65146102e057806370a08231146102f3578063715018a61461031c57600080fd5b8063313ce5671461026457806338d52e0f1461027e578063402d267d146102b857600080fd5b8063095ea7b3116101ad578063095ea7b3146102135780630a28a4771461023657806318160ddd1461024957806323b872dd1461025157600080fd5b806301e1d114146101d457806306fdde03146101eb57806307a2d13a14610200575b600080fd5b6005545b6040519081526020015b60405180910390f35b6101f361043f565b6040516101e29190611123565b6101d861020e366004611156565b6104d1565b61022661022136600461118b565b6104e4565b60405190151581526020016101e2565b6101d8610244366004611156565b6104fc565b6002546101d8565b61022661025f3660046111b5565b610523565b61026c610547565b60405160ff90911681526020016101e2565b7f00000000000000000000000000000000000000000000000000000000000000005b6040516001600160a01b0390911681526020016101e2565b6101d86102c63660046111f1565b5060001990565b6101d86102db366004611156565b610579565b6101d86102ee36600461120c565b61059a565b6101d86103013660046111f1565b6001600160a01b031660009081526020819052604090205490565b6103246105ce565b005b6006546001600160a01b03166102a0565b6101d861034536600461120c565b6105e2565b6101f3610600565b61022661036036600461118b565b61060f565b6101d8610373366004611156565b61061d565b6101d8610386366004611238565b61063e565b6101d8610399366004611238565b610696565b6101d86103ac366004611156565b6106e5565b6101d86103bf3660046111f1565b6106f2565b6101d86103d23660046111f1565b610716565b6101d86103e5366004611274565b6001600160a01b03918216600090815260016020908152604080832093909416825291909152205490565b6101d860075481565b6101d8610427366004611156565b610734565b61032461043a3660046111f1565b61074f565b60606003805461044e9061129e565b80601f016020809104026020016040519081016040528092919081815260200182805461047a9061129e565b80156104c75780601f1061049c576101008083540402835291602001916104c7565b820191906000526020600020905b8154815290600101906020018083116104aa57829003601f168201915b5050505050905090565b60006104de82600061078d565b92915050565b6000336104f28185856107c8565b5060019392505050565b600080610508836107da565b905061051c61051782856112ee565b6107f4565b9392505050565b600033610531858285610801565b61053c85858561086c565b506001949350505050565b600061057460127f0000000000000000000000000000000000000000000000000000000000000000611301565b905090565b600080610585836104d1565b9050610590816108cb565b61051c908261131a565b60006000196105ad565b60405180910390fd5b60006105b885610734565b90506105c6338587846108f2565b949350505050565b6105d66108fe565b6105e0600061092b565b565b600060001960006105f28561061d565b90506105c6338583886108f2565b60606004805461044e9061129e565b6000336104f281858561086c565b6000806106298361097d565b9050610634816107da565b61051c90826112ee565b60008061064a836106f2565b90508085111561067357828582604051633fa733bb60e21b81526004016105a49392919061132d565b600061067e866104fc565b905061068d338686898561098a565b95945050505050565b6000806106a283610716565b9050808511156106cb57828582604051632e52afbb60e21b81526004016105a49392919061132d565b60006106d686610579565b905061068d338686848a61098a565b60006104de82600061099e565b6001600160a01b0381166000908152602081905260408120546104de90600061078d565b6001600160a01b0381166000908152602081905260408120546104de565b600080610740836108cb565b905061051c6103ac828561131a565b6107576108fe565b6001600160a01b03811661078157604051631e4fbdf760e01b8152600060048201526024016105a4565b61078a8161092b565b50565b600061051c61079b60055490565b6107a69060016112ee565b6107b26012600a611432565b6002546107bf91906112ee565b859190856109ca565b6107d58383836001610a19565b505050565b60006104de6107e860075490565b839061271060016109ca565b60006104de82600161099e565b6001600160a01b038381166000908152600160209081526040808320938616835292905220546000198114610866578181101561085757828183604051637dc7a0d960e11b81526004016105a49392919061132d565b61086684848484036000610a19565b50505050565b6001600160a01b03831661089657604051634b637e8f60e11b8152600060048201526024016105a4565b6001600160a01b0382166108c05760405163ec442f0560e01b8152600060048201526024016105a4565b6107d5838383610aee565b60006104de6108d960075490565b6007546108e8906127106112ee565b84919060016109ca565b61086684848484610c05565b6006546001600160a01b031633146105e05760405163118cdaa760e01b81523360048201526024016105a4565b600680546001600160a01b038381166001600160a01b0319831681179093556040519116919082907f8be0079c531659141344cd1fd0a4f28419497f9722a3daafe3b4186f6b6457e090600090a35050565b60006104de82600161078d565b6109978585858585610ca1565b5050505050565b600061051c6109af6012600a611432565b6002546109bc91906112ee565b6005546107bf9060016112ee565b6000806109d8868686610dab565b90506109e383610e6f565b80156109ff5750600084806109fa576109fa611441565b868809115b1561068d57610a0f6001826112ee565b9695505050505050565b6001600160a01b038416610a435760405163e602df0560e01b8152600060048201526024016105a4565b6001600160a01b038316610a6d57604051634a1406b160e11b8152600060048201526024016105a4565b6001600160a01b038085166000908152600160209081526040808320938716835292905220829055801561086657826001600160a01b0316846001600160a01b03167f8c5be1e5ebec7d5bd14f71427d1e84f3dd0314c0f7b2291e5b200ac8c7c3b92584604051610ae091815260200190565b60405180910390a350505050565b6001600160a01b038316610b19578060026000828254610b0e91906112ee565b90915550610b789050565b6001600160a01b03831660009081526020819052604090205481811015610b595783818360405163391434e360e21b81526004016105a49392919061132d565b6001600160a01b03841660009081526020819052604090209082900390555b6001600160a01b038216610b9457600280548290039055610bb3565b6001600160a01b03821660009081526020819052604090208054820190555b816001600160a01b0316836001600160a01b03167fddf252ad1be2c89b69c2b068fc378daa952ba7f163c4a11628f55a4df523b3ef83604051610bf891815260200190565b60405180910390a3505050565b610c317f0000000000000000000000000000000000000000000000000000000000000000853085610e9c565b8160056000828254610c4391906112ee565b90915550610c5390508382610f03565b826001600160a01b0316846001600160a01b03167fdcbc1c05240f31ff3ad067ef1ee35ce4997762752e3a095284754544f4c709d78484604051610ae0929190918252602082015260400190565b826001600160a01b0316856001600160a01b031614610cc557610cc5838683610801565b816005541015610d0b5760405162461bcd60e51b8152602060048201526011602482015270756e61626c6520746f2070726f6365737360781b60448201526064016105a4565b610d158382610f3d565b610d407f00000000000000000000000000000000000000000000000000000000000000008584610f73565b8160056000828254610d52919061131a565b909155505060408051838152602081018390526001600160a01b038086169287821692918916917ffbde797d201c681b91056529119e0b02407c7bb96a4a2c75c01fc9667232c8db910160405180910390a45050505050565b6000838302816000198587098281108382030391505080600003610de257838281610dd857610dd8611441565b049250505061051c565b808411610e025760405163227bc15360e01b815260040160405180910390fd5b6000848688096000868103871696879004966002600389028118808a02820302808a02820302808a02820302808a02820302808a02820302808a02909103029181900381900460010186841190950394909402919094039290920491909117919091029150509392505050565b60006002826003811115610e8557610e85611457565b610e8f919061146d565b60ff166001149050919050565b6040516001600160a01b0384811660248301528381166044830152606482018390526108669186918216906323b872dd906084015b604051602081830303815290604052915060e01b6020820180516001600160e01b038381831617835250505050610fa4565b6001600160a01b038216610f2d5760405163ec442f0560e01b8152600060048201526024016105a4565b610f3960008383610aee565b5050565b6001600160a01b038216610f6757604051634b637e8f60e11b8152600060048201526024016105a4565b610f3982600083610aee565b6040516001600160a01b038381166024830152604482018390526107d591859182169063a9059cbb90606401610ed1565b6000610fb96001600160a01b03841683611007565b90508051600014158015610fde575080806020019051810190610fdc919061149d565b155b156107d557604051635274afe760e01b81526001600160a01b03841660048201526024016105a4565b606061051c8383600084600080856001600160a01b0316848660405161102d91906114bf565b60006040518083038185875af1925050503d806000811461106a576040519150601f19603f3d011682016040523d82523d6000602084013e61106f565b606091505b5091509150610a0f86838360608261108f5761108a826110d6565b61051c565b81511580156110a657506001600160a01b0384163b155b156110cf57604051639996b31560e01b81526001600160a01b03851660048201526024016105a4565b508061051c565b8051156110e65780518082602001fd5b604051630a12f52160e11b815260040160405180910390fd5b60005b8381101561111a578181015183820152602001611102565b50506000910152565b60208152600082518060208401526111428160408501602087016110ff565b601f01601f19169190910160400192915050565b60006020828403121561116857600080fd5b5035919050565b80356001600160a01b038116811461118657600080fd5b919050565b6000806040838503121561119e57600080fd5b6111a78361116f565b946020939093013593505050565b6000806000606084860312156111ca57600080fd5b6111d38461116f565b92506111e16020850161116f565b9150604084013590509250925092565b60006020828403121561120357600080fd5b61051c8261116f565b6000806040838503121561121f57600080fd5b8235915061122f6020840161116f565b90509250929050565b60008060006060848603121561124d57600080fd5b8335925061125d6020850161116f565b915061126b6040850161116f565b90509250925092565b6000806040838503121561128757600080fd5b6112908361116f565b915061122f6020840161116f565b600181811c908216806112b257607f821691505b6020821081036112d257634e487b7160e01b600052602260045260246000fd5b50919050565b634e487b7160e01b600052601160045260246000fd5b808201808211156104de576104de6112d8565b60ff81811683821601908111156104de576104de6112d8565b818103818111156104de576104de6112d8565b6001600160a01b039390931683526020830191909152604082015260600190565b600181815b8085111561138957816000190482111561136f5761136f6112d8565b8085161561137c57918102915b93841c9390800290611353565b509250929050565b6000826113a0575060016104de565b816113ad575060006104de565b81600181146113c357600281146113cd576113e9565b60019150506104de565b60ff8411156113de576113de6112d8565b50506001821b6104de565b5060208310610133831016604e8410600b841016171561140c575081810a6104de565b611416838361134e565b806000190482111561142a5761142a6112d8565b029392505050565b600061051c60ff841683611391565b634e487b7160e01b600052601260045260246000fd5b634e487b7160e01b600052602160045260246000fd5b600060ff83168061148e57634e487b7160e01b600052601260045260246000fd5b8060ff84160691505092915050565b6000602082840312156114af57600080fd5b8151801515811461051c57600080fd5b600082516114d18184602087016110ff565b919091019291505056fea264697066735822122033b766e7f4710fdd943cfae15ca0ec6da79c0dc488c39c7dbeefcdf82619123364736f6c63430008140033","linkReferences":{}},"methodIdentifiers":{"allowance(address,address)":"dd62ed3e","approve(address,uint256)":"095ea7b3","asset()":"38d52e0f","balanceOf(address)":"70a08231","convertToAssets(uint256)":"07a2d13a","convertToShares(uint256)":"c6e6f592","decimals()":"313ce567","deposit(uint256,address)":"6e553f65","fee()":"ddca3f43","maxDeposit(address)":"402d267d","maxMint(address)":"c63d75b6","maxRedeem(address)":"d905777e","maxWithdraw(address)":"ce96cb77","mint(uint256,address)":"94bf804d","name()":"06fdde03","owner()":"8da5cb5b","previewDeposit(uint256)":"ef8b30f7","previewMint(uint256)":"b3d7f6b9","previewRedeem(uint256)":"4cdad506","previewWithdraw(uint256)":"0a28a477","redeem(uint256,address,address)":"ba087652","renounceOwnership()":"715018a6","symbol()":"95d89b41","totalAssets()":"01e1d114","totalSupply()":"18160ddd","transfer(address,uint256)":"a9059cbb","transferFrom(address,address,uint256)":"23b872dd","transferOwnership(address)":"f2fde38b","withdraw(uint256,address,address)":"b460af94"},"id":27}