{"abi":[{"type":"constructor","inputs":[{"name":"ercAsset","type":"address","internalType":"contract IERC20"},{"name":"name","type":"string","internalType":"string"},{"name":"symbol","type":"string","internalType":"string"},{"name":"_owner","type":"address","internalType":"address"}],"stateMutability":"nonpayable"},{"type":"function","name":"_initializeVault","inputs":[{"name":"sharesTo","type":"address","internalType":"address"},{"name":"depositFrom","type":"address","internalType":"address"},{"name":"assetsToDeposit","type":"uint256","internalType":"uint256"}],"outputs":[{"name":"","type":"bool","internalType":"bool"}],"stateMutability":"nonpayable"},{"type":"function","name":"allowance","inputs":[{"name":"owner","type":"address","internalType":"address"},{"name":"spender","type":"address","internalType":"address"}],"outputs":[{"name":"","type":"uint256","internalType":"uint256"}],"stateMutability":"view"},{"type":"function","name":"approve","inputs":[{"name":"spender","type":"address","internalType":"address"},{"name":"value","type":"uint256","internalType":"uint256"}],"outputs":[{"name":"","type":"bool","internalType":"bool"}],"stateMutability":"nonpayable"},{"type":"function","name":"asset","inputs":[],"outputs":[{"name":"","type":"address","internalType":"address"}],"stateMutability":"view"},{"type":"function","name":"balanceOf","inputs":[{"name":"account","type":"address","internalType":"address"}],"outputs":[{"name":"","type":"uint256","internalType":"uint256"}],"stateMutability":"view"},{"type":"function","name":"burnShare","inputs":[{"name":"shares","type":"uint256","internalType":"uint256"}],"outputs":[{"name":"","type":"bool","internalType":"bool"}],"stateMutability":"nonpayable"},{"type":"function","name":"controller","inputs":[],"outputs":[{"name":"","type":"address","internalType":"address"}],"stateMutability":"view"},{"type":"function","name":"convertToAssets","inputs":[{"name":"shares","type":"uint256","internalType":"uint256"}],"outputs":[{"name":"","type":"uint256","internalType":"uint256"}],"stateMutability":"view"},{"type":"function","name":"convertToShares","inputs":[{"name":"assets","type":"uint256","internalType":"uint256"}],"outputs":[{"name":"","type":"uint256","internalType":"uint256"}],"stateMutability":"view"},{"type":"function","name":"decimals","inputs":[],"outputs":[{"name":"","type":"uint8","internalType":"uint8"}],"stateMutability":"view"},{"type":"function","name":"deposit","inputs":[{"name":"assets","type":"uint256","internalType":"uint256"},{"name":"receiver","type":"address","internalType":"address"}],"outputs":[{"name":"","type":"uint256","internalType":"uint256"}],"stateMutability":"nonpayable"},{"type":"function","name":"execute","inputs":[{"name":"target","type":"address","internalType":"address"},{"name":"data","type":"bytes","internalType":"bytes"}],"outputs":[{"name":"","type":"bool","internalType":"bool"},{"name":"","type":"bytes","internalType":"bytes"}],"stateMutability":"payable"},{"type":"function","name":"fee","inputs":[],"outputs":[{"name":"","type":"uint256","internalType":"uint256"}],"stateMutability":"view"},{"type":"function","name":"fractionalReserve","inputs":[],"outputs":[{"name":"","type":"uint256","internalType":"uint256"}],"stateMutability":"view"},{"type":"function","name":"isInitialized","inputs":[],"outputs":[{"name":"state","type":"bool","internalType":"bool"}],"stateMutability":"view"},{"type":"function","name":"maxDeposit","inputs":[{"name":"","type":"address","internalType":"address"}],"outputs":[{"name":"","type":"uint256","internalType":"uint256"}],"stateMutability":"view"},{"type":"function","name":"maxMint","inputs":[{"name":"","type":"address","internalType":"address"}],"outputs":[{"name":"","type":"uint256","internalType":"uint256"}],"stateMutability":"view"},{"type":"function","name":"maxRedeem","inputs":[{"name":"owner","type":"address","internalType":"address"}],"outputs":[{"name":"","type":"uint256","internalType":"uint256"}],"stateMutability":"view"},{"type":"function","name":"maxWithdraw","inputs":[{"name":"owner","type":"address","internalType":"address"}],"outputs":[{"name":"","type":"uint256","internalType":"uint256"}],"stateMutability":"view"},{"type":"function","name":"mint","inputs":[{"name":"shares","type":"uint256","internalType":"uint256"},{"name":"receiver","type":"address","internalType":"address"}],"outputs":[{"name":"","type":"uint256","internalType":"uint256"}],"stateMutability":"nonpayable"},{"type":"function","name":"name","inputs":[],"outputs":[{"name":"","type":"string","internalType":"string"}],"stateMutability":"view"},{"type":"function","name":"owner","inputs":[],"outputs":[{"name":"","type":"address","internalType":"address"}],"stateMutability":"view"},{"type":"function","name":"previewDeposit","inputs":[{"name":"assets","type":"uint256","internalType":"uint256"}],"outputs":[{"name":"","type":"uint256","internalType":"uint256"}],"stateMutability":"view"},{"type":"function","name":"previewMint","inputs":[{"name":"shares","type":"uint256","internalType":"uint256"}],"outputs":[{"name":"","type":"uint256","internalType":"uint256"}],"stateMutability":"view"},{"type":"function","name":"previewRedeem","inputs":[{"name":"shares","type":"uint256","internalType":"uint256"}],"outputs":[{"name":"","type":"uint256","internalType":"uint256"}],"stateMutability":"view"},{"type":"function","name":"previewWithdraw","inputs":[{"name":"assets","type":"uint256","internalType":"uint256"}],"outputs":[{"name":"","type":"uint256","internalType":"uint256"}],"stateMutability":"view"},{"type":"function","name":"redeem","inputs":[{"name":"shares","type":"uint256","internalType":"uint256"},{"name":"receiver","type":"address","internalType":"address"},{"name":"owner","type":"address","internalType":"address"}],"outputs":[{"name":"","type":"uint256","internalType":"uint256"}],"stateMutability":"nonpayable"},{"type":"function","name":"renounceOwnership","inputs":[],"outputs":[],"stateMutability":"nonpayable"},{"type":"function","name":"symbol","inputs":[],"outputs":[{"name":"","type":"string","internalType":"string"}],"stateMutability":"view"},{"type":"function","name":"totalAssets","inputs":[],"outputs":[{"name":"","type":"uint256","internalType":"uint256"}],"stateMutability":"view"},{"type":"function","name":"totalSupply","inputs":[],"outputs":[{"name":"","type":"uint256","internalType":"uint256"}],"stateMutability":"view"},{"type":"function","name":"transfer","inputs":[{"name":"to","type":"address","internalType":"address"},{"name":"value","type":"uint256","internalType":"uint256"}],"outputs":[{"name":"","type":"bool","internalType":"bool"}],"stateMutability":"nonpayable"},{"type":"function","name":"transferFrom","inputs":[{"name":"from","type":"address","internalType":"address"},{"name":"to","type":"address","internalType":"address"},{"name":"value","type":"uint256","internalType":"uint256"}],"outputs":[{"name":"","type":"bool","internalType":"bool"}],"stateMutability":"nonpayable"},{"type":"function","name":"transferOwnership","inputs":[{"name":"newOwner","type":"address","internalType":"address"}],"outputs":[],"stateMutability":"nonpayable"},{"type":"function","name":"withdraw","inputs":[{"name":"assets","type":"uint256","internalType":"uint256"},{"name":"receiver","type":"address","internalType":"address"},{"name":"owner","type":"address","internalType":"address"}],"outputs":[{"name":"","type":"uint256","internalType":"uint256"}],"stateMutability":"nonpayable"},{"type":"event","name":"Approval","inputs":[{"name":"owner","type":"address","indexed":true,"internalType":"address"},{"name":"spender","type":"address","indexed":true,"internalType":"address"},{"name":"value","type":"uint256","indexed":false,"internalType":"uint256"}],"anonymous":false},{"type":"event","name":"Deposit","inputs":[{"name":"sender","type":"address","indexed":true,"internalType":"address"},{"name":"owner","type":"address","indexed":true,"internalType":"address"},{"name":"assets","type":"uint256","indexed":false,"internalType":"uint256"},{"name":"shares","type":"uint256","indexed":false,"internalType":"uint256"}],"anonymous":false},{"type":"event","name":"OwnershipTransferred","inputs":[{"name":"previousOwner","type":"address","indexed":true,"internalType":"address"},{"name":"newOwner","type":"address","indexed":true,"internalType":"address"}],"anonymous":false},{"type":"event","name":"Transfer","inputs":[{"name":"from","type":"address","indexed":true,"internalType":"address"},{"name":"to","type":"address","indexed":true,"internalType":"address"},{"name":"value","type":"uint256","indexed":false,"internalType":"uint256"}],"anonymous":false},{"type":"event","name":"Withdraw","inputs":[{"name":"sender","type":"address","indexed":true,"internalType":"address"},{"name":"receiver","type":"address","indexed":true,"internalType":"address"},{"name":"owner","type":"address","indexed":true,"internalType":"address"},{"name":"assets","type":"uint256","indexed":false,"internalType":"uint256"},{"name":"shares","type":"uint256","indexed":false,"internalType":"uint256"}],"anonymous":false},{"type":"error","name":"AddressEmptyCode","inputs":[{"name":"target","type":"address","internalType":"address"}]},{"type":"error","name":"AddressInsufficientBalance","inputs":[{"name":"account","type":"address","internalType":"address"}]},{"type":"error","name":"ERC20InsufficientAllowance","inputs":[{"name":"spender","type":"address","internalType":"address"},{"name":"allowance","type":"uint256","internalType":"uint256"},{"name":"needed","type":"uint256","internalType":"uint256"}]},{"type":"error","name":"ERC20InsufficientBalance","inputs":[{"name":"sender","type":"address","internalType":"address"},{"name":"balance","type":"uint256","internalType":"uint256"},{"name":"needed","type":"uint256","internalType":"uint256"}]},{"type":"error","name":"ERC20InvalidApprover","inputs":[{"name":"approver","type":"address","internalType":"address"}]},{"type":"error","name":"ERC20InvalidReceiver","inputs":[{"name":"receiver","type":"address","internalType":"address"}]},{"type":"error","name":"ERC20InvalidSender","inputs":[{"name":"sender","type":"address","internalType":"address"}]},{"type":"error","name":"ERC20InvalidSpender","inputs":[{"name":"spender","type":"address","internalType":"address"}]},{"type":"error","name":"ERC4626ExceededMaxDeposit","inputs":[{"name":"receiver","type":"address","internalType":"address"},{"name":"assets","type":"uint256","internalType":"uint256"},{"name":"max","type":"uint256","internalType":"uint256"}]},{"type":"error","name":"ERC4626ExceededMaxMint","inputs":[{"name":"receiver","type":"address","internalType":"address"},{"name":"shares","type":"uint256","internalType":"uint256"},{"name":"max","type":"uint256","internalType":"uint256"}]},{"type":"error","name":"ERC4626ExceededMaxRedeem","inputs":[{"name":"owner","type":"address","internalType":"address"},{"name":"shares","type":"uint256","internalType":"uint256"},{"name":"max","type":"uint256","internalType":"uint256"}]},{"type":"error","name":"ERC4626ExceededMaxWithdraw","inputs":[{"name":"owner","type":"address","internalType":"address"},{"name":"assets","type":"uint256","internalType":"uint256"},{"name":"max","type":"uint256","internalType":"uint256"}]},{"type":"error","name":"FailedInnerCall","inputs":[]},{"type":"error","name":"MathOverflowedMulDiv","inputs":[]},{"type":"error","name":"OwnableInvalidOwner","inputs":[{"name":"owner","type":"address","internalType":"address"}]},{"type":"error","name":"OwnableUnauthorizedAccount","inputs":[{"name":"account","type":"address","internalType":"address"}]},{"type":"error","name":"SafeERC20FailedOperation","inputs":[{"name":"token","type":"address","internalType":"address"}]}],"bytecode":{"object":"0x60c06040526032600755601e6008553480156200001b57600080fd5b506040516200249d3803806200249d8339810160408190526200003e91620004ca565b808484846003620000508382620005ed565b5060046200005f8282620005ed565b50505060008062000076836200012460201b60201c565b9150915081620000885760126200008a565b805b60ff1660a05250506001600160a01b039081166080528116620000c857604051631e4fbdf760e01b8152600060048201526024015b60405180910390fd5b620000d38162000209565b506200010761dead620000e56200025b565b620000f290600a620007ce565b6200010190620186a0620007e6565b62000273565b5050600a80546001600160a01b03191633179055506200086a9050565b60408051600481526024810182526020810180516001600160e01b031663313ce56760e01b17905290516000918291829182916001600160a01b038716916200016d9162000800565b600060405180830381855afa9150503d8060008114620001aa576040519150601f19603f3d011682016040523d82523d6000602084013e620001af565b606091505b5091509150818015620001c457506020815110155b15620001fc57600081806020019051810190620001e291906200081e565b905060ff8111620001fa576001969095509350505050565b505b5060009485945092505050565b600680546001600160a01b038381166001600160a01b0319831681179093556040519116919082907f8be0079c531659141344cd1fd0a4f28419497f9722a3daafe3b4186f6b6457e090600090a35050565b6000600860a0516200026e919062000838565b905090565b6001600160a01b0382166200029f5760405163ec442f0560e01b815260006004820152602401620000bf565b620002ad60008383620002b1565b5050565b6001600160a01b038316620002e0578060026000828254620002d4919062000854565b90915550620003549050565b6001600160a01b03831660009081526020819052604090205481811015620003355760405163391434e360e21b81526001600160a01b03851660048201526024810182905260448101839052606401620000bf565b6001600160a01b03841660009081526020819052604090209082900390555b6001600160a01b038216620003725760028054829003905562000391565b6001600160a01b03821660009081526020819052604090208054820190555b816001600160a01b0316836001600160a01b03167fddf252ad1be2c89b69c2b068fc378daa952ba7f163c4a11628f55a4df523b3ef83604051620003d791815260200190565b60405180910390a3505050565b6001600160a01b0381168114620003fa57600080fd5b50565b634e487b7160e01b600052604160045260246000fd5b60005b838110156200043057818101518382015260200162000416565b50506000910152565b600082601f8301126200044b57600080fd5b81516001600160401b0380821115620004685762000468620003fd565b604051601f8301601f19908116603f01168101908282118183101715620004935762000493620003fd565b81604052838152866020858801011115620004ad57600080fd5b620004c084602083016020890162000413565b9695505050505050565b60008060008060808587031215620004e157600080fd5b8451620004ee81620003e4565b60208601519094506001600160401b03808211156200050c57600080fd5b6200051a8883890162000439565b945060408701519150808211156200053157600080fd5b50620005408782880162000439565b92505060608501516200055381620003e4565b939692955090935050565b600181811c908216806200057357607f821691505b6020821081036200059457634e487b7160e01b600052602260045260246000fd5b50919050565b601f821115620005e857600081815260208120601f850160051c81016020861015620005c35750805b601f850160051c820191505b81811015620005e457828155600101620005cf565b5050505b505050565b81516001600160401b03811115620006095762000609620003fd565b62000621816200061a84546200055e565b846200059a565b602080601f831160018114620006595760008415620006405750858301515b600019600386901b1c1916600185901b178555620005e4565b600085815260208120601f198616915b828110156200068a5788860151825594840194600190910190840162000669565b5085821015620006a95787850151600019600388901b60f8161c191681555b5050505050600190811b01905550565b634e487b7160e01b600052601160045260246000fd5b600181815b8085111562000710578160001904821115620006f457620006f4620006b9565b808516156200070257918102915b93841c9390800290620006d4565b509250929050565b6000826200072957506001620007c8565b816200073857506000620007c8565b81600181146200075157600281146200075c576200077c565b6001915050620007c8565b60ff841115620007705762000770620006b9565b50506001821b620007c8565b5060208310610133831016604e8410600b8410161715620007a1575081810a620007c8565b620007ad8383620006cf565b8060001904821115620007c457620007c4620006b9565b0290505b92915050565b6000620007df60ff84168362000718565b9392505050565b8082028115828204841417620007c857620007c8620006b9565b600082516200081481846020870162000413565b9190910192915050565b6000602082840312156200083157600080fd5b5051919050565b60ff8181168382160190811115620007c857620007c8620006b9565b80820180821115620007c857620007c8620006b9565b60805160a051611bea620008b360003960006108c001526000818161038b01528181610924015281816109a1015281816112400152818161131201526113d60152611bea6000f3fe6080604052600436106102045760003560e01c8063715018a611610118578063c63d75b6116100a0578063dd62ed3e1161006f578063dd62ed3e146105da578063ddca3f4314610620578063ef8b30f714610636578063f2fde38b14610656578063f77c47911461067657600080fd5b8063c63d75b6146103e2578063c6e6f5921461057a578063ce96cb771461059a578063d905777e146105ba57600080fd5b8063a9059cbb116100e7578063a9059cbb146104e4578063aad58d2714610504578063b3d7f6b91461051a578063b460af941461053a578063ba0876521461055a57600080fd5b8063715018a61461047a5780638da5cb5b1461049157806394bf804d146104af57806395d89b41146104cf57600080fd5b806323b872dd1161019b578063392e53cd1161016a578063392e53cd146103c3578063402d267d146103e25780634cdad506146104045780636e553f651461042457806370a082311461044457600080fd5b806323b872dd14610315578063313ce56714610335578063363850ac1461035c57806338d52e0f1461037c57600080fd5b80630a28a477116101d75780630a28a4771461029f5780630ebc2d23146102bf57806318160ddd146102df5780631cff79cd146102f457600080fd5b806301e1d1141461020957806306fdde031461022d57806307a2d13a1461024f578063095ea7b31461026f575b600080fd5b34801561021557600080fd5b506005545b6040519081526020015b60405180910390f35b34801561023957600080fd5b50610242610696565b6040516102249190611730565b34801561025b57600080fd5b5061021a61026a366004611743565b610728565b34801561027b57600080fd5b5061028f61028a366004611773565b61073b565b6040519015158152602001610224565b3480156102ab57600080fd5b5061021a6102ba366004611743565b610753565b3480156102cb57600080fd5b5061028f6102da366004611743565b61077a565b3480156102eb57600080fd5b5060025461021a565b61030761030236600461179d565b6107de565b604051610224929190611820565b34801561032157600080fd5b5061028f61033036600461183b565b610893565b34801561034157600080fd5b5061034a6108b7565b60405160ff9091168152602001610224565b34801561036857600080fd5b5061028f61037736600461183b565b6108e9565b34801561038857600080fd5b507f00000000000000000000000000000000000000000000000000000000000000005b6040516001600160a01b039091168152602001610224565b3480156103cf57600080fd5b50600a54600160a01b900460ff1661028f565b3480156103ee57600080fd5b5061021a6103fd366004611877565b5060001990565b34801561041057600080fd5b5061021a61041f366004611743565b6109f7565b34801561043057600080fd5b5061021a61043f366004611892565b610a18565b34801561045057600080fd5b5061021a61045f366004611877565b6001600160a01b031660009081526020819052604090205490565b34801561048657600080fd5b5061048f610a58565b005b34801561049d57600080fd5b506006546001600160a01b03166103ab565b3480156104bb57600080fd5b5061021a6104ca366004611892565b610a6c565b3480156104db57600080fd5b50610242610aa4565b3480156104f057600080fd5b5061028f6104ff366004611773565b610ab3565b34801561051057600080fd5b5061021a60085481565b34801561052657600080fd5b5061021a610535366004611743565b610ac1565b34801561054657600080fd5b5061021a6105553660046118be565b610ae2565b34801561056657600080fd5b5061021a6105753660046118be565b610b24565b34801561058657600080fd5b5061021a610595366004611743565b610b5d565b3480156105a657600080fd5b5061021a6105b5366004611877565b610b6a565b3480156105c657600080fd5b5061021a6105d5366004611877565b610b8e565b3480156105e657600080fd5b5061021a6105f53660046118fa565b6001600160a01b03918216600090815260016020908152604080832093909416825291909152205490565b34801561062c57600080fd5b5061021a60075481565b34801561064257600080fd5b5061021a610651366004611743565b610bac565b34801561066257600080fd5b5061048f610671366004611877565b610bc7565b34801561068257600080fd5b50600a546103ab906001600160a01b031681565b6060600380546106a590611924565b80601f01602080910402602001604051908101604052809291908181526020018280546106d190611924565b801561071e5780601f106106f35761010080835404028352916020019161071e565b820191906000526020600020905b81548152906001019060200180831161070157829003601f168201915b5050505050905090565b6000610735826000610c05565b92915050565b600033610749818585610c40565b5060019392505050565b60008061075f83610c52565b905061077361076e8285611974565b610c6c565b9392505050565b600a54600090600160a01b900460ff166107af5760405162461bcd60e51b81526004016107a690611987565b60405180910390fd5b336000908152602081905260409020548211156107cb57600080fd5b6107d53383610c79565b5060015b919050565b600a546000906060906001600160a01b031633146107fb57600080fd5b600a54600160a01b900460ff166108245760405162461bcd60e51b81526004016107a690611987565b600080866001600160a01b03163487876040516108429291906119b1565b60006040518083038185875af1925050503d806000811461087f576040519150601f19603f3d011682016040523d82523d6000602084013e610884565b606091505b50909890975095505050505050565b6000336108a1858285610cb3565b6108ac858585610d1e565b506001949350505050565b60006108e460087f00000000000000000000000000000000000000000000000000000000000000006119c1565b905090565b600a546000906001600160a01b0316331461090357600080fd5b6040516370a0823160e01b81526001600160a01b03848116600483015283917f0000000000000000000000000000000000000000000000000000000000000000909116906370a0823190602401602060405180830381865afa15801561096d573d6000803e3d6000fd5b505050506040513d601f19601f8201168201806040525081019061099191906119da565b101561099c57600080fd5b6109c87f0000000000000000000000000000000000000000000000000000000000000000843085610d7d565b6109d28285610a18565b5050600a805460ff60a01b1916600160a01b90811791829055900460ff169392505050565b600080610a0383610728565b9050610a0e81610de4565b61077390826119f3565b600a54600090600160a01b900460ff16610a445760405162461bcd60e51b81526004016107a690611987565b6000610a508484610e0b565b949350505050565b610a60610e29565b610a6a6000610e56565b565b600a54600090600160a01b900460ff16610a985760405162461bcd60e51b81526004016107a690611987565b6000610a508484610ea8565b6060600480546106a590611924565b600033610749818585610d1e565b600080610acd83610ec6565b9050610ad881610c52565b6107739082611974565b600a54600090600160a01b900460ff16610b0e5760405162461bcd60e51b81526004016107a690611987565b6000610b1b858585610ed3565b95945050505050565b600a54600090600160a01b900460ff16610b505760405162461bcd60e51b81526004016107a690611987565b6000610b1b858585610f22565b6000610735826000610f71565b6001600160a01b038116600090815260208190526040812054610735906000610c05565b6001600160a01b038116600090815260208190526040812054610735565b600080610bb883610de4565b905061077361059582856119f3565b610bcf610e29565b6001600160a01b038116610bf957604051631e4fbdf760e01b8152600060048201526024016107a6565b610c0281610e56565b50565b6000610773610c1360055490565b610c1e906001611974565b610c2a6008600a611aea565b600254610c379190611974565b85919085610f9d565b610c4d8383836001610fec565b505050565b6000610735610c6060075490565b83906127106001610f9d565b6000610735826001610f71565b6001600160a01b038216610ca357604051634b637e8f60e11b8152600060048201526024016107a6565b610caf826000836110c1565b5050565b6001600160a01b038381166000908152600160209081526040808320938616835292905220546000198114610d185781811015610d0957828183604051637dc7a0d960e11b81526004016107a693929190611af9565b610d1884848484036000610fec565b50505050565b6001600160a01b038316610d4857604051634b637e8f60e11b8152600060048201526024016107a6565b6001600160a01b038216610d725760405163ec442f0560e01b8152600060048201526024016107a6565b610c4d8383836110c1565b6040516001600160a01b038481166024830152838116604483015260648201839052610d189186918216906323b872dd906084015b604051602081830303815290604052915060e01b6020820180516001600160e01b0383818316178352505050506111d8565b6000610735610df260075490565b600754610e0190612710611974565b8491906001610f9d565b60006000196000610e1b85610bac565b9050610a503385878461123b565b6006546001600160a01b03163314610a6a5760405163118cdaa760e01b81523360048201526024016107a6565b600680546001600160a01b038381166001600160a01b0319831681179093556040519116919082907f8be0079c531659141344cd1fd0a4f28419497f9722a3daafe3b4186f6b6457e090600090a35050565b60006000196000610eb885610ac1565b9050610a503385838861123b565b6000610735826001610c05565b600080610edf83610b6a565b905080851115610f0857828582604051633fa733bb60e21b81526004016107a693929190611af9565b6000610f1386610753565b9050610b1b33868689856112d7565b600080610f2e83610b8e565b905080851115610f5757828582604051632e52afbb60e21b81526004016107a693929190611af9565b6000610f62866109f7565b9050610b1b338686848a6112d7565b6000610773610f826008600a611aea565b600254610f8f9190611974565b600554610c37906001611974565b600080610fab868686611467565b9050610fb68361152b565b8015610fd2575060008480610fcd57610fcd611b1a565b868809115b15610b1b57610fe2600182611974565b9695505050505050565b6001600160a01b0384166110165760405163e602df0560e01b8152600060048201526024016107a6565b6001600160a01b03831661104057604051634a1406b160e11b8152600060048201526024016107a6565b6001600160a01b0380851660009081526001602090815260408083209387168352929052208290558015610d1857826001600160a01b0316846001600160a01b03167f8c5be1e5ebec7d5bd14f71427d1e84f3dd0314c0f7b2291e5b200ac8c7c3b925846040516110b391815260200190565b60405180910390a350505050565b6001600160a01b0383166110ec5780600260008282546110e19190611974565b9091555061114b9050565b6001600160a01b0383166000908152602081905260409020548181101561112c5783818360405163391434e360e21b81526004016107a693929190611af9565b6001600160a01b03841660009081526020819052604090209082900390555b6001600160a01b03821661116757600280548290039055611186565b6001600160a01b03821660009081526020819052604090208054820190555b816001600160a01b0316836001600160a01b03167fddf252ad1be2c89b69c2b068fc378daa952ba7f163c4a11628f55a4df523b3ef836040516111cb91815260200190565b60405180910390a3505050565b60006111ed6001600160a01b03841683611558565b905080516000141580156112125750808060200190518101906112109190611b30565b155b15610c4d57604051635274afe760e01b81526001600160a01b03841660048201526024016107a6565b6112677f0000000000000000000000000000000000000000000000000000000000000000853085610d7d565b81600560008282546112799190611974565b9091555061128990508382611566565b826001600160a01b0316846001600160a01b03167fdcbc1c05240f31ff3ad067ef1ee35ce4997762752e3a095284754544f4c709d784846040516110b3929190918252602082015260400190565b826001600160a01b0316856001600160a01b0316146112fb576112fb838683610cb3565b6040516370a0823160e01b815230600482015282907f00000000000000000000000000000000000000000000000000000000000000006001600160a01b0316906370a0823190602401602060405180830381865afa158015611361573d6000803e3d6000fd5b505050506040513d601f19601f8201168201806040525081019061138591906119da565b10156113c75760405162461bcd60e51b8152602060048201526011602482015270756e61626c6520746f2070726f6365737360781b60448201526064016107a6565b6113d18382610c79565b6113fc7f0000000000000000000000000000000000000000000000000000000000000000858461159c565b816005600082825461140e91906119f3565b909155505060408051838152602081018390526001600160a01b038086169287821692918916917ffbde797d201c681b91056529119e0b02407c7bb96a4a2c75c01fc9667232c8db910160405180910390a45050505050565b600083830281600019858709828110838203039150508060000361149e5783828161149457611494611b1a565b0492505050610773565b8084116114be5760405163227bc15360e01b815260040160405180910390fd5b6000848688096000868103871696879004966002600389028118808a02820302808a02820302808a02820302808a02820302808a02820302808a02909103029181900381900460010186841190950394909402919094039290920491909117919091029150509392505050565b6000600282600381111561154157611541611b52565b61154b9190611b68565b60ff166001149050919050565b6060610773838360006115cd565b6001600160a01b0382166115905760405163ec442f0560e01b8152600060048201526024016107a6565b610caf600083836110c1565b6040516001600160a01b03838116602483015260448201839052610c4d91859182169063a9059cbb90606401610db2565b6060814710156115f25760405163cd78605960e01b81523060048201526024016107a6565b600080856001600160a01b0316848660405161160e9190611b98565b60006040518083038185875af1925050503d806000811461164b576040519150601f19603f3d011682016040523d82523d6000602084013e611650565b606091505b5091509150610fe28683836060826116705761166b826116b7565b610773565b815115801561168757506001600160a01b0384163b155b156116b057604051639996b31560e01b81526001600160a01b03851660048201526024016107a6565b5080610773565b8051156116c75780518082602001fd5b604051630a12f52160e11b815260040160405180910390fd5b60005b838110156116fb5781810151838201526020016116e3565b50506000910152565b6000815180845261171c8160208601602086016116e0565b601f01601f19169290920160200192915050565b6020815260006107736020830184611704565b60006020828403121561175557600080fd5b5035919050565b80356001600160a01b03811681146107d957600080fd5b6000806040838503121561178657600080fd5b61178f8361175c565b946020939093013593505050565b6000806000604084860312156117b257600080fd5b6117bb8461175c565b9250602084013567ffffffffffffffff808211156117d857600080fd5b818601915086601f8301126117ec57600080fd5b8135818111156117fb57600080fd5b87602082850101111561180d57600080fd5b6020830194508093505050509250925092565b8215158152604060208201526000610a506040830184611704565b60008060006060848603121561185057600080fd5b6118598461175c565b92506118676020850161175c565b9150604084013590509250925092565b60006020828403121561188957600080fd5b6107738261175c565b600080604083850312156118a557600080fd5b823591506118b56020840161175c565b90509250929050565b6000806000606084860312156118d357600080fd5b833592506118e36020850161175c565b91506118f16040850161175c565b90509250925092565b6000806040838503121561190d57600080fd5b6119168361175c565b91506118b56020840161175c565b600181811c9082168061193857607f821691505b60208210810361195857634e487b7160e01b600052602260045260246000fd5b50919050565b634e487b7160e01b600052601160045260246000fd5b808201808211156107355761073561195e565b60208082526010908201526f7661756c74206e6f742061637469766560801b604082015260600190565b8183823760009101908152919050565b60ff81811683821601908111156107355761073561195e565b6000602082840312156119ec57600080fd5b5051919050565b818103818111156107355761073561195e565b600181815b80851115611a41578160001904821115611a2757611a2761195e565b80851615611a3457918102915b93841c9390800290611a0b565b509250929050565b600082611a5857506001610735565b81611a6557506000610735565b8160018114611a7b5760028114611a8557611aa1565b6001915050610735565b60ff841115611a9657611a9661195e565b50506001821b610735565b5060208310610133831016604e8410600b8410161715611ac4575081810a610735565b611ace8383611a06565b8060001904821115611ae257611ae261195e565b029392505050565b600061077360ff841683611a49565b6001600160a01b039390931683526020830191909152604082015260600190565b634e487b7160e01b600052601260045260246000fd5b600060208284031215611b4257600080fd5b8151801515811461077357600080fd5b634e487b7160e01b600052602160045260246000fd5b600060ff831680611b8957634e487b7160e01b600052601260045260246000fd5b8060ff84160691505092915050565b60008251611baa8184602087016116e0565b919091019291505056fea264697066735822122056bccc2d86ad925ee7b0385f5061a4e37bc389d4421ecf9952628b02d43470f564736f6c63430008140033","linkReferences":{}},"methodIdentifiers":{"_initializeVault(address,address,uint256)":"363850ac","allowance(address,address)":"dd62ed3e","approve(address,uint256)":"095ea7b3","asset()":"38d52e0f","balanceOf(address)":"70a08231","burnShare(uint256)":"0ebc2d23","controller()":"f77c4791","convertToAssets(uint256)":"07a2d13a","convertToShares(uint256)":"c6e6f592","decimals()":"313ce567","deposit(uint256,address)":"6e553f65","execute(address,bytes)":"1cff79cd","fee()":"ddca3f43","fractionalReserve()":"aad58d27","isInitialized()":"392e53cd","maxDeposit(address)":"402d267d","maxMint(address)":"c63d75b6","maxRedeem(address)":"d905777e","maxWithdraw(address)":"ce96cb77","mint(uint256,address)":"94bf804d","name()":"06fdde03","owner()":"8da5cb5b","previewDeposit(uint256)":"ef8b30f7","previewMint(uint256)":"b3d7f6b9","previewRedeem(uint256)":"4cdad506","previewWithdraw(uint256)":"0a28a477","redeem(uint256,address,address)":"ba087652","renounceOwnership()":"715018a6","symbol()":"95d89b41","totalAssets()":"01e1d114","totalSupply()":"18160ddd","transfer(address,uint256)":"a9059cbb","transferFrom(address,address,uint256)":"23b872dd","transferOwnership(address)":"f2fde38b","withdraw(uint256,address,address)":"b460af94"},"id":50}