{"abi":[{"type":"constructor","inputs":[{"name":"ercAsset","type":"address","internalType":"contract IERC20"},{"name":"lendAsset","type":"address","internalType":"contract IERC20"},{"name":"_avePool","type":"address","internalType":"address"},{"name":"name","type":"string","internalType":"string"},{"name":"symbol","type":"string","internalType":"string"}],"stateMutability":"nonpayable"},{"type":"function","name":"_initializeVault","inputs":[{"name":"sharesTo","type":"address","internalType":"address"},{"name":"depositFrom","type":"address","internalType":"address"},{"name":"assetsToDeposit","type":"uint256","internalType":"uint256"},{"name":"sharesToMint","type":"uint256","internalType":"uint256"}],"outputs":[{"name":"","type":"bool","internalType":"bool"}],"stateMutability":"nonpayable"},{"type":"function","name":"aaveAsset","inputs":[],"outputs":[{"name":"","type":"address","internalType":"contract IERC20"}],"stateMutability":"view"},{"type":"function","name":"aavePool","inputs":[],"outputs":[{"name":"","type":"address","internalType":"contract AAVEv3"}],"stateMutability":"view"},{"type":"function","name":"allowance","inputs":[{"name":"owner","type":"address","internalType":"address"},{"name":"spender","type":"address","internalType":"address"}],"outputs":[{"name":"","type":"uint256","internalType":"uint256"}],"stateMutability":"view"},{"type":"function","name":"approve","inputs":[{"name":"spender","type":"address","internalType":"address"},{"name":"value","type":"uint256","internalType":"uint256"}],"outputs":[{"name":"","type":"bool","internalType":"bool"}],"stateMutability":"nonpayable"},{"type":"function","name":"asset","inputs":[],"outputs":[{"name":"","type":"address","internalType":"address"}],"stateMutability":"view"},{"type":"function","name":"balanceOf","inputs":[{"name":"account","type":"address","internalType":"address"}],"outputs":[{"name":"","type":"uint256","internalType":"uint256"}],"stateMutability":"view"},{"type":"function","name":"burnShare","inputs":[{"name":"shares","type":"uint256","internalType":"uint256"}],"outputs":[{"name":"","type":"bool","internalType":"bool"}],"stateMutability":"nonpayable"},{"type":"function","name":"controller","inputs":[],"outputs":[{"name":"","type":"address","internalType":"address"}],"stateMutability":"view"},{"type":"function","name":"convertToAssets","inputs":[{"name":"shares","type":"uint256","internalType":"uint256"}],"outputs":[{"name":"","type":"uint256","internalType":"uint256"}],"stateMutability":"view"},{"type":"function","name":"convertToShares","inputs":[{"name":"assets","type":"uint256","internalType":"uint256"}],"outputs":[{"name":"","type":"uint256","internalType":"uint256"}],"stateMutability":"view"},{"type":"function","name":"decimals","inputs":[],"outputs":[{"name":"","type":"uint8","internalType":"uint8"}],"stateMutability":"view"},{"type":"function","name":"deposit","inputs":[{"name":"assets","type":"uint256","internalType":"uint256"},{"name":"receiver","type":"address","internalType":"address"}],"outputs":[{"name":"","type":"uint256","internalType":"uint256"}],"stateMutability":"nonpayable"},{"type":"function","name":"execute","inputs":[{"name":"target","type":"address","internalType":"address"},{"name":"data","type":"bytes","internalType":"bytes"}],"outputs":[{"name":"","type":"bool","internalType":"bool"},{"name":"","type":"bytes","internalType":"bytes"}],"stateMutability":"payable"},{"type":"function","name":"fee","inputs":[],"outputs":[{"name":"","type":"uint256","internalType":"uint256"}],"stateMutability":"view"},{"type":"function","name":"isInitialized","inputs":[],"outputs":[{"name":"state","type":"bool","internalType":"bool"}],"stateMutability":"view"},{"type":"function","name":"maxDeposit","inputs":[{"name":"","type":"address","internalType":"address"}],"outputs":[{"name":"","type":"uint256","internalType":"uint256"}],"stateMutability":"view"},{"type":"function","name":"maxMint","inputs":[{"name":"","type":"address","internalType":"address"}],"outputs":[{"name":"","type":"uint256","internalType":"uint256"}],"stateMutability":"view"},{"type":"function","name":"maxRedeem","inputs":[{"name":"owner","type":"address","internalType":"address"}],"outputs":[{"name":"","type":"uint256","internalType":"uint256"}],"stateMutability":"view"},{"type":"function","name":"maxWithdraw","inputs":[{"name":"owner","type":"address","internalType":"address"}],"outputs":[{"name":"","type":"uint256","internalType":"uint256"}],"stateMutability":"view"},{"type":"function","name":"mint","inputs":[{"name":"shares","type":"uint256","internalType":"uint256"},{"name":"receiver","type":"address","internalType":"address"}],"outputs":[{"name":"","type":"uint256","internalType":"uint256"}],"stateMutability":"nonpayable"},{"type":"function","name":"name","inputs":[],"outputs":[{"name":"","type":"string","internalType":"string"}],"stateMutability":"view"},{"type":"function","name":"owner","inputs":[],"outputs":[{"name":"","type":"address","internalType":"address"}],"stateMutability":"view"},{"type":"function","name":"previewDeposit","inputs":[{"name":"assets","type":"uint256","internalType":"uint256"}],"outputs":[{"name":"","type":"uint256","internalType":"uint256"}],"stateMutability":"view"},{"type":"function","name":"previewMint","inputs":[{"name":"shares","type":"uint256","internalType":"uint256"}],"outputs":[{"name":"","type":"uint256","internalType":"uint256"}],"stateMutability":"view"},{"type":"function","name":"previewRedeem","inputs":[{"name":"shares","type":"uint256","internalType":"uint256"}],"outputs":[{"name":"","type":"uint256","internalType":"uint256"}],"stateMutability":"view"},{"type":"function","name":"previewWithdraw","inputs":[{"name":"assets","type":"uint256","internalType":"uint256"}],"outputs":[{"name":"","type":"uint256","internalType":"uint256"}],"stateMutability":"view"},{"type":"function","name":"redeem","inputs":[{"name":"shares","type":"uint256","internalType":"uint256"},{"name":"receiver","type":"address","internalType":"address"},{"name":"owner","type":"address","internalType":"address"}],"outputs":[{"name":"","type":"uint256","internalType":"uint256"}],"stateMutability":"nonpayable"},{"type":"function","name":"renounceOwnership","inputs":[],"outputs":[],"stateMutability":"nonpayable"},{"type":"function","name":"setFeeReciever","inputs":[{"name":"to","type":"address","internalType":"address"}],"outputs":[],"stateMutability":"nonpayable"},{"type":"function","name":"setManager","inputs":[{"name":"to","type":"address","internalType":"address"}],"outputs":[],"stateMutability":"nonpayable"},{"type":"function","name":"symbol","inputs":[],"outputs":[{"name":"","type":"string","internalType":"string"}],"stateMutability":"view"},{"type":"function","name":"totalAssets","inputs":[],"outputs":[{"name":"","type":"uint256","internalType":"uint256"}],"stateMutability":"view"},{"type":"function","name":"totalSupply","inputs":[],"outputs":[{"name":"","type":"uint256","internalType":"uint256"}],"stateMutability":"view"},{"type":"function","name":"transfer","inputs":[{"name":"to","type":"address","internalType":"address"},{"name":"value","type":"uint256","internalType":"uint256"}],"outputs":[{"name":"","type":"bool","internalType":"bool"}],"stateMutability":"nonpayable"},{"type":"function","name":"transferFrom","inputs":[{"name":"from","type":"address","internalType":"address"},{"name":"to","type":"address","internalType":"address"},{"name":"value","type":"uint256","internalType":"uint256"}],"outputs":[{"name":"","type":"bool","internalType":"bool"}],"stateMutability":"nonpayable"},{"type":"function","name":"transferOwnership","inputs":[{"name":"newOwner","type":"address","internalType":"address"}],"outputs":[],"stateMutability":"nonpayable"},{"type":"function","name":"withdraw","inputs":[{"name":"assets","type":"uint256","internalType":"uint256"},{"name":"receiver","type":"address","internalType":"address"},{"name":"owner","type":"address","internalType":"address"}],"outputs":[{"name":"","type":"uint256","internalType":"uint256"}],"stateMutability":"nonpayable"},{"type":"event","name":"Approval","inputs":[{"name":"owner","type":"address","indexed":true,"internalType":"address"},{"name":"spender","type":"address","indexed":true,"internalType":"address"},{"name":"value","type":"uint256","indexed":false,"internalType":"uint256"}],"anonymous":false},{"type":"event","name":"Deposit","inputs":[{"name":"sender","type":"address","indexed":true,"internalType":"address"},{"name":"owner","type":"address","indexed":true,"internalType":"address"},{"name":"assets","type":"uint256","indexed":false,"internalType":"uint256"},{"name":"shares","type":"uint256","indexed":false,"internalType":"uint256"}],"anonymous":false},{"type":"event","name":"OwnershipTransferred","inputs":[{"name":"previousOwner","type":"address","indexed":true,"internalType":"address"},{"name":"newOwner","type":"address","indexed":true,"internalType":"address"}],"anonymous":false},{"type":"event","name":"Transfer","inputs":[{"name":"from","type":"address","indexed":true,"internalType":"address"},{"name":"to","type":"address","indexed":true,"internalType":"address"},{"name":"value","type":"uint256","indexed":false,"internalType":"uint256"}],"anonymous":false},{"type":"event","name":"Withdraw","inputs":[{"name":"sender","type":"address","indexed":true,"internalType":"address"},{"name":"receiver","type":"address","indexed":true,"internalType":"address"},{"name":"owner","type":"address","indexed":true,"internalType":"address"},{"name":"assets","type":"uint256","indexed":false,"internalType":"uint256"},{"name":"shares","type":"uint256","indexed":false,"internalType":"uint256"}],"anonymous":false},{"type":"error","name":"AddressEmptyCode","inputs":[{"name":"target","type":"address","internalType":"address"}]},{"type":"error","name":"AddressInsufficientBalance","inputs":[{"name":"account","type":"address","internalType":"address"}]},{"type":"error","name":"ERC20InsufficientAllowance","inputs":[{"name":"spender","type":"address","internalType":"address"},{"name":"allowance","type":"uint256","internalType":"uint256"},{"name":"needed","type":"uint256","internalType":"uint256"}]},{"type":"error","name":"ERC20InsufficientBalance","inputs":[{"name":"sender","type":"address","internalType":"address"},{"name":"balance","type":"uint256","internalType":"uint256"},{"name":"needed","type":"uint256","internalType":"uint256"}]},{"type":"error","name":"ERC20InvalidApprover","inputs":[{"name":"approver","type":"address","internalType":"address"}]},{"type":"error","name":"ERC20InvalidReceiver","inputs":[{"name":"receiver","type":"address","internalType":"address"}]},{"type":"error","name":"ERC20InvalidSender","inputs":[{"name":"sender","type":"address","internalType":"address"}]},{"type":"error","name":"ERC20InvalidSpender","inputs":[{"name":"spender","type":"address","internalType":"address"}]},{"type":"error","name":"ERC4626ExceededMaxDeposit","inputs":[{"name":"receiver","type":"address","internalType":"address"},{"name":"assets","type":"uint256","internalType":"uint256"},{"name":"max","type":"uint256","internalType":"uint256"}]},{"type":"error","name":"ERC4626ExceededMaxMint","inputs":[{"name":"receiver","type":"address","internalType":"address"},{"name":"shares","type":"uint256","internalType":"uint256"},{"name":"max","type":"uint256","internalType":"uint256"}]},{"type":"error","name":"ERC4626ExceededMaxRedeem","inputs":[{"name":"owner","type":"address","internalType":"address"},{"name":"shares","type":"uint256","internalType":"uint256"},{"name":"max","type":"uint256","internalType":"uint256"}]},{"type":"error","name":"ERC4626ExceededMaxWithdraw","inputs":[{"name":"owner","type":"address","internalType":"address"},{"name":"assets","type":"uint256","internalType":"uint256"},{"name":"max","type":"uint256","internalType":"uint256"}]},{"type":"error","name":"FailedInnerCall","inputs":[]},{"type":"error","name":"MathOverflowedMulDiv","inputs":[]},{"type":"error","name":"OwnableInvalidOwner","inputs":[{"name":"owner","type":"address","internalType":"address"}]},{"type":"error","name":"OwnableUnauthorizedAccount","inputs":[{"name":"account","type":"address","internalType":"address"}]},{"type":"error","name":"SafeERC20FailedOperation","inputs":[{"name":"token","type":"address","internalType":"address"}]}],"bytecode":{"object":"0x60e0604052603260075534801562000015575f80fd5b50604051620046643803806200466483398181016040528101906200003b91906200069a565b33858585338686816003908162000053919062000993565b50806004908162000065919062000993565b5050505f806200007b866200029c60201b60201c565b91509150816200008d5760126200008f565b805b60ff1660a08160ff16815250508573ffffffffffffffffffffffffffffffffffffffff1660808173ffffffffffffffffffffffffffffffffffffffff16815250508360055f6101000a81548173ffffffffffffffffffffffffffffffffffffffff021916908373ffffffffffffffffffffffffffffffffffffffff1602179055508460065f6101000a81548173ffffffffffffffffffffffffffffffffffffffff021916908373ffffffffffffffffffffffffffffffffffffffff1602179055505f8062000163876200029c60201b60201c565b91509150816200017557601262000177565b805b60ff1660c08160ff16815250508460085f6101000a81548173ffffffffffffffffffffffffffffffffffffffff021916908373ffffffffffffffffffffffffffffffffffffffff16021790555050505050505050505f73ffffffffffffffffffffffffffffffffffffffff168173ffffffffffffffffffffffffffffffffffffffff16036200023f575f6040517f1e4fbdf700000000000000000000000000000000000000000000000000000000815260040162000236919062000a88565b60405180910390fd5b6200025081620003af60201b60201c565b5033600a5f6101000a81548173ffffffffffffffffffffffffffffffffffffffff021916908373ffffffffffffffffffffffffffffffffffffffff160217905550505050505062000b64565b5f805f808473ffffffffffffffffffffffffffffffffffffffff1660405160240160405160208183030381529060405263313ce56760e01b6020820180517bffffffffffffffffffffffffffffffffffffffffffffffffffffffff838183161783525050505060405162000311919062000aed565b5f60405180830381855afa9150503d805f81146200034b576040519150601f19603f3d011682016040523d82523d5f602084013e62000350565b606091505b50915091508180156200036557506020815110155b15620003a1575f8180602001905181019062000382919062000b34565b905060ff801681116200039f5760018194509450505050620003aa565b505b5f809350935050505b915091565b5f60095f9054906101000a900473ffffffffffffffffffffffffffffffffffffffff1690508160095f6101000a81548173ffffffffffffffffffffffffffffffffffffffff021916908373ffffffffffffffffffffffffffffffffffffffff1602179055508173ffffffffffffffffffffffffffffffffffffffff168173ffffffffffffffffffffffffffffffffffffffff167f8be0079c531659141344cd1fd0a4f28419497f9722a3daafe3b4186f6b6457e060405160405180910390a35050565b5f604051905090565b5f80fd5b5f80fd5b5f73ffffffffffffffffffffffffffffffffffffffff82169050919050565b5f620004ae8262000483565b9050919050565b5f620004c182620004a2565b9050919050565b620004d381620004b5565b8114620004de575f80fd5b50565b5f81519050620004f181620004c8565b92915050565b6200050281620004a2565b81146200050d575f80fd5b50565b5f815190506200052081620004f7565b92915050565b5f80fd5b5f80fd5b5f601f19601f8301169050919050565b7f4e487b71000000000000000000000000000000000000000000000000000000005f52604160045260245ffd5b62000576826200052e565b810181811067ffffffffffffffff821117156200059857620005976200053e565b5b80604052505050565b5f620005ac62000472565b9050620005ba82826200056b565b919050565b5f67ffffffffffffffff821115620005dc57620005db6200053e565b5b620005e7826200052e565b9050602081019050919050565b5f5b8381101562000613578082015181840152602081019050620005f6565b5f8484015250505050565b5f620006346200062e84620005bf565b620005a1565b9050828152602081018484840111156200065357620006526200052a565b5b62000660848285620005f4565b509392505050565b5f82601f8301126200067f576200067e62000526565b5b8151620006918482602086016200061e565b91505092915050565b5f805f805f60a08688031215620006b657620006b56200047b565b5b5f620006c588828901620004e1565b9550506020620006d888828901620004e1565b9450506040620006eb8882890162000510565b935050606086015167ffffffffffffffff8111156200070f576200070e6200047f565b5b6200071d8882890162000668565b925050608086015167ffffffffffffffff8111156200074157620007406200047f565b5b6200074f8882890162000668565b9150509295509295909350565b5f81519050919050565b7f4e487b71000000000000000000000000000000000000000000000000000000005f52602260045260245ffd5b5f6002820490506001821680620007ab57607f821691505b602082108103620007c157620007c062000766565b5b50919050565b5f819050815f5260205f209050919050565b5f6020601f8301049050919050565b5f82821b905092915050565b5f60088302620008257fffffffffffffffffffffffffffffffffffffffffffffffffffffffffffffffff82620007e8565b620008318683620007e8565b95508019841693508086168417925050509392505050565b5f819050919050565b5f819050919050565b5f6200087b620008756200086f8462000849565b62000852565b62000849565b9050919050565b5f819050919050565b62000896836200085b565b620008ae620008a58262000882565b848454620007f4565b825550505050565b5f90565b620008c4620008b6565b620008d18184846200088b565b505050565b5b81811015620008f857620008ec5f82620008ba565b600181019050620008d7565b5050565b601f82111562000947576200091181620007c7565b6200091c84620007d9565b810160208510156200092c578190505b620009446200093b85620007d9565b830182620008d6565b50505b505050565b5f82821c905092915050565b5f620009695f19846008026200094c565b1980831691505092915050565b5f62000983838362000958565b9150826002028217905092915050565b6200099e826200075c565b67ffffffffffffffff811115620009ba57620009b96200053e565b5b620009c6825462000793565b620009d3828285620008fc565b5f60209050601f83116001811462000a09575f8415620009f4578287015190505b62000a00858262000976565b86555062000a6f565b601f19841662000a1986620007c7565b5f5b8281101562000a425784890151825560018201915060208501945060208101905062000a1b565b8683101562000a62578489015162000a5e601f89168262000958565b8355505b6001600288020188555050505b505050505050565b62000a8281620004a2565b82525050565b5f60208201905062000a9d5f83018462000a77565b92915050565b5f81519050919050565b5f81905092915050565b5f62000ac38262000aa3565b62000acf818562000aad565b935062000ae1818560208601620005f4565b80840191505092915050565b5f62000afa828462000ab7565b915081905092915050565b62000b108162000849565b811462000b1b575f80fd5b50565b5f8151905062000b2e8162000b05565b92915050565b5f6020828403121562000b4c5762000b4b6200047b565b5b5f62000b5b8482850162000b1e565b91505092915050565b60805160a05160c051613ab562000baf5f395f610d5201525f50505f8181610d830152818161241a015281816124430152818161253d0152818161277c01526128170152613ab55ff3fe608060405260043610610224575f3560e01c806394bf804d11610122578063ce96cb77116100aa578063dd62ed3e1161006e578063dd62ed3e146108d7578063ddca3f4314610913578063ef8b30f71461093d578063f2fde38b14610979578063f77c4791146109a157610224565b8063ce96cb77146107e5578063d0ebdbe714610821578063d1503cb414610849578063d436d0ef14610873578063d905777e1461089b57610224565b8063b3d7f6b9116100f1578063b3d7f6b9146106b9578063b460af94146106f5578063ba08765214610731578063c63d75b61461076d578063c6e6f592146107a957610224565b806394bf804d146105ed57806395d89b4114610629578063a03e4bc314610653578063a9059cbb1461067d57610224565b8063313ce567116101b05780634f9ebe52116101745780634f9ebe52146104f95780636e553f651461053557806370a0823114610571578063715018a6146105ad5780638da5cb5b146105c357610224565b8063313ce5671461040357806338d52e0f1461042d578063392e53cd14610457578063402d267d146104815780634cdad506146104bd57610224565b80630a28a477116101f75780630a28a477146102f45780630ebc2d231461033057806318160ddd1461036c5780631cff79cd1461039657806323b872dd146103c757610224565b806301e1d1141461022857806306fdde031461025257806307a2d13a1461027c578063095ea7b3146102b8575b5f80fd5b348015610233575f80fd5b5061023c6109cb565b6040516102499190612d4c565b60405180910390f35b34801561025d575f80fd5b50610266610a6a565b6040516102739190612def565b60405180910390f35b348015610287575f80fd5b506102a2600480360381019061029d9190612e41565b610afa565b6040516102af9190612d4c565b60405180910390f35b3480156102c3575f80fd5b506102de60048036038101906102d99190612ec6565b610b24565b6040516102eb9190612f1e565b60405180910390f35b3480156102ff575f80fd5b5061031a60048036038101906103159190612e41565b610b46565b6040516103279190612d4c565b60405180910390f35b34801561033b575f80fd5b5061035660048036038101906103519190612e41565b610b71565b6040516103639190612f1e565b60405180910390f35b348015610377575f80fd5b50610380610be8565b60405161038d9190612d4c565b60405180910390f35b6103b060048036038101906103ab9190612f98565b610bf1565b6040516103be929190613047565b60405180910390f35b3480156103d2575f80fd5b506103ed60048036038101906103e89190613075565b610d19565b6040516103fa9190612f1e565b60405180910390f35b34801561040e575f80fd5b50610417610d47565b60405161042491906130e0565b60405180910390f35b348015610438575f80fd5b50610441610d80565b60405161044e9190613108565b60405180910390f35b348015610462575f80fd5b5061046b610da7565b6040516104789190612f1e565b60405180910390f35b34801561048c575f80fd5b506104a760048036038101906104a29190613121565b610dbd565b6040516104b49190612d4c565b60405180910390f35b3480156104c8575f80fd5b506104e360048036038101906104de9190612e41565b610de6565b6040516104f09190612d4c565b60405180910390f35b348015610504575f80fd5b5061051f600480360381019061051a919061314c565b610e10565b60405161052c9190612f1e565b60405180910390f35b348015610540575f80fd5b5061055b600480360381019061055691906131b0565b61100c565b6040516105689190612d4c565b60405180910390f35b34801561057c575f80fd5b5061059760048036038101906105929190613121565b611073565b6040516105a49190612d4c565b60405180910390f35b3480156105b8575f80fd5b506105c16110b8565b005b3480156105ce575f80fd5b506105d76110cb565b6040516105e49190613108565b60405180910390f35b3480156105f8575f80fd5b50610613600480360381019061060e91906131b0565b6110f3565b6040516106209190612d4c565b60405180910390f35b348015610634575f80fd5b5061063d61115a565b60405161064a9190612def565b60405180910390f35b34801561065e575f80fd5b506106676111ea565b6040516106749190613249565b60405180910390f35b348015610688575f80fd5b506106a3600480360381019061069e9190612ec6565b61120f565b6040516106b09190612f1e565b60405180910390f35b3480156106c4575f80fd5b506106df60048036038101906106da9190612e41565b611231565b6040516106ec9190612d4c565b60405180910390f35b348015610700575f80fd5b5061071b60048036038101906107169190613262565b61125c565b6040516107289190612d4c565b60405180910390f35b34801561073c575f80fd5b5061075760048036038101906107529190613262565b6112c5565b6040516107649190612d4c565b60405180910390f35b348015610778575f80fd5b50610793600480360381019061078e9190613121565b61132e565b6040516107a09190612d4c565b60405180910390f35b3480156107b4575f80fd5b506107cf60048036038101906107ca9190612e41565b611357565b6040516107dc9190612d4c565b60405180910390f35b3480156107f0575f80fd5b5061080b60048036038101906108069190613121565b61137c565b6040516108189190612d4c565b60405180910390f35b34801561082c575f80fd5b5061084760048036038101906108429190613121565b611396565b005b348015610854575f80fd5b5061085d6113e1565b60405161086a91906132d2565b60405180910390f35b34801561087e575f80fd5b5061089960048036038101906108949190613121565b611406565b005b3480156108a6575f80fd5b506108c160048036038101906108bc9190613121565b61146a565b6040516108ce9190612d4c565b60405180910390f35b3480156108e2575f80fd5b506108fd60048036038101906108f891906132eb565b61147b565b60405161090a9190612d4c565b60405180910390f35b34801561091e575f80fd5b506109276114fd565b6040516109349190612d4c565b60405180910390f35b348015610948575f80fd5b50610963600480360381019061095e9190612e41565b611503565b6040516109709190612d4c565b60405180910390f35b348015610984575f80fd5b5061099f600480360381019061099a9190613121565b61152d565b005b3480156109ac575f80fd5b506109b56115b1565b6040516109c29190613108565b60405180910390f35b5f60065f9054906101000a900473ffffffffffffffffffffffffffffffffffffffff1673ffffffffffffffffffffffffffffffffffffffff166370a08231306040518263ffffffff1660e01b8152600401610a269190613108565b602060405180830381865afa158015610a41573d5f803e3d5ffd5b505050506040513d601f19601f82011682018060405250810190610a65919061333d565b905090565b606060038054610a7990613395565b80601f0160208091040260200160405190810160405280929190818152602001828054610aa590613395565b8015610af05780601f10610ac757610100808354040283529160200191610af0565b820191905f5260205f20905b815481529060010190602001808311610ad357829003601f168201915b5050505050905090565b5f80610b06835f6115d6565b9050610b118161162e565b81610b1c91906133f2565b915050919050565b5f80610b2e611656565b9050610b3b81858561165d565b600191505092915050565b5f80610b518361162e565b9050610b698184610b6291906133f2565b600161166f565b915050919050565b5f600a60149054906101000a900460ff16610bc1576040517f08c379a0000000000000000000000000000000000000000000000000000000008152600401610bb89061346f565b60405180910390fd5b81610bcb33611073565b1015610bd5575f80fd5b610bdf33836116c7565b60019050919050565b5f600254905090565b5f6060600a5f9054906101000a900473ffffffffffffffffffffffffffffffffffffffff1673ffffffffffffffffffffffffffffffffffffffff163373ffffffffffffffffffffffffffffffffffffffff1614610c4c575f80fd5b600a60149054906101000a900460ff16610c9b576040517f08c379a0000000000000000000000000000000000000000000000000000000008152600401610c929061346f565b60405180910390fd5b5f808673ffffffffffffffffffffffffffffffffffffffff16348787604051610cc59291906134c9565b5f6040518083038185875af1925050503d805f8114610cff576040519150601f19603f3d011682016040523d82523d5f602084013e610d04565b606091505b50915091508181935093505050935093915050565b5f80610d23611656565b9050610d30858285611746565b610d3b8585856117d8565b60019150509392505050565b5f610d506118c8565b7f0000000000000000000000000000000000000000000000000000000000000000610d7b91906134e1565b905090565b5f7f0000000000000000000000000000000000000000000000000000000000000000905090565b5f600a60149054906101000a900460ff16905090565b5f7fffffffffffffffffffffffffffffffffffffffffffffffffffffffffffffffff9050919050565b5f80610df2835f6115d6565b9050610dfd8161162e565b81610e089190613515565b915050919050565b5f600a5f9054906101000a900473ffffffffffffffffffffffffffffffffffffffff1673ffffffffffffffffffffffffffffffffffffffff163373ffffffffffffffffffffffffffffffffffffffff1614610e69575f80fd5b8260065f9054906101000a900473ffffffffffffffffffffffffffffffffffffffff1673ffffffffffffffffffffffffffffffffffffffff166370a08231866040518263ffffffff1660e01b8152600401610ec49190613108565b602060405180830381865afa158015610edf573d5f803e3d5ffd5b505050506040513d601f19601f82011682018060405250810190610f03919061333d565b1015610f0d575f80fd5b60065f9054906101000a900473ffffffffffffffffffffffffffffffffffffffff1673ffffffffffffffffffffffffffffffffffffffff166323b872dd8530866040518463ffffffff1660e01b8152600401610f6b93929190613548565b6020604051808303815f875af1158015610f87573d5f803e3d5ffd5b505050506040513d601f19601f82011682018060405250810190610fab91906135a7565b506001600a60146101000a81548160ff021916908315150217905550610ff285610fd3610d47565b60ff16600a610fe29190613701565b84610fed919061374b565b6118d0565b600a60149054906101000a900460ff169050949350505050565b5f600a60149054906101000a900460ff1661105c576040517f08c379a00000000000000000000000000000000000000000000000000000000081526004016110539061346f565b60405180910390fd5b5f611067848461194f565b90508091505092915050565b5f805f8373ffffffffffffffffffffffffffffffffffffffff1673ffffffffffffffffffffffffffffffffffffffff1681526020019081526020015f20549050919050565b6110c0611a83565b6110c95f611b0a565b565b5f60095f9054906101000a900473ffffffffffffffffffffffffffffffffffffffff16905090565b5f600a60149054906101000a900460ff16611143576040517f08c379a000000000000000000000000000000000000000000000000000000000815260040161113a9061346f565b60405180910390fd5b5f61114e8484611bcd565b90508091505092915050565b60606004805461116990613395565b80601f016020809104026020016040519081016040528092919081815260200182805461119590613395565b80156111e05780601f106111b7576101008083540402835291602001916111e0565b820191905f5260205f20905b8154815290600101906020018083116111c357829003601f168201915b5050505050905090565b60055f9054906101000a900473ffffffffffffffffffffffffffffffffffffffff1681565b5f80611219611656565b90506112268185856117d8565b600191505092915050565b5f8061123e8360016115d6565b90506112498161162e565b8161125491906133f2565b915050919050565b5f600a60149054906101000a900460ff166112ac576040517f08c379a00000000000000000000000000000000000000000000000000000000081526004016112a39061346f565b60405180910390fd5b5f6112b8858585611d11565b9050809150509392505050565b5f600a60149054906101000a900460ff16611315576040517f08c379a000000000000000000000000000000000000000000000000000000000815260040161130c9061346f565b60405180910390fd5b5f611321858585611e48565b9050809150509392505050565b5f7fffffffffffffffffffffffffffffffffffffffffffffffffffffffffffffffff9050919050565b5f6113756113648361162e565b8361136f9190613515565b5f61166f565b9050919050565b5f61138f61138983611073565b5f6115d6565b9050919050565b61139e611a83565b80600a5f6101000a81548173ffffffffffffffffffffffffffffffffffffffff021916908373ffffffffffffffffffffffffffffffffffffffff16021790555050565b60065f9054906101000a900473ffffffffffffffffffffffffffffffffffffffff1681565b600a5f9054906101000a900473ffffffffffffffffffffffffffffffffffffffff1673ffffffffffffffffffffffffffffffffffffffff163373ffffffffffffffffffffffffffffffffffffffff161461145e575f80fd5b61146781611f8c565b50565b5f61147482611073565b9050919050565b5f60015f8473ffffffffffffffffffffffffffffffffffffffff1673ffffffffffffffffffffffffffffffffffffffff1681526020019081526020015f205f8373ffffffffffffffffffffffffffffffffffffffff1673ffffffffffffffffffffffffffffffffffffffff1681526020019081526020015f2054905092915050565b60075481565b5f8061150e8361162e565b9050611525818461151f9190613515565b5f61166f565b915050919050565b611535611a83565b5f73ffffffffffffffffffffffffffffffffffffffff168173ffffffffffffffffffffffffffffffffffffffff16036115a5575f6040517f1e4fbdf700000000000000000000000000000000000000000000000000000000815260040161159c9190613108565b60405180910390fd5b6115ae81611b0a565b50565b600a5f9054906101000a900473ffffffffffffffffffffffffffffffffffffffff1681565b5f61162660016115e46109cb565b6115ee91906133f2565b6115f66118c8565b600a611602919061378c565b61160a610be8565b61161491906133f2565b8486611fcf909392919063ffffffff16565b905092915050565b5f61164f61163a612024565b6127105f85611fcf909392919063ffffffff16565b9050919050565b5f33905090565b61166a838383600161202d565b505050565b5f6116bf61167b6118c8565b600a611687919061378c565b61168f610be8565b61169991906133f2565b60016116a36109cb565b6116ad91906133f2565b8486611fcf909392919063ffffffff16565b905092915050565b5f73ffffffffffffffffffffffffffffffffffffffff168273ffffffffffffffffffffffffffffffffffffffff1603611737575f6040517f96c6fd1e00000000000000000000000000000000000000000000000000000000815260040161172e9190613108565b60405180910390fd5b611742825f836121fc565b5050565b5f611751848461147b565b90507fffffffffffffffffffffffffffffffffffffffffffffffffffffffffffffffff81146117d257818110156117c3578281836040517ffb8f41b20000000000000000000000000000000000000000000000000000000081526004016117ba939291906137d6565b60405180910390fd5b6117d184848484035f61202d565b5b50505050565b5f73ffffffffffffffffffffffffffffffffffffffff168373ffffffffffffffffffffffffffffffffffffffff1603611848575f6040517f96c6fd1e00000000000000000000000000000000000000000000000000000000815260040161183f9190613108565b60405180910390fd5b5f73ffffffffffffffffffffffffffffffffffffffff168273ffffffffffffffffffffffffffffffffffffffff16036118b8575f6040517fec442f050000000000000000000000000000000000000000000000000000000081526004016118af9190613108565b60405180910390fd5b6118c38383836121fc565b505050565b5f600c905090565b5f73ffffffffffffffffffffffffffffffffffffffff168273ffffffffffffffffffffffffffffffffffffffff1603611940575f6040517fec442f050000000000000000000000000000000000000000000000000000000081526004016119379190613108565b60405180910390fd5b61194b5f83836121fc565b5050565b5f8061195a83610dbd565b9050808411156119a5578284826040517f79012fb200000000000000000000000000000000000000000000000000000000815260040161199c939291906137d6565b60405180910390fd5b5f6119af85611503565b90506119c46119bc611656565b858784612415565b5f60026119d08761162e565b6119da9190613838565b90505f81118015611a3857505f73ffffffffffffffffffffffffffffffffffffffff1660085f9054906101000a900473ffffffffffffffffffffffffffffffffffffffff1673ffffffffffffffffffffffffffffffffffffffff1614155b15611a77575f611a48825f61166f565b9050611a7560085f9054906101000a900473ffffffffffffffffffffffffffffffffffffffff16826118d0565b505b81935050505092915050565b611a8b611656565b73ffffffffffffffffffffffffffffffffffffffff16611aa96110cb565b73ffffffffffffffffffffffffffffffffffffffff1614611b0857611acc611656565b6040517f118cdaa7000000000000000000000000000000000000000000000000000000008152600401611aff9190613108565b60405180910390fd5b565b5f60095f9054906101000a900473ffffffffffffffffffffffffffffffffffffffff1690508160095f6101000a81548173ffffffffffffffffffffffffffffffffffffffff021916908373ffffffffffffffffffffffffffffffffffffffff1602179055508173ffffffffffffffffffffffffffffffffffffffff168173ffffffffffffffffffffffffffffffffffffffff167f8be0079c531659141344cd1fd0a4f28419497f9722a3daafe3b4186f6b6457e060405160405180910390a35050565b5f80611bd88361132e565b905080841115611c23578284826040517f284ff667000000000000000000000000000000000000000000000000000000008152600401611c1a939291906137d6565b60405180910390fd5b5f611c2d85611231565b9050611c42611c3a611656565b858388612415565b5f611c4e8660016115d6565b90505f6002611c5c8361162e565b611c669190613838565b90505f81118015611cc457505f73ffffffffffffffffffffffffffffffffffffffff1660085f9054906101000a900473ffffffffffffffffffffffffffffffffffffffff1673ffffffffffffffffffffffffffffffffffffffff1614155b15611d04575f611cd582600161166f565b9050611d0260085f9054906101000a900473ffffffffffffffffffffffffffffffffffffffff16826118d0565b505b8294505050505092915050565b5f80611d1c8361137c565b905080851115611d67578285826040517ffe9cceec000000000000000000000000000000000000000000000000000000008152600401611d5e939291906137d6565b60405180910390fd5b5f611d7186610b46565b9050611d87611d7e611656565b86868985612622565b5f6002611d938861162e565b611d9d9190613838565b90505f81118015611dfb57505f73ffffffffffffffffffffffffffffffffffffffff1660085f9054906101000a900473ffffffffffffffffffffffffffffffffffffffff1673ffffffffffffffffffffffffffffffffffffffff1614155b15611e3b575f611e0c82600161166f565b9050611e3960085f9054906101000a900473ffffffffffffffffffffffffffffffffffffffff16826118d0565b505b8193505050509392505050565b5f80611e538361146a565b905080851115611e9e578285826040517fb94abeec000000000000000000000000000000000000000000000000000000008152600401611e95939291906137d6565b60405180910390fd5b5f611ea886610de6565b9050611ebe611eb5611656565b8686848a612622565b5f611ec9875f6115d6565b90505f6002611ed78361162e565b611ee19190613838565b90505f81118015611f3f57505f73ffffffffffffffffffffffffffffffffffffffff1660085f9054906101000a900473ffffffffffffffffffffffffffffffffffffffff1673ffffffffffffffffffffffffffffffffffffffff1614155b15611f7e575f611f4f825f61166f565b9050611f7c60085f9054906101000a900473ffffffffffffffffffffffffffffffffffffffff16826118d0565b505b829450505050509392505050565b8060085f6101000a81548173ffffffffffffffffffffffffffffffffffffffff021916908373ffffffffffffffffffffffffffffffffffffffff16021790555050565b5f80611fdc8686866128c3565b9050611fe7836129c2565b801561200357505f8480611ffe57611ffd61380b565b5b868809115b156120185760018161201591906133f2565b90505b80915050949350505050565b5f600754905090565b5f73ffffffffffffffffffffffffffffffffffffffff168473ffffffffffffffffffffffffffffffffffffffff160361209d575f6040517fe602df050000000000000000000000000000000000000000000000000000000081526004016120949190613108565b60405180910390fd5b5f73ffffffffffffffffffffffffffffffffffffffff168373ffffffffffffffffffffffffffffffffffffffff160361210d575f6040517f94280d620000000000000000000000000000000000000000000000000000000081526004016121049190613108565b60405180910390fd5b8160015f8673ffffffffffffffffffffffffffffffffffffffff1673ffffffffffffffffffffffffffffffffffffffff1681526020019081526020015f205f8573ffffffffffffffffffffffffffffffffffffffff1673ffffffffffffffffffffffffffffffffffffffff1681526020019081526020015f208190555080156121f6578273ffffffffffffffffffffffffffffffffffffffff168473ffffffffffffffffffffffffffffffffffffffff167f8c5be1e5ebec7d5bd14f71427d1e84f3dd0314c0f7b2291e5b200ac8c7c3b925846040516121ed9190612d4c565b60405180910390a35b50505050565b5f73ffffffffffffffffffffffffffffffffffffffff168373ffffffffffffffffffffffffffffffffffffffff160361224c578060025f82825461224091906133f2565b9250508190555061231a565b5f805f8573ffffffffffffffffffffffffffffffffffffffff1673ffffffffffffffffffffffffffffffffffffffff1681526020019081526020015f20549050818110156122d5578381836040517fe450d38c0000000000000000000000000000000000000000000000000000000081526004016122cc939291906137d6565b60405180910390fd5b8181035f808673ffffffffffffffffffffffffffffffffffffffff1673ffffffffffffffffffffffffffffffffffffffff1681526020019081526020015f2081905550505b5f73ffffffffffffffffffffffffffffffffffffffff168273ffffffffffffffffffffffffffffffffffffffff1603612361578060025f82825403925050819055506123ab565b805f808473ffffffffffffffffffffffffffffffffffffffff1673ffffffffffffffffffffffffffffffffffffffff1681526020019081526020015f205f82825401925050819055505b8173ffffffffffffffffffffffffffffffffffffffff168373ffffffffffffffffffffffffffffffffffffffff167fddf252ad1be2c89b69c2b068fc378daa952ba7f163c4a11628f55a4df523b3ef836040516124089190612d4c565b60405180910390a3505050565b6124417f00000000000000000000000000000000000000000000000000000000000000008530856129ef565b7f000000000000000000000000000000000000000000000000000000000000000073ffffffffffffffffffffffffffffffffffffffff1663095ea7b360055f9054906101000a900473ffffffffffffffffffffffffffffffffffffffff16846040518363ffffffff1660e01b81526004016124bd929190613868565b6020604051808303815f875af11580156124d9573d5f803e3d5ffd5b505050506040513d601f19601f820116820180604052508101906124fd91906135a7565b5060055f9054906101000a900473ffffffffffffffffffffffffffffffffffffffff1673ffffffffffffffffffffffffffffffffffffffff1663617ba0377f000000000000000000000000000000000000000000000000000000000000000084305f6040518563ffffffff1660e01b815260040161257e94939291906138d5565b5f604051808303815f87803b158015612595575f80fd5b505af11580156125a7573d5f803e3d5ffd5b505050506125b583826118d0565b8273ffffffffffffffffffffffffffffffffffffffff168473ffffffffffffffffffffffffffffffffffffffff167fdcbc1c05240f31ff3ad067ef1ee35ce4997762752e3a095284754544f4c709d78484604051612614929190613918565b60405180910390a350505050565b8273ffffffffffffffffffffffffffffffffffffffff168573ffffffffffffffffffffffffffffffffffffffff161461266157612660838683611746565b5b8160065f9054906101000a900473ffffffffffffffffffffffffffffffffffffffff1673ffffffffffffffffffffffffffffffffffffffff166370a08231306040518263ffffffff1660e01b81526004016126bc9190613108565b602060405180830381865afa1580156126d7573d5f803e3d5ffd5b505050506040513d601f19601f820116820180604052508101906126fb919061333d565b101561273c576040517f08c379a000000000000000000000000000000000000000000000000000000000815260040161273390613989565b60405180910390fd5b5f60055f9054906101000a900473ffffffffffffffffffffffffffffffffffffffff1673ffffffffffffffffffffffffffffffffffffffff166369328dec7f000000000000000000000000000000000000000000000000000000000000000085306040518463ffffffff1660e01b81526004016127bb939291906139a7565b6020604051808303815f875af11580156127d7573d5f803e3d5ffd5b505050506040513d601f19601f820116820180604052508101906127fb919061333d565b90505f8111612808575f80fd5b61281284836116c7565b61283d7f00000000000000000000000000000000000000000000000000000000000000008685612a71565b8373ffffffffffffffffffffffffffffffffffffffff168573ffffffffffffffffffffffffffffffffffffffff168773ffffffffffffffffffffffffffffffffffffffff167ffbde797d201c681b91056529119e0b02407c7bb96a4a2c75c01fc9667232c8db86866040516128b3929190613918565b60405180910390a4505050505050565b5f8083850290505f8019858709828110838203039150505f81036128fb578382816128f1576128f061380b565b5b04925050506129bb565b808411612934576040517f227bc15300000000000000000000000000000000000000000000000000000000815260040160405180910390fd5b5f8486880990508281118203915080830392505f855f038616905080860495508084049350600181825f0304019050808302841793505f600287600302189050808702600203810290508087026002038102905080870260020381029050808702600203810290508087026002038102905080870260020381029050808502955050505050505b9392505050565b5f600160028360038111156129da576129d96139dc565b5b6129e49190613a09565b60ff16149050919050565b612a6b848573ffffffffffffffffffffffffffffffffffffffff166323b872dd868686604051602401612a2493929190613548565b604051602081830303815290604052915060e01b6020820180517bffffffffffffffffffffffffffffffffffffffffffffffffffffffff8381831617835250505050612af0565b50505050565b612aeb838473ffffffffffffffffffffffffffffffffffffffff1663a9059cbb8585604051602401612aa4929190613868565b604051602081830303815290604052915060e01b6020820180517bffffffffffffffffffffffffffffffffffffffffffffffffffffffff8381831617835250505050612af0565b505050565b5f612b1a828473ffffffffffffffffffffffffffffffffffffffff16612b8590919063ffffffff16565b90505f815114158015612b3e575080806020019051810190612b3c91906135a7565b155b15612b8057826040517f5274afe7000000000000000000000000000000000000000000000000000000008152600401612b779190613108565b60405180910390fd5b505050565b6060612b9283835f612b9a565b905092915050565b606081471015612be157306040517fcd786059000000000000000000000000000000000000000000000000000000008152600401612bd89190613108565b60405180910390fd5b5f808573ffffffffffffffffffffffffffffffffffffffff168486604051612c099190613a69565b5f6040518083038185875af1925050503d805f8114612c43576040519150601f19603f3d011682016040523d82523d5f602084013e612c48565b606091505b5091509150612c58868383612c63565b925050509392505050565b606082612c7857612c7382612cf0565b612ce8565b5f8251148015612c9e57505f8473ffffffffffffffffffffffffffffffffffffffff163b145b15612ce057836040517f9996b315000000000000000000000000000000000000000000000000000000008152600401612cd79190613108565b60405180910390fd5b819050612ce9565b5b9392505050565b5f81511115612d025780518082602001fd5b6040517f1425ea4200000000000000000000000000000000000000000000000000000000815260040160405180910390fd5b5f819050919050565b612d4681612d34565b82525050565b5f602082019050612d5f5f830184612d3d565b92915050565b5f81519050919050565b5f82825260208201905092915050565b5f5b83811015612d9c578082015181840152602081019050612d81565b5f8484015250505050565b5f601f19601f8301169050919050565b5f612dc182612d65565b612dcb8185612d6f565b9350612ddb818560208601612d7f565b612de481612da7565b840191505092915050565b5f6020820190508181035f830152612e078184612db7565b905092915050565b5f80fd5b5f80fd5b612e2081612d34565b8114612e2a575f80fd5b50565b5f81359050612e3b81612e17565b92915050565b5f60208284031215612e5657612e55612e0f565b5b5f612e6384828501612e2d565b91505092915050565b5f73ffffffffffffffffffffffffffffffffffffffff82169050919050565b5f612e9582612e6c565b9050919050565b612ea581612e8b565b8114612eaf575f80fd5b50565b5f81359050612ec081612e9c565b92915050565b5f8060408385031215612edc57612edb612e0f565b5b5f612ee985828601612eb2565b9250506020612efa85828601612e2d565b9150509250929050565b5f8115159050919050565b612f1881612f04565b82525050565b5f602082019050612f315f830184612f0f565b92915050565b5f80fd5b5f80fd5b5f80fd5b5f8083601f840112612f5857612f57612f37565b5b8235905067ffffffffffffffff811115612f7557612f74612f3b565b5b602083019150836001820283011115612f9157612f90612f3f565b5b9250929050565b5f805f60408486031215612faf57612fae612e0f565b5b5f612fbc86828701612eb2565b935050602084013567ffffffffffffffff811115612fdd57612fdc612e13565b5b612fe986828701612f43565b92509250509250925092565b5f81519050919050565b5f82825260208201905092915050565b5f61301982612ff5565b6130238185612fff565b9350613033818560208601612d7f565b61303c81612da7565b840191505092915050565b5f60408201905061305a5f830185612f0f565b818103602083015261306c818461300f565b90509392505050565b5f805f6060848603121561308c5761308b612e0f565b5b5f61309986828701612eb2565b93505060206130aa86828701612eb2565b92505060406130bb86828701612e2d565b9150509250925092565b5f60ff82169050919050565b6130da816130c5565b82525050565b5f6020820190506130f35f8301846130d1565b92915050565b61310281612e8b565b82525050565b5f60208201905061311b5f8301846130f9565b92915050565b5f6020828403121561313657613135612e0f565b5b5f61314384828501612eb2565b91505092915050565b5f805f806080858703121561316457613163612e0f565b5b5f61317187828801612eb2565b945050602061318287828801612eb2565b935050604061319387828801612e2d565b92505060606131a487828801612e2d565b91505092959194509250565b5f80604083850312156131c6576131c5612e0f565b5b5f6131d385828601612e2d565b92505060206131e485828601612eb2565b9150509250929050565b5f819050919050565b5f61321161320c61320784612e6c565b6131ee565b612e6c565b9050919050565b5f613222826131f7565b9050919050565b5f61323382613218565b9050919050565b61324381613229565b82525050565b5f60208201905061325c5f83018461323a565b92915050565b5f805f6060848603121561327957613278612e0f565b5b5f61328686828701612e2d565b935050602061329786828701612eb2565b92505060406132a886828701612eb2565b9150509250925092565b5f6132bc82613218565b9050919050565b6132cc816132b2565b82525050565b5f6020820190506132e55f8301846132c3565b92915050565b5f806040838503121561330157613300612e0f565b5b5f61330e85828601612eb2565b925050602061331f85828601612eb2565b9150509250929050565b5f8151905061333781612e17565b92915050565b5f6020828403121561335257613351612e0f565b5b5f61335f84828501613329565b91505092915050565b7f4e487b71000000000000000000000000000000000000000000000000000000005f52602260045260245ffd5b5f60028204905060018216806133ac57607f821691505b6020821081036133bf576133be613368565b5b50919050565b7f4e487b71000000000000000000000000000000000000000000000000000000005f52601160045260245ffd5b5f6133fc82612d34565b915061340783612d34565b925082820190508082111561341f5761341e6133c5565b5b92915050565b7f7661756c74206e6f7420616374697665000000000000000000000000000000005f82015250565b5f613459601083612d6f565b915061346482613425565b602082019050919050565b5f6020820190508181035f8301526134868161344d565b9050919050565b5f81905092915050565b828183375f83830152505050565b5f6134b0838561348d565b93506134bd838584613497565b82840190509392505050565b5f6134d58284866134a5565b91508190509392505050565b5f6134eb826130c5565b91506134f6836130c5565b9250828201905060ff81111561350f5761350e6133c5565b5b92915050565b5f61351f82612d34565b915061352a83612d34565b9250828203905081811115613542576135416133c5565b5b92915050565b5f60608201905061355b5f8301866130f9565b61356860208301856130f9565b6135756040830184612d3d565b949350505050565b61358681612f04565b8114613590575f80fd5b50565b5f815190506135a18161357d565b92915050565b5f602082840312156135bc576135bb612e0f565b5b5f6135c984828501613593565b91505092915050565b5f8160011c9050919050565b5f808291508390505b600185111561362757808604811115613603576136026133c5565b5b60018516156136125780820291505b8081029050613620856135d2565b94506135e7565b94509492505050565b5f8261363f57600190506136fa565b8161364c575f90506136fa565b8160018114613662576002811461366c5761369b565b60019150506136fa565b60ff84111561367e5761367d6133c5565b5b8360020a915084821115613695576136946133c5565b5b506136fa565b5060208310610133831016604e8410600b84101617156136d05782820a9050838111156136cb576136ca6133c5565b5b6136fa565b6136dd84848460016135de565b925090508184048111156136f4576136f36133c5565b5b81810290505b9392505050565b5f61370b82612d34565b915061371683612d34565b92506137437fffffffffffffffffffffffffffffffffffffffffffffffffffffffffffffffff8484613630565b905092915050565b5f61375582612d34565b915061376083612d34565b925082820261376e81612d34565b91508282048414831517613785576137846133c5565b5b5092915050565b5f61379682612d34565b91506137a1836130c5565b92506137ce7fffffffffffffffffffffffffffffffffffffffffffffffffffffffffffffffff8484613630565b905092915050565b5f6060820190506137e95f8301866130f9565b6137f66020830185612d3d565b6138036040830184612d3d565b949350505050565b7f4e487b71000000000000000000000000000000000000000000000000000000005f52601260045260245ffd5b5f61384282612d34565b915061384d83612d34565b92508261385d5761385c61380b565b5b828204905092915050565b5f60408201905061387b5f8301856130f9565b6138886020830184612d3d565b9392505050565b5f819050919050565b5f61ffff82169050919050565b5f6138bf6138ba6138b58461388f565b6131ee565b613898565b9050919050565b6138cf816138a5565b82525050565b5f6080820190506138e85f8301876130f9565b6138f56020830186612d3d565b61390260408301856130f9565b61390f60608301846138c6565b95945050505050565b5f60408201905061392b5f830185612d3d565b6139386020830184612d3d565b9392505050565b7f756e61626c6520746f2070726f636573730000000000000000000000000000005f82015250565b5f613973601183612d6f565b915061397e8261393f565b602082019050919050565b5f6020820190508181035f8301526139a081613967565b9050919050565b5f6060820190506139ba5f8301866130f9565b6139c76020830185612d3d565b6139d460408301846130f9565b949350505050565b7f4e487b71000000000000000000000000000000000000000000000000000000005f52602160045260245ffd5b5f613a13826130c5565b9150613a1e836130c5565b925082613a2e57613a2d61380b565b5b828206905092915050565b5f613a4382612ff5565b613a4d818561348d565b9350613a5d818560208601612d7f565b80840191505092915050565b5f613a748284613a39565b91508190509291505056fea2646970667358221220e5da96846a59f07a3ce0fa3e502a1cc8ce01c42cf65bbfd0117d8185ab9cac0064736f6c63430008140033","linkReferences":{}},"methodIdentifiers":{"_initializeVault(address,address,uint256,uint256)":"4f9ebe52","aaveAsset()":"d1503cb4","aavePool()":"a03e4bc3","allowance(address,address)":"dd62ed3e","approve(address,uint256)":"095ea7b3","asset()":"38d52e0f","balanceOf(address)":"70a08231","burnShare(uint256)":"0ebc2d23","controller()":"f77c4791","convertToAssets(uint256)":"07a2d13a","convertToShares(uint256)":"c6e6f592","decimals()":"313ce567","deposit(uint256,address)":"6e553f65","execute(address,bytes)":"1cff79cd","fee()":"ddca3f43","isInitialized()":"392e53cd","maxDeposit(address)":"402d267d","maxMint(address)":"c63d75b6","maxRedeem(address)":"d905777e","maxWithdraw(address)":"ce96cb77","mint(uint256,address)":"94bf804d","name()":"06fdde03","owner()":"8da5cb5b","previewDeposit(uint256)":"ef8b30f7","previewMint(uint256)":"b3d7f6b9","previewRedeem(uint256)":"4cdad506","previewWithdraw(uint256)":"0a28a477","redeem(uint256,address,address)":"ba087652","renounceOwnership()":"715018a6","setFeeReciever(address)":"d436d0ef","setManager(address)":"d0ebdbe7","symbol()":"95d89b41","totalAssets()":"01e1d114","totalSupply()":"18160ddd","transfer(address,uint256)":"a9059cbb","transferFrom(address,address,uint256)":"23b872dd","transferOwnership(address)":"f2fde38b","withdraw(uint256,address,address)":"b460af94"},"id":54}