{"abi":[{"type":"constructor","inputs":[],"stateMutability":"nonpayable"},{"type":"function","name":"addExtendedUri","inputs":[{"name":"tokenId","type":"uint256","internalType":"uint256"},{"name":"_uri","type":"string","internalType":"string"}],"outputs":[{"name":"","type":"bool","internalType":"bool"}],"stateMutability":"nonpayable"},{"type":"function","name":"addManager","inputs":[{"name":"a","type":"address","internalType":"address"},{"name":"state","type":"bool","internalType":"bool"}],"outputs":[],"stateMutability":"nonpayable"},{"type":"function","name":"approve","inputs":[{"name":"to","type":"address","internalType":"address"},{"name":"tokenId","type":"uint256","internalType":"uint256"}],"outputs":[],"stateMutability":"nonpayable"},{"type":"function","name":"balanceOf","inputs":[{"name":"owner","type":"address","internalType":"address"}],"outputs":[{"name":"","type":"uint256","internalType":"uint256"}],"stateMutability":"view"},{"type":"function","name":"burn","inputs":[{"name":"id","type":"uint256","internalType":"uint256"}],"outputs":[],"stateMutability":"nonpayable"},{"type":"function","name":"getApproved","inputs":[{"name":"tokenId","type":"uint256","internalType":"uint256"}],"outputs":[{"name":"","type":"address","internalType":"address"}],"stateMutability":"view"},{"type":"function","name":"getMultiUriData","inputs":[{"name":"id","type":"uint256","internalType":"uint256"}],"outputs":[{"name":"","type":"uint256","internalType":"uint256"},{"name":"","type":"uint256","internalType":"uint256"}],"stateMutability":"view"},{"type":"function","name":"getUri","inputs":[{"name":"id","type":"uint256","internalType":"uint256"},{"name":"index","type":"uint256","internalType":"uint256"}],"outputs":[{"name":"","type":"string","internalType":"string"}],"stateMutability":"view"},{"type":"function","name":"isApprovedForAll","inputs":[{"name":"owner","type":"address","internalType":"address"},{"name":"operator","type":"address","internalType":"address"}],"outputs":[{"name":"","type":"bool","internalType":"bool"}],"stateMutability":"view"},{"type":"function","name":"name","inputs":[],"outputs":[{"name":"","type":"string","internalType":"string"}],"stateMutability":"view"},{"type":"function","name":"owner","inputs":[],"outputs":[{"name":"","type":"address","internalType":"address"}],"stateMutability":"view"},{"type":"function","name":"ownerOf","inputs":[{"name":"tokenId","type":"uint256","internalType":"uint256"}],"outputs":[{"name":"","type":"address","internalType":"address"}],"stateMutability":"view"},{"type":"function","name":"renounceOwnership","inputs":[],"outputs":[],"stateMutability":"nonpayable"},{"type":"function","name":"royaltyInfo","inputs":[{"name":"tokenId","type":"uint256","internalType":"uint256"},{"name":"salePrice","type":"uint256","internalType":"uint256"}],"outputs":[{"name":"","type":"address","internalType":"address"},{"name":"","type":"uint256","internalType":"uint256"}],"stateMutability":"view"},{"type":"function","name":"safeMint","inputs":[{"name":"to","type":"address","internalType":"address"},{"name":"tokenId","type":"uint256","internalType":"uint256"},{"name":"uri","type":"string","internalType":"string"}],"outputs":[],"stateMutability":"nonpayable"},{"type":"function","name":"safeTransferFrom","inputs":[{"name":"from","type":"address","internalType":"address"},{"name":"to","type":"address","internalType":"address"},{"name":"tokenId","type":"uint256","internalType":"uint256"}],"outputs":[],"stateMutability":"nonpayable"},{"type":"function","name":"safeTransferFrom","inputs":[{"name":"from","type":"address","internalType":"address"},{"name":"to","type":"address","internalType":"address"},{"name":"tokenId","type":"uint256","internalType":"uint256"},{"name":"data","type":"bytes","internalType":"bytes"}],"outputs":[],"stateMutability":"nonpayable"},{"type":"function","name":"setApprovalForAll","inputs":[{"name":"operator","type":"address","internalType":"address"},{"name":"approved","type":"bool","internalType":"bool"}],"outputs":[],"stateMutability":"nonpayable"},{"type":"function","name":"setExtendedUri","inputs":[{"name":"tokenId","type":"uint256","internalType":"uint256"},{"name":"uriIndex","type":"uint256","internalType":"uint256"},{"name":"state","type":"bool","internalType":"bool"}],"outputs":[{"name":"","type":"bool","internalType":"bool"}],"stateMutability":"nonpayable"},{"type":"function","name":"setRoyalty","inputs":[{"name":"reciever","type":"address","internalType":"address"},{"name":"fraction","type":"uint96","internalType":"uint96"}],"outputs":[],"stateMutability":"nonpayable"},{"type":"function","name":"supportsInterface","inputs":[{"name":"interfaceId","type":"bytes4","internalType":"bytes4"}],"outputs":[{"name":"","type":"bool","internalType":"bool"}],"stateMutability":"view"},{"type":"function","name":"symbol","inputs":[],"outputs":[{"name":"","type":"string","internalType":"string"}],"stateMutability":"view"},{"type":"function","name":"tokenURI","inputs":[{"name":"tokenId","type":"uint256","internalType":"uint256"}],"outputs":[{"name":"","type":"string","internalType":"string"}],"stateMutability":"view"},{"type":"function","name":"totalSupply","inputs":[],"outputs":[{"name":"","type":"uint256","internalType":"uint256"}],"stateMutability":"view"},{"type":"function","name":"transferFrom","inputs":[{"name":"from","type":"address","internalType":"address"},{"name":"to","type":"address","internalType":"address"},{"name":"tokenId","type":"uint256","internalType":"uint256"}],"outputs":[],"stateMutability":"nonpayable"},{"type":"function","name":"transferOwnership","inputs":[{"name":"newOwner","type":"address","internalType":"address"}],"outputs":[],"stateMutability":"nonpayable"},{"type":"event","name":"Approval","inputs":[{"name":"owner","type":"address","indexed":true,"internalType":"address"},{"name":"approved","type":"address","indexed":true,"internalType":"address"},{"name":"tokenId","type":"uint256","indexed":true,"internalType":"uint256"}],"anonymous":false},{"type":"event","name":"ApprovalForAll","inputs":[{"name":"owner","type":"address","indexed":true,"internalType":"address"},{"name":"operator","type":"address","indexed":true,"internalType":"address"},{"name":"approved","type":"bool","indexed":false,"internalType":"bool"}],"anonymous":false},{"type":"event","name":"BatchMetadataUpdate","inputs":[{"name":"_fromTokenId","type":"uint256","indexed":false,"internalType":"uint256"},{"name":"_toTokenId","type":"uint256","indexed":false,"internalType":"uint256"}],"anonymous":false},{"type":"event","name":"Burn","inputs":[{"name":"id","type":"uint256","indexed":true,"internalType":"uint256"},{"name":"from","type":"address","indexed":true,"internalType":"address"}],"anonymous":false},{"type":"event","name":"MetadataUpdate","inputs":[{"name":"_tokenId","type":"uint256","indexed":false,"internalType":"uint256"}],"anonymous":false},{"type":"event","name":"OwnershipTransferred","inputs":[{"name":"previousOwner","type":"address","indexed":true,"internalType":"address"},{"name":"newOwner","type":"address","indexed":true,"internalType":"address"}],"anonymous":false},{"type":"event","name":"Transfer","inputs":[{"name":"from","type":"address","indexed":true,"internalType":"address"},{"name":"to","type":"address","indexed":true,"internalType":"address"},{"name":"tokenId","type":"uint256","indexed":true,"internalType":"uint256"}],"anonymous":false},{"type":"event","name":"Unwrap","inputs":[{"name":"id","type":"uint256","indexed":true,"internalType":"uint256"},{"name":"amount","type":"uint256","indexed":false,"internalType":"uint256"},{"name":"to","type":"address","indexed":true,"internalType":"address"}],"anonymous":false},{"type":"event","name":"Wrap","inputs":[{"name":"id","type":"uint256","indexed":true,"internalType":"uint256"},{"name":"amount","type":"uint256","indexed":false,"internalType":"uint256"},{"name":"from","type":"address","indexed":true,"internalType":"address"}],"anonymous":false},{"type":"error","name":"ERC2981InvalidDefaultRoyalty","inputs":[{"name":"numerator","type":"uint256","internalType":"uint256"},{"name":"denominator","type":"uint256","internalType":"uint256"}]},{"type":"error","name":"ERC2981InvalidDefaultRoyaltyReceiver","inputs":[{"name":"receiver","type":"address","internalType":"address"}]},{"type":"error","name":"ERC2981InvalidTokenRoyalty","inputs":[{"name":"tokenId","type":"uint256","internalType":"uint256"},{"name":"numerator","type":"uint256","internalType":"uint256"},{"name":"denominator","type":"uint256","internalType":"uint256"}]},{"type":"error","name":"ERC2981InvalidTokenRoyaltyReceiver","inputs":[{"name":"tokenId","type":"uint256","internalType":"uint256"},{"name":"receiver","type":"address","internalType":"address"}]},{"type":"error","name":"ERC721IncorrectOwner","inputs":[{"name":"sender","type":"address","internalType":"address"},{"name":"tokenId","type":"uint256","internalType":"uint256"},{"name":"owner","type":"address","internalType":"address"}]},{"type":"error","name":"ERC721InsufficientApproval","inputs":[{"name":"operator","type":"address","internalType":"address"},{"name":"tokenId","type":"uint256","internalType":"uint256"}]},{"type":"error","name":"ERC721InvalidApprover","inputs":[{"name":"approver","type":"address","internalType":"address"}]},{"type":"error","name":"ERC721InvalidOperator","inputs":[{"name":"operator","type":"address","internalType":"address"}]},{"type":"error","name":"ERC721InvalidOwner","inputs":[{"name":"owner","type":"address","internalType":"address"}]},{"type":"error","name":"ERC721InvalidReceiver","inputs":[{"name":"receiver","type":"address","internalType":"address"}]},{"type":"error","name":"ERC721InvalidSender","inputs":[{"name":"sender","type":"address","internalType":"address"}]},{"type":"error","name":"ERC721NonexistentToken","inputs":[{"name":"tokenId","type":"uint256","internalType":"uint256"}]},{"type":"error","name":"OwnableInvalidOwner","inputs":[{"name":"owner","type":"address","internalType":"address"}]},{"type":"error","name":"OwnableUnauthorizedAccount","inputs":[{"name":"account","type":"address","internalType":"address"}]}],"bytecode":{"object":"0x6080604052612710600a5534801562000016575f80fd5b50336040518060400160405280600f81526020017f424f5453204f4620424954434f494e00000000000000000000000000000000008152506040518060400160405280600381526020017f424f420000000000000000000000000000000000000000000000000000000000815250815f908162000094919062000676565b508060019081620000a6919062000676565b5050505f73ffffffffffffffffffffffffffffffffffffffff168173ffffffffffffffffffffffffffffffffffffffff16036200011c575f6040517f1e4fbdf70000000000000000000000000000000000000000000000000000000081526004016200011391906200079d565b60405180910390fd5b6200012d816200019d60201b60201c565b5062000142336102b26200026060201b60201c565b6001600b5f3373ffffffffffffffffffffffffffffffffffffffff1673ffffffffffffffffffffffffffffffffffffffff1681526020019081526020015f205f6101000a81548160ff02191690831515021790555062000843565b5f60075f9054906101000a900473ffffffffffffffffffffffffffffffffffffffff1690508160075f6101000a81548173ffffffffffffffffffffffffffffffffffffffff021916908373ffffffffffffffffffffffffffffffffffffffff1602179055508173ffffffffffffffffffffffffffffffffffffffff168173ffffffffffffffffffffffffffffffffffffffff167f8be0079c531659141344cd1fd0a4f28419497f9722a3daafe3b4186f6b6457e060405160405180910390a35050565b5f620002716200040960201b60201c565b6bffffffffffffffffffffffff16905080826bffffffffffffffffffffffff161115620002d95781816040517f6f483d09000000000000000000000000000000000000000000000000000000008152600401620002d092919062000818565b60405180910390fd5b5f73ffffffffffffffffffffffffffffffffffffffff168373ffffffffffffffffffffffffffffffffffffffff16036200034c575f6040517fb6d9900a0000000000000000000000000000000000000000000000000000000081526004016200034391906200079d565b60405180910390fd5b60405180604001604052808473ffffffffffffffffffffffffffffffffffffffff168152602001836bffffffffffffffffffffffff1681525060085f820151815f015f6101000a81548173ffffffffffffffffffffffffffffffffffffffff021916908373ffffffffffffffffffffffffffffffffffffffff1602179055506020820151815f0160146101000a8154816bffffffffffffffffffffffff02191690836bffffffffffffffffffffffff160217905550905050505050565b5f612710905090565b5f81519050919050565b7f4e487b71000000000000000000000000000000000000000000000000000000005f52604160045260245ffd5b7f4e487b71000000000000000000000000000000000000000000000000000000005f52602260045260245ffd5b5f60028204905060018216806200048e57607f821691505b602082108103620004a457620004a362000449565b5b50919050565b5f819050815f5260205f209050919050565b5f6020601f8301049050919050565b5f82821b905092915050565b5f60088302620005087fffffffffffffffffffffffffffffffffffffffffffffffffffffffffffffffff82620004cb565b620005148683620004cb565b95508019841693508086168417925050509392505050565b5f819050919050565b5f819050919050565b5f6200055e6200055862000552846200052c565b62000535565b6200052c565b9050919050565b5f819050919050565b62000579836200053e565b62000591620005888262000565565b848454620004d7565b825550505050565b5f90565b620005a762000599565b620005b48184846200056e565b505050565b5b81811015620005db57620005cf5f826200059d565b600181019050620005ba565b5050565b601f8211156200062a57620005f481620004aa565b620005ff84620004bc565b810160208510156200060f578190505b620006276200061e85620004bc565b830182620005b9565b50505b505050565b5f82821c905092915050565b5f6200064c5f19846008026200062f565b1980831691505092915050565b5f6200066683836200063b565b9150826002028217905092915050565b620006818262000412565b67ffffffffffffffff8111156200069d576200069c6200041c565b5b620006a9825462000476565b620006b6828285620005df565b5f60209050601f831160018114620006ec575f8415620006d7578287015190505b620006e3858262000659565b86555062000752565b601f198416620006fc86620004aa565b5f5b828110156200072557848901518255600182019150602085019450602081019050620006fe565b8683101562000745578489015162000741601f8916826200063b565b8355505b6001600288020188555050505b505050505050565b5f73ffffffffffffffffffffffffffffffffffffffff82169050919050565b5f62000785826200075a565b9050919050565b620007978162000779565b82525050565b5f602082019050620007b25f8301846200078c565b92915050565b5f6bffffffffffffffffffffffff82169050919050565b5f620007ef620007e9620007e384620007b8565b62000535565b6200052c565b9050919050565b6200080181620007cf565b82525050565b62000812816200052c565b82525050565b5f6040820190506200082d5f830185620007f6565b6200083c602083018462000807565b9392505050565b6137f680620008515f395ff3fe608060405234801561000f575f80fd5b506004361061018c575f3560e01c8063715018a6116100dc578063c87b56dd11610095578063d354ec591161006f578063d354ec5914610490578063e985e9c5146104c0578063f2fde38b146104f0578063fb27c2771461050c5761018c565b8063c87b56dd14610428578063cd279c7c14610458578063cec26e51146104745761018c565b8063715018a61461038e5780638da5cb5b146103985780638f2fc60b146103b657806395d89b41146103d2578063a22cb465146103f0578063b88d4fde1461040c5761018c565b806323b872dd1161014957806342842e0e1161012357806342842e0e146102f657806342966c68146103125780636352211e1461032e57806370a082311461035e5761018c565b806323b872dd146102795780632a55205a146102955780633b65bcfe146102c65761018c565b806301ffc9a71461019057806306fdde03146101c0578063081812fc146101de578063095ea7b31461020e57806318160ddd1461022a5780631986142314610248575b5f80fd5b6101aa60048036038101906101a5919061284c565b61053c565b6040516101b79190612891565b60405180910390f35b6101c861054d565b6040516101d59190612934565b60405180910390f35b6101f860048036038101906101f39190612987565b6105dc565b60405161020591906129f1565b60405180910390f35b61022860048036038101906102239190612a34565b6105f7565b005b61023261060d565b60405161023f9190612a81565b60405180910390f35b610262600480360381019061025d9190612987565b610613565b604051610270929190612a9a565b60405180910390f35b610293600480360381019061028e9190612ac1565b610647565b005b6102af60048036038101906102aa9190612b11565b610746565b6040516102bd929190612b4f565b60405180910390f35b6102e060048036038101906102db9190612b11565b610922565b6040516102ed9190612934565b60405180910390f35b610310600480360381019061030b9190612ac1565b6109d6565b005b61032c60048036038101906103279190612987565b6109f5565b005b61034860048036038101906103439190612987565b610a84565b60405161035591906129f1565b60405180910390f35b61037860048036038101906103739190612b76565b610a95565b6040516103859190612a81565b60405180910390f35b610396610b4b565b005b6103a0610b5e565b6040516103ad91906129f1565b60405180910390f35b6103d060048036038101906103cb9190612be2565b610b86565b005b6103da610b9c565b6040516103e79190612934565b60405180910390f35b61040a60048036038101906104059190612c4a565b610c2c565b005b61042660048036038101906104219190612db4565b610c42565b005b610442600480360381019061043d9190612987565b610c5f565b60405161044f9190612934565b60405180910390f35b610472600480360381019061046d9190612ed2565b610ca4565b005b61048e60048036038101906104899190612c4a565b610d61565b005b6104aa60048036038101906104a59190612f3e565b610dc1565b6040516104b79190612891565b60405180910390f35b6104da60048036038101906104d59190612f8e565b610f1b565b6040516104e79190612891565b60405180910390f35b61050a60048036038101906105059190612b76565b610fa9565b005b61052660048036038101906105219190612fcc565b61102d565b6040516105339190612891565b60405180910390f35b5f6105468261112e565b9050919050565b60605f805461055b90613053565b80601f016020809104026020016040519081016040528092919081815260200182805461058790613053565b80156105d25780601f106105a9576101008083540402835291602001916105d2565b820191905f5260205f20905b8154815290600101906020018083116105b557829003601f168201915b5050505050905090565b5f6105e6826111a7565b506105f08261122d565b9050919050565b6106098282610604611266565b61126d565b5050565b600a5481565b5f80600c5f8481526020019081526020015f205f0154600c5f8581526020019081526020015f206001015491509150915091565b5f73ffffffffffffffffffffffffffffffffffffffff168273ffffffffffffffffffffffffffffffffffffffff16036106b7575f6040517f64a0ae920000000000000000000000000000000000000000000000000000000081526004016106ae91906129f1565b60405180910390fd5b5f6106ca83836106c5611266565b61127f565b90508373ffffffffffffffffffffffffffffffffffffffff168173ffffffffffffffffffffffffffffffffffffffff1614610740578382826040517f64283d7b00000000000000000000000000000000000000000000000000000000815260040161073793929190613083565b60405180910390fd5b50505050565b5f805f60095f8681526020019081526020015f206040518060400160405290815f82015f9054906101000a900473ffffffffffffffffffffffffffffffffffffffff1673ffffffffffffffffffffffffffffffffffffffff1673ffffffffffffffffffffffffffffffffffffffff1681526020015f820160149054906101000a90046bffffffffffffffffffffffff166bffffffffffffffffffffffff166bffffffffffffffffffffffff168152505090505f73ffffffffffffffffffffffffffffffffffffffff16815f015173ffffffffffffffffffffffffffffffffffffffff16036108cf5760086040518060400160405290815f82015f9054906101000a900473ffffffffffffffffffffffffffffffffffffffff1673ffffffffffffffffffffffffffffffffffffffff1673ffffffffffffffffffffffffffffffffffffffff1681526020015f820160149054906101000a90046bffffffffffffffffffffffff166bffffffffffffffffffffffff166bffffffffffffffffffffffff168152505090505b5f6108d861148a565b6bffffffffffffffffffffffff1682602001516bffffffffffffffffffffffff168661090491906130e5565b61090e9190613153565b9050815f0151819350935050509250929050565b6060600c5f8481526020019081526020015f206002015f8381526020019081526020015f20805461095290613053565b80601f016020809104026020016040519081016040528092919081815260200182805461097e90613053565b80156109c95780601f106109a0576101008083540402835291602001916109c9565b820191905f5260205f20905b8154815290600101906020018083116109ac57829003601f168201915b5050505050905092915050565b6109f083838360405180602001604052805f815250610c42565b505050565b3373ffffffffffffffffffffffffffffffffffffffff16610a15826111a7565b73ffffffffffffffffffffffffffffffffffffffff1614610a34575f80fd5b610a3d81611493565b3373ffffffffffffffffffffffffffffffffffffffff16817ff6554c3a5d28e08c120b5a69c7edbaf52f935bd2596a60b8a18e282cd257cddb60405160405180910390a350565b5f610a8e826111a7565b9050919050565b5f8073ffffffffffffffffffffffffffffffffffffffff168273ffffffffffffffffffffffffffffffffffffffff1603610b06575f6040517f89c62b64000000000000000000000000000000000000000000000000000000008152600401610afd91906129f1565b60405180910390fd5b60035f8373ffffffffffffffffffffffffffffffffffffffff1673ffffffffffffffffffffffffffffffffffffffff1681526020019081526020015f20549050919050565b610b53611515565b610b5c5f61159c565b565b5f60075f9054906101000a900473ffffffffffffffffffffffffffffffffffffffff16905090565b610b8e611515565b610b98828261165f565b5050565b606060018054610bab90613053565b80601f0160208091040260200160405190810160405280929190818152602001828054610bd790613053565b8015610c225780601f10610bf957610100808354040283529160200191610c22565b820191905f5260205f20905b815481529060010190602001808311610c0557829003601f168201915b5050505050905090565b610c3e610c37611266565b83836117fa565b5050565b610c4d848484610647565b610c5984848484611963565b50505050565b6060600d5f8381526020019081526020015f205f9054906101000a900460ff16610c9357610c8c82611b15565b9050610c9f565b610c9c82611c20565b90505b919050565b600b5f3373ffffffffffffffffffffffffffffffffffffffff1673ffffffffffffffffffffffffffffffffffffffff1681526020019081526020015f205f9054906101000a900460ff16610d2d576040517f08c379a0000000000000000000000000000000000000000000000000000000008152600401610d24906131cd565b60405180910390fd5b600a54821115610d3b575f80fd5b610d458383611cec565b610d4f8282611d09565b610d5c82846102b2611d63565b505050565b610d69611515565b80600b5f8473ffffffffffffffffffffffffffffffffffffffff1673ffffffffffffffffffffffffffffffffffffffff1681526020019081526020015f205f6101000a81548160ff0219169083151502179055505050565b5f600b5f3373ffffffffffffffffffffffffffffffffffffffff1673ffffffffffffffffffffffffffffffffffffffff1681526020019081526020015f205f9054906101000a900460ff16610e4b576040517f08c379a0000000000000000000000000000000000000000000000000000000008152600401610e42906131cd565b60405180910390fd5b5f600c5f8681526020019081526020015f206002015f8581526020019081526020015f20604051602001610e7f919061327e565b6040516020818303038152906040525111610ecf576040517f08c379a0000000000000000000000000000000000000000000000000000000008152600401610ec6906132e8565b60405180910390fd5b81600d5f8681526020019081526020015f205f6101000a81548160ff02191690831515021790555082600c5f8681526020019081526020015f2060010181905550600190509392505050565b5f60055f8473ffffffffffffffffffffffffffffffffffffffff1673ffffffffffffffffffffffffffffffffffffffff1681526020019081526020015f205f8373ffffffffffffffffffffffffffffffffffffffff1673ffffffffffffffffffffffffffffffffffffffff1681526020019081526020015f205f9054906101000a900460ff16905092915050565b610fb1611515565b5f73ffffffffffffffffffffffffffffffffffffffff168173ffffffffffffffffffffffffffffffffffffffff1603611021575f6040517f1e4fbdf700000000000000000000000000000000000000000000000000000000815260040161101891906129f1565b60405180910390fd5b61102a8161159c565b50565b5f600b5f3373ffffffffffffffffffffffffffffffffffffffff1673ffffffffffffffffffffffffffffffffffffffff1681526020019081526020015f205f9054906101000a900460ff166110b7576040517f08c379a00000000000000000000000000000000000000000000000000000000081526004016110ae906131cd565b60405180910390fd5b5f600c5f8581526020019081526020015f205f015490506001816110db9190613306565b600c5f8681526020019081526020015f205f018190555082600c5f8681526020019081526020015f206002015f8381526020019081526020015f20908161112291906134c4565b50600191505092915050565b5f7f2a55205a000000000000000000000000000000000000000000000000000000007bffffffffffffffffffffffffffffffffffffffffffffffffffffffff1916827bffffffffffffffffffffffffffffffffffffffffffffffffffffffff191614806111a0575061119f82611f12565b5b9050919050565b5f806111b283611f72565b90505f73ffffffffffffffffffffffffffffffffffffffff168173ffffffffffffffffffffffffffffffffffffffff160361122457826040517f7e27328900000000000000000000000000000000000000000000000000000000815260040161121b9190612a81565b60405180910390fd5b80915050919050565b5f60045f8381526020019081526020015f205f9054906101000a900473ffffffffffffffffffffffffffffffffffffffff169050919050565b5f33905090565b61127a8383836001611fab565b505050565b5f8061128a84611f72565b90505f73ffffffffffffffffffffffffffffffffffffffff168373ffffffffffffffffffffffffffffffffffffffff16146112cb576112ca81848661216a565b5b5f73ffffffffffffffffffffffffffffffffffffffff168173ffffffffffffffffffffffffffffffffffffffff16146113565761130a5f855f80611fab565b600160035f8373ffffffffffffffffffffffffffffffffffffffff1673ffffffffffffffffffffffffffffffffffffffff1681526020019081526020015f205f82825403925050819055505b5f73ffffffffffffffffffffffffffffffffffffffff168573ffffffffffffffffffffffffffffffffffffffff16146113d557600160035f8773ffffffffffffffffffffffffffffffffffffffff1673ffffffffffffffffffffffffffffffffffffffff1681526020019081526020015f205f82825401925050819055505b8460025f8681526020019081526020015f205f6101000a81548173ffffffffffffffffffffffffffffffffffffffff021916908373ffffffffffffffffffffffffffffffffffffffff160217905550838573ffffffffffffffffffffffffffffffffffffffff168273ffffffffffffffffffffffffffffffffffffffff167fddf252ad1be2c89b69c2b068fc378daa952ba7f163c4a11628f55a4df523b3ef60405160405180910390a4809150509392505050565b5f612710905090565b5f61149f5f835f61127f565b90505f73ffffffffffffffffffffffffffffffffffffffff168173ffffffffffffffffffffffffffffffffffffffff160361151157816040517f7e2732890000000000000000000000000000000000000000000000000000000081526004016115089190612a81565b60405180910390fd5b5050565b61151d611266565b73ffffffffffffffffffffffffffffffffffffffff1661153b610b5e565b73ffffffffffffffffffffffffffffffffffffffff161461159a5761155e611266565b6040517f118cdaa700000000000000000000000000000000000000000000000000000000815260040161159191906129f1565b60405180910390fd5b565b5f60075f9054906101000a900473ffffffffffffffffffffffffffffffffffffffff1690508160075f6101000a81548173ffffffffffffffffffffffffffffffffffffffff021916908373ffffffffffffffffffffffffffffffffffffffff1602179055508173ffffffffffffffffffffffffffffffffffffffff168173ffffffffffffffffffffffffffffffffffffffff167f8be0079c531659141344cd1fd0a4f28419497f9722a3daafe3b4186f6b6457e060405160405180910390a35050565b5f61166861148a565b6bffffffffffffffffffffffff16905080826bffffffffffffffffffffffff1611156116cd5781816040517f6f483d090000000000000000000000000000000000000000000000000000000081526004016116c49291906135c3565b60405180910390fd5b5f73ffffffffffffffffffffffffffffffffffffffff168373ffffffffffffffffffffffffffffffffffffffff160361173d575f6040517fb6d9900a00000000000000000000000000000000000000000000000000000000815260040161173491906129f1565b60405180910390fd5b60405180604001604052808473ffffffffffffffffffffffffffffffffffffffff168152602001836bffffffffffffffffffffffff1681525060085f820151815f015f6101000a81548173ffffffffffffffffffffffffffffffffffffffff021916908373ffffffffffffffffffffffffffffffffffffffff1602179055506020820151815f0160146101000a8154816bffffffffffffffffffffffff02191690836bffffffffffffffffffffffff160217905550905050505050565b5f73ffffffffffffffffffffffffffffffffffffffff168273ffffffffffffffffffffffffffffffffffffffff160361186a57816040517f5b08ba1800000000000000000000000000000000000000000000000000000000815260040161186191906129f1565b60405180910390fd5b8060055f8573ffffffffffffffffffffffffffffffffffffffff1673ffffffffffffffffffffffffffffffffffffffff1681526020019081526020015f205f8473ffffffffffffffffffffffffffffffffffffffff1673ffffffffffffffffffffffffffffffffffffffff1681526020019081526020015f205f6101000a81548160ff0219169083151502179055508173ffffffffffffffffffffffffffffffffffffffff168373ffffffffffffffffffffffffffffffffffffffff167f17307eab39ab6107e8899845ad3d59bd9653f200f220920489ca2b5937696c31836040516119569190612891565b60405180910390a3505050565b5f8373ffffffffffffffffffffffffffffffffffffffff163b1115611b0f578273ffffffffffffffffffffffffffffffffffffffff1663150b7a026119a6611266565b8685856040518563ffffffff1660e01b81526004016119c8949392919061363c565b6020604051808303815f875af1925050508015611a0357506040513d601f19601f82011682018060405250810190611a00919061369a565b60015b611a84573d805f8114611a31576040519150601f19603f3d011682016040523d82523d5f602084013e611a36565b606091505b505f815103611a7c57836040517f64a0ae92000000000000000000000000000000000000000000000000000000008152600401611a7391906129f1565b60405180910390fd5b805181602001fd5b63150b7a0260e01b7bffffffffffffffffffffffffffffffffffffffffffffffffffffffff1916817bffffffffffffffffffffffffffffffffffffffffffffffffffffffff191614611b0d57836040517f64a0ae92000000000000000000000000000000000000000000000000000000008152600401611b0491906129f1565b60405180910390fd5b505b50505050565b6060611b20826111a7565b505f60065f8481526020019081526020015f208054611b3e90613053565b80601f0160208091040260200160405190810160405280929190818152602001828054611b6a90613053565b8015611bb55780601f10611b8c57610100808354040283529160200191611bb5565b820191905f5260205f20905b815481529060010190602001808311611b9857829003601f168201915b505050505090505f611bc561222d565b90505f815103611bd9578192505050611c1b565b5f82511115611c0d578082604051602001611bf59291906136ff565b60405160208183030381529060405292505050611c1b565b611c168461224d565b925050505b919050565b60605f600c5f8481526020019081526020015f20600101549050600c5f8481526020019081526020015f206002015f8281526020019081526020015f208054611c6890613053565b80601f0160208091040260200160405190810160405280929190818152602001828054611c9490613053565b8015611cdf5780601f10611cb657610100808354040283529160200191611cdf565b820191905f5260205f20905b815481529060010190602001808311611cc257829003601f168201915b5050505050915050919050565b611d05828260405180602001604052805f8152506122b3565b5050565b8060065f8481526020019081526020015f209081611d2791906134c4565b507ff8e1a15aba9398e019f0b49df1a4fde98ee17ae345cb5f6b5e2c27f5033e8ce782604051611d579190612a81565b60405180910390a15050565b5f611d6c61148a565b6bffffffffffffffffffffffff16905080826bffffffffffffffffffffffff161115611dd3578382826040517fdfd1fc1b000000000000000000000000000000000000000000000000000000008152600401611dca93929190613722565b60405180910390fd5b5f73ffffffffffffffffffffffffffffffffffffffff168373ffffffffffffffffffffffffffffffffffffffff1603611e4557835f6040517f969f0852000000000000000000000000000000000000000000000000000000008152600401611e3c929190613757565b60405180910390fd5b60405180604001604052808473ffffffffffffffffffffffffffffffffffffffff168152602001836bffffffffffffffffffffffff1681525060095f8681526020019081526020015f205f820151815f015f6101000a81548173ffffffffffffffffffffffffffffffffffffffff021916908373ffffffffffffffffffffffffffffffffffffffff1602179055506020820151815f0160146101000a8154816bffffffffffffffffffffffff02191690836bffffffffffffffffffffffff16021790555090505050505050565b5f634906490660e01b7bffffffffffffffffffffffffffffffffffffffffffffffffffffffff1916827bffffffffffffffffffffffffffffffffffffffffffffffffffffffff19161480611f6b5750611f6a826122ce565b5b9050919050565b5f60025f8381526020019081526020015f205f9054906101000a900473ffffffffffffffffffffffffffffffffffffffff169050919050565b8080611fe357505f73ffffffffffffffffffffffffffffffffffffffff168273ffffffffffffffffffffffffffffffffffffffff1614155b15612115575f611ff2846111a7565b90505f73ffffffffffffffffffffffffffffffffffffffff168373ffffffffffffffffffffffffffffffffffffffff161415801561205c57508273ffffffffffffffffffffffffffffffffffffffff168173ffffffffffffffffffffffffffffffffffffffff1614155b801561206f575061206d8184610f1b565b155b156120b157826040517fa9fbf51f0000000000000000000000000000000000000000000000000000000081526004016120a891906129f1565b60405180910390fd5b811561211357838573ffffffffffffffffffffffffffffffffffffffff168273ffffffffffffffffffffffffffffffffffffffff167f8c5be1e5ebec7d5bd14f71427d1e84f3dd0314c0f7b2291e5b200ac8c7c3b92560405160405180910390a45b505b8360045f8581526020019081526020015f205f6101000a81548173ffffffffffffffffffffffffffffffffffffffff021916908373ffffffffffffffffffffffffffffffffffffffff16021790555050505050565b6121758383836123af565b612228575f73ffffffffffffffffffffffffffffffffffffffff168373ffffffffffffffffffffffffffffffffffffffff16036121e957806040517f7e2732890000000000000000000000000000000000000000000000000000000081526004016121e09190612a81565b60405180910390fd5b81816040517f177e802f00000000000000000000000000000000000000000000000000000000815260040161221f929190612b4f565b60405180910390fd5b505050565b606060405180608001604052806042815260200161377f60429139905090565b6060612258826111a7565b505f61226261222d565b90505f8151116122805760405180602001604052805f8152506122ab565b8061228a8461246f565b60405160200161229b9291906136ff565b6040516020818303038152906040525b915050919050565b6122bd8383612539565b6122c95f848484611963565b505050565b5f7f80ac58cd000000000000000000000000000000000000000000000000000000007bffffffffffffffffffffffffffffffffffffffffffffffffffffffff1916827bffffffffffffffffffffffffffffffffffffffffffffffffffffffff1916148061239857507f5b5e139f000000000000000000000000000000000000000000000000000000007bffffffffffffffffffffffffffffffffffffffffffffffffffffffff1916827bffffffffffffffffffffffffffffffffffffffffffffffffffffffff1916145b806123a857506123a78261262c565b5b9050919050565b5f8073ffffffffffffffffffffffffffffffffffffffff168373ffffffffffffffffffffffffffffffffffffffff161415801561246657508273ffffffffffffffffffffffffffffffffffffffff168473ffffffffffffffffffffffffffffffffffffffff16148061242757506124268484610f1b565b5b8061246557508273ffffffffffffffffffffffffffffffffffffffff1661244d8361122d565b73ffffffffffffffffffffffffffffffffffffffff16145b5b90509392505050565b60605f600161247d84612695565b0190505f8167ffffffffffffffff81111561249b5761249a612c90565b5b6040519080825280601f01601f1916602001820160405280156124cd5781602001600182028036833780820191505090505b5090505f82602001820190505b60011561252e578080600190039150507f3031323334353637383961626364656600000000000000000000000000000000600a86061a8153600a858161252357612522613126565b5b0494505f85036124da575b819350505050919050565b5f73ffffffffffffffffffffffffffffffffffffffff168273ffffffffffffffffffffffffffffffffffffffff16036125a9575f6040517f64a0ae920000000000000000000000000000000000000000000000000000000081526004016125a091906129f1565b60405180910390fd5b5f6125b583835f61127f565b90505f73ffffffffffffffffffffffffffffffffffffffff168173ffffffffffffffffffffffffffffffffffffffff1614612627575f6040517f73c6ac6e00000000000000000000000000000000000000000000000000000000815260040161261e91906129f1565b60405180910390fd5b505050565b5f7f01ffc9a7000000000000000000000000000000000000000000000000000000007bffffffffffffffffffffffffffffffffffffffffffffffffffffffff1916827bffffffffffffffffffffffffffffffffffffffffffffffffffffffff1916149050919050565b5f805f90507a184f03e93ff9f4daa797ed6e38ed64bf6a1f01000000000000000083106126f1577a184f03e93ff9f4daa797ed6e38ed64bf6a1f01000000000000000083816126e7576126e6613126565b5b0492506040810190505b6d04ee2d6d415b85acef8100000000831061272e576d04ee2d6d415b85acef8100000000838161272457612723613126565b5b0492506020810190505b662386f26fc10000831061275d57662386f26fc10000838161275357612752613126565b5b0492506010810190505b6305f5e1008310612786576305f5e100838161277c5761277b613126565b5b0492506008810190505b61271083106127ab5761271083816127a1576127a0613126565b5b0492506004810190505b606483106127ce57606483816127c4576127c3613126565b5b0492506002810190505b600a83106127dd576001810190505b80915050919050565b5f604051905090565b5f80fd5b5f80fd5b5f7fffffffff0000000000000000000000000000000000000000000000000000000082169050919050565b61282b816127f7565b8114612835575f80fd5b50565b5f8135905061284681612822565b92915050565b5f60208284031215612861576128606127ef565b5b5f61286e84828501612838565b91505092915050565b5f8115159050919050565b61288b81612877565b82525050565b5f6020820190506128a45f830184612882565b92915050565b5f81519050919050565b5f82825260208201905092915050565b5f5b838110156128e15780820151818401526020810190506128c6565b5f8484015250505050565b5f601f19601f8301169050919050565b5f612906826128aa565b61291081856128b4565b93506129208185602086016128c4565b612929816128ec565b840191505092915050565b5f6020820190508181035f83015261294c81846128fc565b905092915050565b5f819050919050565b61296681612954565b8114612970575f80fd5b50565b5f813590506129818161295d565b92915050565b5f6020828403121561299c5761299b6127ef565b5b5f6129a984828501612973565b91505092915050565b5f73ffffffffffffffffffffffffffffffffffffffff82169050919050565b5f6129db826129b2565b9050919050565b6129eb816129d1565b82525050565b5f602082019050612a045f8301846129e2565b92915050565b612a13816129d1565b8114612a1d575f80fd5b50565b5f81359050612a2e81612a0a565b92915050565b5f8060408385031215612a4a57612a496127ef565b5b5f612a5785828601612a20565b9250506020612a6885828601612973565b9150509250929050565b612a7b81612954565b82525050565b5f602082019050612a945f830184612a72565b92915050565b5f604082019050612aad5f830185612a72565b612aba6020830184612a72565b9392505050565b5f805f60608486031215612ad857612ad76127ef565b5b5f612ae586828701612a20565b9350506020612af686828701612a20565b9250506040612b0786828701612973565b9150509250925092565b5f8060408385031215612b2757612b266127ef565b5b5f612b3485828601612973565b9250506020612b4585828601612973565b9150509250929050565b5f604082019050612b625f8301856129e2565b612b6f6020830184612a72565b9392505050565b5f60208284031215612b8b57612b8a6127ef565b5b5f612b9884828501612a20565b91505092915050565b5f6bffffffffffffffffffffffff82169050919050565b612bc181612ba1565b8114612bcb575f80fd5b50565b5f81359050612bdc81612bb8565b92915050565b5f8060408385031215612bf857612bf76127ef565b5b5f612c0585828601612a20565b9250506020612c1685828601612bce565b9150509250929050565b612c2981612877565b8114612c33575f80fd5b50565b5f81359050612c4481612c20565b92915050565b5f8060408385031215612c6057612c5f6127ef565b5b5f612c6d85828601612a20565b9250506020612c7e85828601612c36565b9150509250929050565b5f80fd5b5f80fd5b7f4e487b71000000000000000000000000000000000000000000000000000000005f52604160045260245ffd5b612cc6826128ec565b810181811067ffffffffffffffff82111715612ce557612ce4612c90565b5b80604052505050565b5f612cf76127e6565b9050612d038282612cbd565b919050565b5f67ffffffffffffffff821115612d2257612d21612c90565b5b612d2b826128ec565b9050602081019050919050565b828183375f83830152505050565b5f612d58612d5384612d08565b612cee565b905082815260208101848484011115612d7457612d73612c8c565b5b612d7f848285612d38565b509392505050565b5f82601f830112612d9b57612d9a612c88565b5b8135612dab848260208601612d46565b91505092915050565b5f805f8060808587031215612dcc57612dcb6127ef565b5b5f612dd987828801612a20565b9450506020612dea87828801612a20565b9350506040612dfb87828801612973565b925050606085013567ffffffffffffffff811115612e1c57612e1b6127f3565b5b612e2887828801612d87565b91505092959194509250565b5f67ffffffffffffffff821115612e4e57612e4d612c90565b5b612e57826128ec565b9050602081019050919050565b5f612e76612e7184612e34565b612cee565b905082815260208101848484011115612e9257612e91612c8c565b5b612e9d848285612d38565b509392505050565b5f82601f830112612eb957612eb8612c88565b5b8135612ec9848260208601612e64565b91505092915050565b5f805f60608486031215612ee957612ee86127ef565b5b5f612ef686828701612a20565b9350506020612f0786828701612973565b925050604084013567ffffffffffffffff811115612f2857612f276127f3565b5b612f3486828701612ea5565b9150509250925092565b5f805f60608486031215612f5557612f546127ef565b5b5f612f6286828701612973565b9350506020612f7386828701612973565b9250506040612f8486828701612c36565b9150509250925092565b5f8060408385031215612fa457612fa36127ef565b5b5f612fb185828601612a20565b9250506020612fc285828601612a20565b9150509250929050565b5f8060408385031215612fe257612fe16127ef565b5b5f612fef85828601612973565b925050602083013567ffffffffffffffff8111156130105761300f6127f3565b5b61301c85828601612ea5565b9150509250929050565b7f4e487b71000000000000000000000000000000000000000000000000000000005f52602260045260245ffd5b5f600282049050600182168061306a57607f821691505b60208210810361307d5761307c613026565b5b50919050565b5f6060820190506130965f8301866129e2565b6130a36020830185612a72565b6130b060408301846129e2565b949350505050565b7f4e487b71000000000000000000000000000000000000000000000000000000005f52601160045260245ffd5b5f6130ef82612954565b91506130fa83612954565b925082820261310881612954565b9150828204841483151761311f5761311e6130b8565b5b5092915050565b7f4e487b71000000000000000000000000000000000000000000000000000000005f52601260045260245ffd5b5f61315d82612954565b915061316883612954565b92508261317857613177613126565b5b828204905092915050565b7f6e6f7420616c6c6f7765640000000000000000000000000000000000000000005f82015250565b5f6131b7600b836128b4565b91506131c282613183565b602082019050919050565b5f6020820190508181035f8301526131e4816131ab565b9050919050565b5f819050815f5260205f209050919050565b5f815461320981613053565b61321381866128b4565b9450600182165f811461322d576001811461324357613275565b60ff198316865281151560200286019350613275565b61324c856131eb565b5f5b8381101561326d5781548189015260018201915060208101905061324e565b808801955050505b50505092915050565b5f6020820190508181035f83015261329681846131fd565b905092915050565b7f656d70747920736c6f74000000000000000000000000000000000000000000005f82015250565b5f6132d2600a836128b4565b91506132dd8261329e565b602082019050919050565b5f6020820190508181035f8301526132ff816132c6565b9050919050565b5f61331082612954565b915061331b83612954565b9250828201905080821115613333576133326130b8565b5b92915050565b5f6020601f8301049050919050565b5f82821b905092915050565b5f600883026133837fffffffffffffffffffffffffffffffffffffffffffffffffffffffffffffffff82613348565b61338d8683613348565b95508019841693508086168417925050509392505050565b5f819050919050565b5f6133c86133c36133be84612954565b6133a5565b612954565b9050919050565b5f819050919050565b6133e1836133ae565b6133f56133ed826133cf565b848454613354565b825550505050565b5f90565b6134096133fd565b6134148184846133d8565b505050565b5b818110156134375761342c5f82613401565b60018101905061341a565b5050565b601f82111561347c5761344d816131eb565b61345684613339565b81016020851015613465578190505b61347961347185613339565b830182613419565b50505b505050565b5f82821c905092915050565b5f61349c5f1984600802613481565b1980831691505092915050565b5f6134b4838361348d565b9150826002028217905092915050565b6134cd826128aa565b67ffffffffffffffff8111156134e6576134e5612c90565b5b6134f08254613053565b6134fb82828561343b565b5f60209050601f83116001811461352c575f841561351a578287015190505b61352485826134a9565b86555061358b565b601f19841661353a866131eb565b5f5b828110156135615784890151825560018201915060208501945060208101905061353c565b8683101561357e578489015161357a601f89168261348d565b8355505b6001600288020188555050505b505050505050565b5f6135ad6135a86135a384612ba1565b6133a5565b612954565b9050919050565b6135bd81613593565b82525050565b5f6040820190506135d65f8301856135b4565b6135e36020830184612a72565b9392505050565b5f81519050919050565b5f82825260208201905092915050565b5f61360e826135ea565b61361881856135f4565b93506136288185602086016128c4565b613631816128ec565b840191505092915050565b5f60808201905061364f5f8301876129e2565b61365c60208301866129e2565b6136696040830185612a72565b818103606083015261367b8184613604565b905095945050505050565b5f8151905061369481612822565b92915050565b5f602082840312156136af576136ae6127ef565b5b5f6136bc84828501613686565b91505092915050565b5f81905092915050565b5f6136d9826128aa565b6136e381856136c5565b93506136f38185602086016128c4565b80840191505092915050565b5f61370a82856136cf565b915061371682846136cf565b91508190509392505050565b5f6060820190506137355f830186612a72565b61374260208301856135b4565b61374f6040830184612a72565b949350505050565b5f60408201905061376a5f830185612a72565b61377760208301846129e2565b939250505056fe697066733a2f2f626166796265696277706b6b3235686a3732696c6465686c78636f777a626e65337636796935623362716779337a69703669773367327136743575a2646970667358221220f43d835441b49ab0b20c261423f47d94a2d61979a94d00a0d19d93953c1afc1164736f6c63430008140033","linkReferences":{}},"methodIdentifiers":{"addExtendedUri(uint256,string)":"fb27c277","addManager(address,bool)":"cec26e51","approve(address,uint256)":"095ea7b3","balanceOf(address)":"70a08231","burn(uint256)":"42966c68","getApproved(uint256)":"081812fc","getMultiUriData(uint256)":"19861423","getUri(uint256,uint256)":"3b65bcfe","isApprovedForAll(address,address)":"e985e9c5","name()":"06fdde03","owner()":"8da5cb5b","ownerOf(uint256)":"6352211e","renounceOwnership()":"715018a6","royaltyInfo(uint256,uint256)":"2a55205a","safeMint(address,uint256,string)":"cd279c7c","safeTransferFrom(address,address,uint256)":"42842e0e","safeTransferFrom(address,address,uint256,bytes)":"b88d4fde","setApprovalForAll(address,bool)":"a22cb465","setExtendedUri(uint256,uint256,bool)":"d354ec59","setRoyalty(address,uint96)":"8f2fc60b","supportsInterface(bytes4)":"01ffc9a7","symbol()":"95d89b41","tokenURI(uint256)":"c87b56dd","totalSupply()":"18160ddd","transferFrom(address,address,uint256)":"23b872dd","transferOwnership(address)":"f2fde38b"},"id":49}