{"abi":[{"type":"constructor","inputs":[],"stateMutability":"nonpayable"},{"type":"function","name":"addExtendedUri","inputs":[{"name":"tokenId","type":"uint256","internalType":"uint256"},{"name":"_uri","type":"string","internalType":"string"}],"outputs":[{"name":"","type":"bool","internalType":"bool"}],"stateMutability":"nonpayable"},{"type":"function","name":"addManager","inputs":[{"name":"a","type":"address","internalType":"address"},{"name":"state","type":"bool","internalType":"bool"}],"outputs":[],"stateMutability":"nonpayable"},{"type":"function","name":"approve","inputs":[{"name":"to","type":"address","internalType":"address"},{"name":"tokenId","type":"uint256","internalType":"uint256"}],"outputs":[],"stateMutability":"nonpayable"},{"type":"function","name":"balanceOf","inputs":[{"name":"owner","type":"address","internalType":"address"}],"outputs":[{"name":"","type":"uint256","internalType":"uint256"}],"stateMutability":"view"},{"type":"function","name":"burn","inputs":[{"name":"id","type":"uint256","internalType":"uint256"}],"outputs":[],"stateMutability":"nonpayable"},{"type":"function","name":"getApproved","inputs":[{"name":"tokenId","type":"uint256","internalType":"uint256"}],"outputs":[{"name":"","type":"address","internalType":"address"}],"stateMutability":"view"},{"type":"function","name":"getMultiUriData","inputs":[{"name":"id","type":"uint256","internalType":"uint256"}],"outputs":[{"name":"","type":"uint256","internalType":"uint256"},{"name":"","type":"uint256","internalType":"uint256"}],"stateMutability":"view"},{"type":"function","name":"getUri","inputs":[{"name":"id","type":"uint256","internalType":"uint256"},{"name":"index","type":"uint256","internalType":"uint256"}],"outputs":[{"name":"","type":"string","internalType":"string"}],"stateMutability":"view"},{"type":"function","name":"isApprovedForAll","inputs":[{"name":"owner","type":"address","internalType":"address"},{"name":"operator","type":"address","internalType":"address"}],"outputs":[{"name":"","type":"bool","internalType":"bool"}],"stateMutability":"view"},{"type":"function","name":"name","inputs":[],"outputs":[{"name":"","type":"string","internalType":"string"}],"stateMutability":"view"},{"type":"function","name":"owner","inputs":[],"outputs":[{"name":"","type":"address","internalType":"address"}],"stateMutability":"view"},{"type":"function","name":"ownerOf","inputs":[{"name":"tokenId","type":"uint256","internalType":"uint256"}],"outputs":[{"name":"","type":"address","internalType":"address"}],"stateMutability":"view"},{"type":"function","name":"renounceOwnership","inputs":[],"outputs":[],"stateMutability":"nonpayable"},{"type":"function","name":"royaltyInfo","inputs":[{"name":"tokenId","type":"uint256","internalType":"uint256"},{"name":"salePrice","type":"uint256","internalType":"uint256"}],"outputs":[{"name":"","type":"address","internalType":"address"},{"name":"","type":"uint256","internalType":"uint256"}],"stateMutability":"view"},{"type":"function","name":"safeMint","inputs":[{"name":"to","type":"address","internalType":"address"},{"name":"tokenId","type":"uint256","internalType":"uint256"},{"name":"uri","type":"string","internalType":"string"}],"outputs":[],"stateMutability":"nonpayable"},{"type":"function","name":"safeTransferFrom","inputs":[{"name":"from","type":"address","internalType":"address"},{"name":"to","type":"address","internalType":"address"},{"name":"tokenId","type":"uint256","internalType":"uint256"}],"outputs":[],"stateMutability":"nonpayable"},{"type":"function","name":"safeTransferFrom","inputs":[{"name":"from","type":"address","internalType":"address"},{"name":"to","type":"address","internalType":"address"},{"name":"tokenId","type":"uint256","internalType":"uint256"},{"name":"data","type":"bytes","internalType":"bytes"}],"outputs":[],"stateMutability":"nonpayable"},{"type":"function","name":"setApprovalForAll","inputs":[{"name":"operator","type":"address","internalType":"address"},{"name":"approved","type":"bool","internalType":"bool"}],"outputs":[],"stateMutability":"nonpayable"},{"type":"function","name":"setExtendedUri","inputs":[{"name":"tokenId","type":"uint256","internalType":"uint256"},{"name":"uriIndex","type":"uint256","internalType":"uint256"},{"name":"state","type":"bool","internalType":"bool"}],"outputs":[{"name":"","type":"bool","internalType":"bool"}],"stateMutability":"nonpayable"},{"type":"function","name":"setRoyalty","inputs":[{"name":"reciever","type":"address","internalType":"address"},{"name":"fraction","type":"uint96","internalType":"uint96"}],"outputs":[],"stateMutability":"nonpayable"},{"type":"function","name":"supportsInterface","inputs":[{"name":"interfaceId","type":"bytes4","internalType":"bytes4"}],"outputs":[{"name":"","type":"bool","internalType":"bool"}],"stateMutability":"view"},{"type":"function","name":"symbol","inputs":[],"outputs":[{"name":"","type":"string","internalType":"string"}],"stateMutability":"view"},{"type":"function","name":"tokenURI","inputs":[{"name":"tokenId","type":"uint256","internalType":"uint256"}],"outputs":[{"name":"","type":"string","internalType":"string"}],"stateMutability":"view"},{"type":"function","name":"totalSupply","inputs":[],"outputs":[{"name":"","type":"uint256","internalType":"uint256"}],"stateMutability":"view"},{"type":"function","name":"transferFrom","inputs":[{"name":"from","type":"address","internalType":"address"},{"name":"to","type":"address","internalType":"address"},{"name":"tokenId","type":"uint256","internalType":"uint256"}],"outputs":[],"stateMutability":"nonpayable"},{"type":"function","name":"transferOwnership","inputs":[{"name":"newOwner","type":"address","internalType":"address"}],"outputs":[],"stateMutability":"nonpayable"},{"type":"event","name":"Approval","inputs":[{"name":"owner","type":"address","indexed":true,"internalType":"address"},{"name":"approved","type":"address","indexed":true,"internalType":"address"},{"name":"tokenId","type":"uint256","indexed":true,"internalType":"uint256"}],"anonymous":false},{"type":"event","name":"ApprovalForAll","inputs":[{"name":"owner","type":"address","indexed":true,"internalType":"address"},{"name":"operator","type":"address","indexed":true,"internalType":"address"},{"name":"approved","type":"bool","indexed":false,"internalType":"bool"}],"anonymous":false},{"type":"event","name":"BatchMetadataUpdate","inputs":[{"name":"_fromTokenId","type":"uint256","indexed":false,"internalType":"uint256"},{"name":"_toTokenId","type":"uint256","indexed":false,"internalType":"uint256"}],"anonymous":false},{"type":"event","name":"Burn","inputs":[{"name":"id","type":"uint256","indexed":true,"internalType":"uint256"},{"name":"from","type":"address","indexed":true,"internalType":"address"}],"anonymous":false},{"type":"event","name":"MetadataUpdate","inputs":[{"name":"_tokenId","type":"uint256","indexed":false,"internalType":"uint256"}],"anonymous":false},{"type":"event","name":"OwnershipTransferred","inputs":[{"name":"previousOwner","type":"address","indexed":true,"internalType":"address"},{"name":"newOwner","type":"address","indexed":true,"internalType":"address"}],"anonymous":false},{"type":"event","name":"Transfer","inputs":[{"name":"from","type":"address","indexed":true,"internalType":"address"},{"name":"to","type":"address","indexed":true,"internalType":"address"},{"name":"tokenId","type":"uint256","indexed":true,"internalType":"uint256"}],"anonymous":false},{"type":"event","name":"Unwrap","inputs":[{"name":"id","type":"uint256","indexed":true,"internalType":"uint256"},{"name":"amount","type":"uint256","indexed":false,"internalType":"uint256"},{"name":"to","type":"address","indexed":true,"internalType":"address"}],"anonymous":false},{"type":"event","name":"Wrap","inputs":[{"name":"id","type":"uint256","indexed":true,"internalType":"uint256"},{"name":"amount","type":"uint256","indexed":false,"internalType":"uint256"},{"name":"from","type":"address","indexed":true,"internalType":"address"}],"anonymous":false},{"type":"error","name":"ERC2981InvalidDefaultRoyalty","inputs":[{"name":"numerator","type":"uint256","internalType":"uint256"},{"name":"denominator","type":"uint256","internalType":"uint256"}]},{"type":"error","name":"ERC2981InvalidDefaultRoyaltyReceiver","inputs":[{"name":"receiver","type":"address","internalType":"address"}]},{"type":"error","name":"ERC2981InvalidTokenRoyalty","inputs":[{"name":"tokenId","type":"uint256","internalType":"uint256"},{"name":"numerator","type":"uint256","internalType":"uint256"},{"name":"denominator","type":"uint256","internalType":"uint256"}]},{"type":"error","name":"ERC2981InvalidTokenRoyaltyReceiver","inputs":[{"name":"tokenId","type":"uint256","internalType":"uint256"},{"name":"receiver","type":"address","internalType":"address"}]},{"type":"error","name":"ERC721IncorrectOwner","inputs":[{"name":"sender","type":"address","internalType":"address"},{"name":"tokenId","type":"uint256","internalType":"uint256"},{"name":"owner","type":"address","internalType":"address"}]},{"type":"error","name":"ERC721InsufficientApproval","inputs":[{"name":"operator","type":"address","internalType":"address"},{"name":"tokenId","type":"uint256","internalType":"uint256"}]},{"type":"error","name":"ERC721InvalidApprover","inputs":[{"name":"approver","type":"address","internalType":"address"}]},{"type":"error","name":"ERC721InvalidOperator","inputs":[{"name":"operator","type":"address","internalType":"address"}]},{"type":"error","name":"ERC721InvalidOwner","inputs":[{"name":"owner","type":"address","internalType":"address"}]},{"type":"error","name":"ERC721InvalidReceiver","inputs":[{"name":"receiver","type":"address","internalType":"address"}]},{"type":"error","name":"ERC721InvalidSender","inputs":[{"name":"sender","type":"address","internalType":"address"}]},{"type":"error","name":"ERC721NonexistentToken","inputs":[{"name":"tokenId","type":"uint256","internalType":"uint256"}]},{"type":"error","name":"OwnableInvalidOwner","inputs":[{"name":"owner","type":"address","internalType":"address"}]},{"type":"error","name":"OwnableUnauthorizedAccount","inputs":[{"name":"account","type":"address","internalType":"address"}]}],"bytecode":{"object":"0x6080604052612710600a553480156200001757600080fd5b50336040518060400160405280600f81526020016e2127aa299027a3102124aa21a7a4a760891b815250604051806040016040528060038152602001622127a160e91b81525081600090816200006e919062000288565b5060016200007d828262000288565b5050506001600160a01b038116620000b057604051631e4fbdf760e01b8152600060048201526024015b60405180910390fd5b620000bb81620000ea565b50620000ca336102b26200013c565b336000908152600b60205260409020805460ff1916600117905562000354565b600780546001600160a01b038381166001600160a01b0319831681179093556040519116919082907f8be0079c531659141344cd1fd0a4f28419497f9722a3daafe3b4186f6b6457e090600090a35050565b6127106001600160601b0382168110156200017d57604051636f483d0960e01b81526001600160601b038316600482015260248101829052604401620000a7565b6001600160a01b038316620001a957604051635b6cc80560e11b815260006004820152602401620000a7565b50604080518082019091526001600160a01b039092168083526001600160601b039091166020909201829052600160a01b90910217600855565b634e487b7160e01b600052604160045260246000fd5b600181811c908216806200020e57607f821691505b6020821081036200022f57634e487b7160e01b600052602260045260246000fd5b50919050565b601f8211156200028357600081815260208120601f850160051c810160208610156200025e5750805b601f850160051c820191505b818110156200027f578281556001016200026a565b5050505b505050565b81516001600160401b03811115620002a457620002a4620001e3565b620002bc81620002b58454620001f9565b8462000235565b602080601f831160018114620002f45760008415620002db5750858301515b600019600386901b1c1916600185901b1785556200027f565b600085815260208120601f198616915b82811015620003255788860151825594840194600190910190840162000304565b5085821015620003445787850151600019600388901b60f8161c191681555b5050505050600190811b01905550565b611de380620003646000396000f3fe608060405234801561001057600080fd5b506004361061018e5760003560e01c8063715018a6116100de578063c87b56dd11610097578063d354ec5911610071578063d354ec591461039b578063e985e9c5146103ae578063f2fde38b146103c1578063fb27c277146103d457600080fd5b8063c87b56dd14610362578063cd279c7c14610375578063cec26e511461038857600080fd5b8063715018a6146103085780638da5cb5b146103105780638f2fc60b1461032157806395d89b4114610334578063a22cb4651461033c578063b88d4fde1461034f57600080fd5b806323b872dd1161014b57806342842e0e1161012557806342842e0e146102bc57806342966c68146102cf5780636352211e146102e257806370a08231146102f557600080fd5b806323b872dd146102645780632a55205a146102775780633b65bcfe146102a957600080fd5b806301ffc9a71461019357806306fdde03146101bb578063081812fc146101d0578063095ea7b3146101fb57806318160ddd146102105780631986142314610227575b600080fd5b6101a66101a136600461168a565b6103e7565b60405190151581526020015b60405180910390f35b6101c36103f8565b6040516101b291906116f7565b6101e36101de36600461170a565b61048a565b6040516001600160a01b0390911681526020016101b2565b61020e61020936600461173a565b6104b3565b005b610219600a5481565b6040519081526020016101b2565b61024f61023536600461170a565b6000908152600c6020526040902080546001909101549091565b604080519283526020830191909152016101b2565b61020e610272366004611764565b6104c2565b61028a6102853660046117a0565b610552565b604080516001600160a01b0390931683526020830191909152016101b2565b6101c36102b73660046117a0565b6105fe565b61020e6102ca366004611764565b6106af565b61020e6102dd36600461170a565b6106cf565b6101e36102f036600461170a565b610725565b6102196103033660046117c2565b610730565b61020e610778565b6007546001600160a01b03166101e3565b61020e61032f3660046117dd565b61078c565b6101c361079e565b61020e61034a366004611830565b6107ad565b61020e61035d3660046118ef565b6107b8565b6101c361037036600461170a565b6107cf565b61020e61038336600461198b565b6107ff565b61020e610396366004611830565b61085e565b6101a66103a93660046119e2565b610891565b6101a66103bc366004611a17565b610967565b61020e6103cf3660046117c2565b610995565b6101a66103e2366004611a41565b6109d3565b60006103f282610a50565b92915050565b60606000805461040790611a88565b80601f016020809104026020016040519081016040528092919081815260200182805461043390611a88565b80156104805780601f1061045557610100808354040283529160200191610480565b820191906000526020600020905b81548152906001019060200180831161046357829003601f168201915b5050505050905090565b600061049582610a75565b506000828152600460205260409020546001600160a01b03166103f2565b6104be828233610aae565b5050565b6001600160a01b0382166104f157604051633250574960e11b8152600060048201526024015b60405180910390fd5b60006104fe838333610abb565b9050836001600160a01b0316816001600160a01b03161461054c576040516364283d7b60e01b81526001600160a01b03808616600483015260248201849052821660448201526064016104e8565b50505050565b60008281526009602090815260408083208151808301909252546001600160a01b038116808352600160a01b9091046001600160601b03169282019290925282916105c75750604080518082019091526008546001600160a01b0381168252600160a01b90046001600160601b031660208201525b6020810151600090612710906105e6906001600160601b031687611ad8565b6105f09190611aef565b915196919550909350505050565b6000828152600c60209081526040808320848452600201909152902080546060919061062990611a88565b80601f016020809104026020016040519081016040528092919081815260200182805461065590611a88565b80156106a25780601f10610677576101008083540402835291602001916106a2565b820191906000526020600020905b81548152906001019060200180831161068557829003601f168201915b5050505050905092915050565b6106ca838383604051806020016040528060008152506107b8565b505050565b336106d982610a75565b6001600160a01b0316146106ec57600080fd5b6106f581610bb4565b604051339082907ff6554c3a5d28e08c120b5a69c7edbaf52f935bd2596a60b8a18e282cd257cddb90600090a350565b60006103f282610a75565b60006001600160a01b03821661075c576040516322718ad960e21b8152600060048201526024016104e8565b506001600160a01b031660009081526003602052604090205490565b610780610bef565b61078a6000610c1c565b565b610794610bef565b6104be8282610c6e565b60606001805461040790611a88565b6104be338383610d11565b6107c38484846104c2565b61054c84848484610db0565b6000818152600d602052604090205460609060ff166107f1576103f282610ed9565b6103f282610fdd565b919050565b336000908152600b602052604090205460ff1661082e5760405162461bcd60e51b81526004016104e890611b11565b600a5482111561083d57600080fd5b6108478383611097565b61085182826110b1565b6106ca82846102b2611101565b610866610bef565b6001600160a01b03919091166000908152600b60205260409020805460ff1916911515919091179055565b336000908152600b602052604081205460ff166108c05760405162461bcd60e51b81526004016104e890611b11565b6000848152600c60209081526040808320868452600201825280832090516108e89201611b36565b60405160208183030381529060405251116109325760405162461bcd60e51b815260206004820152600a602482015269195b5c1d1e481cdb1bdd60b21b60448201526064016104e8565b506000928352600d60209081526040808520805460ff191693151593909317909255600c905290912060019081019190915590565b6001600160a01b03918216600090815260056020908152604080832093909416825291909152205460ff1690565b61099d610bef565b6001600160a01b0381166109c757604051631e4fbdf760e01b8152600060048201526024016104e8565b6109d081610c1c565b50565b336000908152600b602052604081205460ff16610a025760405162461bcd60e51b81526004016104e890611b11565b6000838152600c6020526040902054610a1c816001611bc1565b6000858152600c602090815260408083209384558483526002909301905220610a458482611c22565b506001949350505050565b60006001600160e01b0319821663152a902d60e11b14806103f257506103f2826111c3565b6000818152600260205260408120546001600160a01b0316806103f257604051637e27328960e01b8152600481018490526024016104e8565b6106ca83838360016111e8565b6000828152600260205260408120546001600160a01b0390811690831615610ae857610ae88184866112ee565b6001600160a01b03811615610b2657610b056000856000806111e8565b6001600160a01b038116600090815260036020526040902080546000190190555b6001600160a01b03851615610b55576001600160a01b0385166000908152600360205260409020805460010190555b60008481526002602052604080822080546001600160a01b0319166001600160a01b0389811691821790925591518793918516917fddf252ad1be2c89b69c2b068fc378daa952ba7f163c4a11628f55a4df523b3ef91a4949350505050565b6000610bc36000836000610abb565b90506001600160a01b0381166104be57604051637e27328960e01b8152600481018390526024016104e8565b6007546001600160a01b0316331461078a5760405163118cdaa760e01b81523360048201526024016104e8565b600780546001600160a01b038381166001600160a01b0319831681179093556040519116919082907f8be0079c531659141344cd1fd0a4f28419497f9722a3daafe3b4186f6b6457e090600090a35050565b6127106001600160601b038216811015610cad57604051636f483d0960e01b81526001600160601b0383166004820152602481018290526044016104e8565b6001600160a01b038316610cd757604051635b6cc80560e11b8152600060048201526024016104e8565b50604080518082019091526001600160a01b039092168083526001600160601b039091166020909201829052600160a01b90910217600855565b6001600160a01b038216610d4357604051630b61174360e31b81526001600160a01b03831660048201526024016104e8565b6001600160a01b03838116600081815260056020908152604080832094871680845294825291829020805460ff191686151590811790915591519182527f17307eab39ab6107e8899845ad3d59bd9653f200f220920489ca2b5937696c31910160405180910390a3505050565b6001600160a01b0383163b1561054c57604051630a85bd0160e11b81526001600160a01b0384169063150b7a0290610df2903390889087908790600401611ce2565b6020604051808303816000875af1925050508015610e2d575060408051601f3d908101601f19168201909252610e2a91810190611d1f565b60015b610e96573d808015610e5b576040519150601f19603f3d011682016040523d82523d6000602084013e610e60565b606091505b508051600003610e8e57604051633250574960e11b81526001600160a01b03851660048201526024016104e8565b805181602001fd5b6001600160e01b03198116630a85bd0160e11b14610ed257604051633250574960e11b81526001600160a01b03851660048201526024016104e8565b5050505050565b6060610ee482610a75565b5060008281526006602052604081208054610efe90611a88565b80601f0160208091040260200160405190810160405280929190818152602001828054610f2a90611a88565b8015610f775780601f10610f4c57610100808354040283529160200191610f77565b820191906000526020600020905b815481529060010190602001808311610f5a57829003601f168201915b505050505090506000610f88611352565b90508051600003610f9a575092915050565b815115610fcc578082604051602001610fb4929190611d3c565b60405160208183030381529060405292505050919050565b610fd584611372565b949350505050565b6000818152600c60209081526040808320600181015480855260029091019092529091208054606092919061101190611a88565b80601f016020809104026020016040519081016040528092919081815260200182805461103d90611a88565b801561108a5780601f1061105f5761010080835404028352916020019161108a565b820191906000526020600020905b81548152906001019060200180831161106d57829003601f168201915b5050505050915050919050565b6104be8282604051806020016040528060008152506113da565b60008281526006602052604090206110c98282611c22565b506040518281527ff8e1a15aba9398e019f0b49df1a4fde98ee17ae345cb5f6b5e2c27f5033e8ce79060200160405180910390a15050565b6127106001600160601b0382168110156111475760405163dfd1fc1b60e01b8152600481018590526001600160601b0383166024820152604481018290526064016104e8565b6001600160a01b03831661117857604051634b4f842960e11b815260048101859052600060248201526044016104e8565b506040805180820182526001600160a01b0393841681526001600160601b0392831660208083019182526000968752600990529190942093519051909116600160a01b029116179055565b60006001600160e01b03198216632483248360e11b14806103f257506103f2826113f1565b80806111fc57506001600160a01b03821615155b156112be57600061120c84610a75565b90506001600160a01b038316158015906112385750826001600160a01b0316816001600160a01b031614155b801561124b57506112498184610967565b155b156112745760405163a9fbf51f60e01b81526001600160a01b03841660048201526024016104e8565b81156112bc5783856001600160a01b0316826001600160a01b03167f8c5be1e5ebec7d5bd14f71427d1e84f3dd0314c0f7b2291e5b200ac8c7c3b92560405160405180910390a45b505b5050600090815260046020526040902080546001600160a01b0319166001600160a01b0392909216919091179055565b6112f9838383611441565b6106ca576001600160a01b03831661132757604051637e27328960e01b8152600481018290526024016104e8565b60405163177e802f60e01b81526001600160a01b0383166004820152602481018290526044016104e8565b6060604051806080016040528060428152602001611d6c60429139905090565b606061137d82610a75565b506000611388611352565b905060008151116113a857604051806020016040528060008152506113d3565b806113b2846114a4565b6040516020016113c3929190611d3c565b6040516020818303038152906040525b9392505050565b6113e48383611537565b6106ca6000848484610db0565b60006001600160e01b031982166380ac58cd60e01b148061142257506001600160e01b03198216635b5e139f60e01b145b806103f257506301ffc9a760e01b6001600160e01b03198316146103f2565b60006001600160a01b03831615801590610fd55750826001600160a01b0316846001600160a01b0316148061147b575061147b8484610967565b80610fd55750506000908152600460205260409020546001600160a01b03908116911614919050565b606060006114b18361159c565b600101905060008167ffffffffffffffff8111156114d1576114d1611863565b6040519080825280601f01601f1916602001820160405280156114fb576020820181803683370190505b5090508181016020015b600019016f181899199a1a9b1b9c1cb0b131b232b360811b600a86061a8153600a850494508461150557509392505050565b6001600160a01b03821661156157604051633250574960e11b8152600060048201526024016104e8565b600061156f83836000610abb565b90506001600160a01b038116156106ca576040516339e3563760e11b8152600060048201526024016104e8565b60008072184f03e93ff9f4daa797ed6e38ed64bf6a1f0160401b83106115db5772184f03e93ff9f4daa797ed6e38ed64bf6a1f0160401b830492506040015b6d04ee2d6d415b85acef81000000008310611607576d04ee2d6d415b85acef8100000000830492506020015b662386f26fc10000831061162557662386f26fc10000830492506010015b6305f5e100831061163d576305f5e100830492506008015b612710831061165157612710830492506004015b60648310611663576064830492506002015b600a83106103f25760010192915050565b6001600160e01b0319811681146109d057600080fd5b60006020828403121561169c57600080fd5b81356113d381611674565b60005b838110156116c25781810151838201526020016116aa565b50506000910152565b600081518084526116e38160208601602086016116a7565b601f01601f19169290920160200192915050565b6020815260006113d360208301846116cb565b60006020828403121561171c57600080fd5b5035919050565b80356001600160a01b03811681146107fa57600080fd5b6000806040838503121561174d57600080fd5b61175683611723565b946020939093013593505050565b60008060006060848603121561177957600080fd5b61178284611723565b925061179060208501611723565b9150604084013590509250925092565b600080604083850312156117b357600080fd5b50508035926020909101359150565b6000602082840312156117d457600080fd5b6113d382611723565b600080604083850312156117f057600080fd5b6117f983611723565b915060208301356001600160601b038116811461181557600080fd5b809150509250929050565b803580151581146107fa57600080fd5b6000806040838503121561184357600080fd5b61184c83611723565b915061185a60208401611820565b90509250929050565b634e487b7160e01b600052604160045260246000fd5b600067ffffffffffffffff8084111561189457611894611863565b604051601f8501601f19908116603f011681019082821181831017156118bc576118bc611863565b816040528093508581528686860111156118d557600080fd5b858560208301376000602087830101525050509392505050565b6000806000806080858703121561190557600080fd5b61190e85611723565b935061191c60208601611723565b925060408501359150606085013567ffffffffffffffff81111561193f57600080fd5b8501601f8101871361195057600080fd5b61195f87823560208401611879565b91505092959194509250565b600082601f83011261197c57600080fd5b6113d383833560208501611879565b6000806000606084860312156119a057600080fd5b6119a984611723565b925060208401359150604084013567ffffffffffffffff8111156119cc57600080fd5b6119d88682870161196b565b9150509250925092565b6000806000606084860312156119f757600080fd5b8335925060208401359150611a0e60408501611820565b90509250925092565b60008060408385031215611a2a57600080fd5b611a3383611723565b915061185a60208401611723565b60008060408385031215611a5457600080fd5b82359150602083013567ffffffffffffffff811115611a7257600080fd5b611a7e8582860161196b565b9150509250929050565b600181811c90821680611a9c57607f821691505b602082108103611abc57634e487b7160e01b600052602260045260246000fd5b50919050565b634e487b7160e01b600052601160045260246000fd5b80820281158282048414176103f2576103f2611ac2565b600082611b0c57634e487b7160e01b600052601260045260246000fd5b500490565b6020808252600b908201526a1b9bdd08185b1b1bddd95960aa1b604082015260600190565b6000602080835260008454611b4a81611a88565b80848701526040600180841660008114611b6b5760018114611b8557611bb3565b60ff1985168984015283151560051b890183019550611bb3565b896000528660002060005b85811015611bab5781548b8201860152908301908801611b90565b8a0184019650505b509398975050505050505050565b808201808211156103f2576103f2611ac2565b601f8211156106ca57600081815260208120601f850160051c81016020861015611bfb5750805b601f850160051c820191505b81811015611c1a57828155600101611c07565b505050505050565b815167ffffffffffffffff811115611c3c57611c3c611863565b611c5081611c4a8454611a88565b84611bd4565b602080601f831160018114611c855760008415611c6d5750858301515b600019600386901b1c1916600185901b178555611c1a565b600085815260208120601f198616915b82811015611cb457888601518255948401946001909101908401611c95565b5085821015611cd25787850151600019600388901b60f8161c191681555b5050505050600190811b01905550565b6001600160a01b0385811682528416602082015260408101839052608060608201819052600090611d15908301846116cb565b9695505050505050565b600060208284031215611d3157600080fd5b81516113d381611674565b60008351611d4e8184602088016116a7565b835190830190611d628183602088016116a7565b0194935050505056fe697066733a2f2f626166796265696277706b6b3235686a3732696c6465686c78636f777a626e65337636796935623362716779337a69703669773367327136743575a2646970667358221220bdd2b2b803b0dfe058f68a03743a2ddfbfcbda994775a1ccbd304c9775df27da64736f6c63430008140033","linkReferences":{}},"methodIdentifiers":{"addExtendedUri(uint256,string)":"fb27c277","addManager(address,bool)":"cec26e51","approve(address,uint256)":"095ea7b3","balanceOf(address)":"70a08231","burn(uint256)":"42966c68","getApproved(uint256)":"081812fc","getMultiUriData(uint256)":"19861423","getUri(uint256,uint256)":"3b65bcfe","isApprovedForAll(address,address)":"e985e9c5","name()":"06fdde03","owner()":"8da5cb5b","ownerOf(uint256)":"6352211e","renounceOwnership()":"715018a6","royaltyInfo(uint256,uint256)":"2a55205a","safeMint(address,uint256,string)":"cd279c7c","safeTransferFrom(address,address,uint256)":"42842e0e","safeTransferFrom(address,address,uint256,bytes)":"b88d4fde","setApprovalForAll(address,bool)":"a22cb465","setExtendedUri(uint256,uint256,bool)":"d354ec59","setRoyalty(address,uint96)":"8f2fc60b","supportsInterface(bytes4)":"01ffc9a7","symbol()":"95d89b41","tokenURI(uint256)":"c87b56dd","totalSupply()":"18160ddd","transferFrom(address,address,uint256)":"23b872dd","transferOwnership(address)":"f2fde38b"},"id":25}