{"abi":[{"type":"function","name":"dailyLoginPoints","inputs":[],"outputs":[{"name":"","type":"uint256","internalType":"uint256"}],"stateMutability":"view"},{"type":"function","name":"decimals","inputs":[],"outputs":[{"name":"","type":"uint256","internalType":"uint256"}],"stateMutability":"view"},{"type":"function","name":"fiveDollarLotteryWin","inputs":[],"outputs":[{"name":"","type":"uint256","internalType":"uint256"}],"stateMutability":"view"},{"type":"function","name":"hundredDollarLotteryWin","inputs":[],"outputs":[{"name":"","type":"uint256","internalType":"uint256"}],"stateMutability":"view"},{"type":"function","name":"oneDollarLotteryWin","inputs":[],"outputs":[{"name":"","type":"uint256","internalType":"uint256"}],"stateMutability":"view"},{"type":"function","name":"power","inputs":[],"outputs":[{"name":"","type":"uint256","internalType":"uint256"}],"stateMutability":"view"},{"type":"function","name":"referalPoint","inputs":[],"outputs":[{"name":"","type":"uint256","internalType":"uint256"}],"stateMutability":"view"},{"type":"function","name":"tenDollarLotteryWin","inputs":[],"outputs":[{"name":"","type":"uint256","internalType":"uint256"}],"stateMutability":"view"}],"bytecode":{"object":"0x60806040526004600081905561001690600a61018c565b6001818155610025919061019f565b60025560015461003690600761019f565b60035560015461004790600461019f565b60045560015461005890601661019f565b60055560015461006990603761019f565b60065560015461007b9061022b61019f565b60075534801561008a57600080fd5b506101b6565b634e487b7160e01b600052601160045260246000fd5b600181815b808511156100e15781600019048211156100c7576100c7610090565b808516156100d457918102915b93841c93908002906100ab565b509250929050565b6000826100f857506001610186565b8161010557506000610186565b816001811461011b576002811461012557610141565b6001915050610186565b60ff84111561013657610136610090565b50506001821b610186565b5060208310610133831016604e8410600b8410161715610164575081810a610186565b61016e83836100a6565b806000190482111561018257610182610090565b0290505b92915050565b600061019883836100e9565b9392505050565b808202811582820484141761018657610186610090565b61010a806101c56000396000f3fe6080604052348015600f57600080fd5b5060043610607d5760003560e01c806386698fdb11605457806386698fdb1460b4578063cdd972571460bc578063f18940071460c4578063f721a73a1460cc57600080fd5b80632da5734a146082578063313ce56714609c5780633144f5221460a45780634a4d59fa1460ac575b600080fd5b608a60065481565b60405190815260200160405180910390f35b608a60005481565b608a60035481565b608a60015481565b608a60075481565b608a60025481565b608a60045481565b608a6005548156fea264697066735822122015293955ad5dc8ad0fca8fdba8225781acf4c802afe3e333c3dfbe091a69b60b64736f6c63430008140033","linkReferences":{}},"methodIdentifiers":{"dailyLoginPoints()":"cdd97257","decimals()":"313ce567","fiveDollarLotteryWin()":"f721a73a","hundredDollarLotteryWin()":"86698fdb","oneDollarLotteryWin()":"f1894007","power()":"4a4d59fa","referalPoint()":"3144f522","tenDollarLotteryWin()":"2da5734a"},"id":30}